:040000000BEF00F012
:100008004082FACF28F0FBCF29F063ED04F01BEF14
:020018000AF0EC
:1003000000010002000400080010002000400080EE
:10031000000001000200040008001000200040005E
:1003200080E614D01400000000000000000000006F
:1003300000000000000000000000000000000000BD
:10034000000001010202020203030303030303038B
:10035000AE139409DE13020B7E13B2119000049CBD
:100360000004A800044815DE10FC144661696C65A1
:1003700064206F6E20617474656D707420746F20DA
:10038000506F73740A004661696C6564206F6E205B
:100390004E554C4C20706F696E7465720A00466150
:1003A000696C656420496E697469616C697A61740D
:1003B000696F6E0A004F74686572204661696C75DA
:0503C00072650A000057
:1003C600C3C0CBF0C4C0CCF0000120EE02F0CB518C
:1003D600D926CC51DA22DF50D8B46FD0F2CFC9F08B
:1003E600F29E000120EE01F0CB51D926CC51DA2243
:1003F600DF500001C76F010E0001C7250001BD6F68
:100406000001BE6B000EBE23000E0001C06F030E7E
:10041600BF6F8AEC09F00001BD510001C325D96EFA
:100426000001BE510001C421DA6EC5C0E1FFC6C09D
:10043600E2FFDECFE6FFDECFE6FFDECFE6FF00011E
:1004460020EE01F0CB51D926CC51DA22DF2ACBC0DF
:10045600D9FFCCC0DAFF000110EE01F0CB51E12646
:10046600CC51E222DE50E65CD8A019D0000120EE85
:1004760001F0CB51D926CC51DA22CBC0E1FFCCC05A
:10048600E2FFE7500001B76F000110EE01F0CB511B
:10049600E126CC51E222E7504AEC09F0DF6E00017A
:1004A60020EE02F0CB51D926CC51DA22DF06DF50FE
:1004B6000001CA6FC9C0F2FF14D0C5C0D9FFC6C0BB
:1004C600DAFF000EDF6E000120EE01F0C551D926DD
:1004D600C651DA22000EDE6E000EDD6E000E000141
:1004E600CA6F0001CA51120000018751000188112C
:1004F600D8B4120087C083F088C084F083C0B7F0F8
:1005060084C0B8F0D4EC05F000018B6F00018B516C
:10051600020D600EF324D96E000EF420DA6EDE06AC
:10052600000EDD5ADE50DE10D8A443D0030E0001C3
:10053600806F8BC081F00001826B80C0D4F081C0D7
:10054600D5F082C0D6F000018B51020D210EF324A6
:10055600F66E030EF420F76E01D80CD00500FA6E85
:100566000900F550FD6E0900F550FE6EF850FF6E5D
:10057600FA50120000018B51020D010EF324F66EA3
:10058600030EF420F76E0900F5CFD7F00900F5CF7A
:10059600D8F00001D71D0001D96F0001D81D000158
:1005A600DA6F0001D951000187170001DA51000105
:1005B600881700018B51020D010EF324F66E030E0F
:1005C600F420F76E0900F5CFD7F00900F5CFD8F083
:1005D6000001D71D0001D96F0001D81D0001DA6F97
:1005E6000001D951000183170001DA510001841777
:1005F6000001835100018411D8B412007FD76BD05B
:1006060085C0B7F086C0B8F0D4EC05F00001E16F04
:100616000001E151030D5C0EF324F66E030EF42087
:10062600F76E0900F5CFC3F00A00F5CFC4F0B40E9B
:100636000001C56F000E0001C66FE3EC01F0000972
:10064600D8A41FD00001E151020D010EF324F66E6D
:10065600030EF420F76E0900F5CFDDF00900F5CFA3
:10066600DEF00001DD1D0001DF6F0001DE1D00016F
:10067600E06F0001DF51000185170001E051000124
:100686008617B4C0D4F0B5C0D5F0B6C0D6F0000118
:10069600E151040D020EF326000EF422500EF3244F
:1006A600F66E030EF420F76E01D80CD00500FA6E34
:1006B6000900F550FD6E0900F550FE6EF850FF6E0C
:1006C600FA501200D40ED96E000EDA6EDF50D8B48E
:1006D60002D0020E12005DEC0AF00009D8B406D072
:1006E6000001855100018611D8A48AD701EC09F0D2
:1006F600F2D7D8C0B9F0D9C0BAF089EC0AF0000E2A
:100706000001DA6F020E0001DA6501D066D0000141
:10071600DA51040D500EF324F66E030EF420F76E34
:100726000900F5500900F510D8B413D00001DA51CC
:10073600040D020EF326000EF422500EF324F66E7C
:10074600030EF420F76E0900F5500900F510D8A441
:1007560002D0030E12000001DA51030D5C0EF324E1
:10076600F66E030EF420F76E0900F5CFB7F00A0017
:10077600F5CFB8F00001DA51030D020EF326000E94
:10078600F4225C0EF324F66E030EF420F76E0800D6
:10079600F5CFB9F06CEC09F00001DA51040D500EFA
:1007A600F324F66E030EF420F76E01D80ED0050082
:1007B600FA6E0900F550FD6E0900F550FE6EF85010
:1007C600FF6EFA500001DA511200E806D8B402D0E2
:1007D600050E12000001DA2B95D7000E1200C3C0D9
:1007E600CCF0C4C0CDF0CCC0D9FFCDC0DAFF00013B
:1007F60010EE02F0CC51E126CD51E222DE50E65C4D
:10080600D8B05CD0F2CFCBF0F29ECCC0D9FFCDC031
:10081600DAFFDF500001C86F0001C8510001B96F4F
:10082600BA6B000120EE02F0CC51D926CD51DA2266
:10083600DF500001C96F000120EE01F0CC51D9262E
:10084600CD51DA22DF500001CA6F0001CA51000102
:10085600C9250001B76F0001B86B0001B83726EC57
:1008660006F0010E0001B7250001BD6F000E000164
:10087600B8210001BE6F000E0001C06F030EBF6FEE
:100886008AEC09F00001BD510001C325D96E0001B3
:10089600BE510001C421DA6EC5C0DEFFC6C0DEFF50
:1008A600C7C0DEFF000120EE02F0CC51D926CD51A3
:1008B600DA22DF2ACBC0F2FF010E1200000E120070
:1008C6000600E9CF2AF0EACF2BF0E1CF2CF0E2CFF9
:1008D6002DF0D9CF2EF0DACF2FF0F3CF30F0F4CFC2
:1008E60031F0F6CF32F0F7CF33F0F8CF34F0F5CF62
:1008F60035F09EA415D0BF50266EBE50366E26C06B
:1009060037F0200E3624386E4E0E3720396E3950A9
:10091600BF6E38C0BEFF9E9400018F2B3A4A3B2A19
:10092600A4A403D0A4949DEC0AF0A4A003D0A490A0
:1009360096EC0AF0A4AA03D0A49AA7EC0AF0A4AEF7
:1009460003D0A49EA8EC0AF09EAC03D09E9C77EC44
:1009560006F035C0F5FF34C0F8FF33C0F7FF32C0EC
:10096600F6FF31C0F4FF30C0F3FF2FC0DAFF2EC010
:10097600D9FF2DC0E2FF2CC0E1FF2BC0EAFF2AC041
:10098600E9FF29C0FBFF28C0FAFF40921100020EC2
:100996000001D419D8A406D050EC0AF04BEC07F0AD
:1009A600898448D0050E0001D419D8B421D03AD094
:1009B600898489968998899A000E26EC09F03AD09E
:1009C600899489868998899A010E26EC09F032D095
:1009D600899489968988899A020E26EC09F02AD08C
:1009E600899489968998898A030E26EC09F022D083
:1009F60020EED5F0DECFD7F0DDCFD8F00001D8510C
:100A0600000AD8A417D00001D751070AD8B4E8D7EE
:100A16000C0AD8B4DDD7060AD8B4D2D7030AD8B49C
:100A2600C7D708D0070E0001D419D8A403D0FF0EEB
:100A360026EC09F0000E0001D96FD9C0D4F0DAC057
:100A4600D5F0DBC0D6F012000DC016F00EC017F0C0
:100A560016C0D9FF17C0DAFF10EE02F01650E126D5
:100A66001750E222DE50E65CD8B046D0F2CF15F041
:100A7600F29E16C0D9FF17C0DAFFDF50126E125071
:100A8600036E046A20EE02F01650D9261750DA22B9
:100A9600DF50136E20EE01F01650D9261750DA22D9
:100AA600DF50146E14501324016E026A023600ECF5
:100AB60008F0010E0124076E000E0220086E000EDB
:100AC6000A6E030E096E2EEC0AF007500D24D96E3D
:100AD60008500E20DA6E0FC0DEFF10C0DEFF11C018
:100AE600DEFF20EE02F01650D9261750DA22DF2A52
:100AF60015C0F2FF010E1200000E120040D0030EC8
:100B06000001D419D8A443D00001D5050001D6119F
:100B1600D8A43DD0010E00018C6F39D0060E00011D
:100B2600D419D8A413D0000E0001B86F030EB76F06
:100B3600010E0BEC07F0000E00018C6FD4C0CEF056
:100B4600D5C0CFF0D6C0D0F089EC07F0050E000175
:100B5600D419D8A41CD0000E0001B86F030EB76FCD
:100B6600010E0BEC07F0000E00018C6FD4C0CEF026
:100B7600D5C0CFF0D6C0D0F089EC07F008D0000180
:100B86008C51000AD8B4BBD7010AD8B4C7D7000E17
:100B96000001D76FD7C0D4F0D8C0D5F0D9C0D6F0F1
:100BA6001200800E0001BE6F030E0001C06F00012F
:100BB600C0BF46D00001C051040DF3CFB9F0B7C095
:100BC600BAF0B8C0BBF00001B92B04D00001D89030
:100BD600BB33BA330001B92FF9D70001BA510F0B55
:100BE6000001BF6F0001BF510001D8B426D0FF0E2F
:100BF6000001B96FFF0E0001BA6F0001BF5100017D
:100C0600BB6FBC6B0001B9510001BB270001BA5193
:100C16000001BC23410E0001BB25F66E030EBC216C
:100C2600F76E0800F5CFBDF00001C051040DF3507A
:100C36000001BD250001BE6F03D00001C007B7D774
:100C46000001BE511200000E0001BC6F0001B8AFDA
:100C560008D00001B76DB81FD8B0B82B010E00013F
:100C6600BC6F0001BAAF05D00001B96DBA1FD8B08C
:100C7600BA2B0001B9510001BA11D8B426D0010E21
:100C86000001BB6F06D00001D890B937BA37000112
:100C9600BB2B0001BAAFF7D70001B9510001B75D10
:100CA6000001BA510001B859D8A008D00001B951C5
:100CB6000001B75F0001BA510001B85B0001D8908E
:100CC600BA33B9330001BB2FE7D70001BC5100018D
:100CD600D8B405D00001B76DB81FD8B0B82BB7C0CF
:100CE600B7F0B8C0B8F01200C2B21200C230E83293
:100CF6000F0B0009D8A418D0C350C4CF21F0226A24
:100D060021C022F0216A2112000E22122234223240
:100D1600213222342232213221503E6EC250C30B80
:100D26000409C26EC2821200C230E8320F0BE80616
:100D3600D8A41200C350C4CF21F0226A21C022F0E9
:100D4600216A2112000E221222342232213222344A
:100D56002232213221503F6EC294C296C298C29A64
:100D6600070E236E23C01EF024C01FF025C020F0FE
:100D76007EEC0AF0000E026E050E016E000E38ECD7
:100D860008F012000D0EC16E9C0E0001D96F3F0EC9
:100D9600D86F7CEC03F00001E26F0001E251000124
:100DA600D8A429D002EC03F00001E26F24D06B0E28
:100DB6000001B76F030E0001B86FA5EC09F027D04C
:100DC600860E0001B76F030E0001B86FA5EC09F09F
:100DD6001ED09E0E0001B76F030E0001B86FA5EC82
:100DE60009F015D0B50E0001B76F030E0001B86FFC
:100DF600A5EC09F00CD00001E251010AD8B4D7D70E
:100E0600020AD8B4DDD7060AD8B4E3D7EBD7FFD7A2
:100E16000001BB6F100E0001BB6112000001BB5147
:100E2600020D210EF324F66E030EF420F76E090070
:100E3600F5500900F510D8B412000001B7510001B1
:100E4600B811D8B412000001BB51020D600EF32494
:100E5600D96E000EF420DA6EB7C0DEFFB8C0DDFF33
:100E66000001BB51020D010EF324F66E030EF420B1
:100E7600F76E0900F5CFB9F00900F5CFBAF0000119
:100E8600B951000187130001BA51000188131200FD
:100E9600800E6F6E6EAEFED7200E736E718E7080F2
:100EA600709271907182718471867198718A728064
:100EB600708C6094609A609C000E0F01006F080EA3
:100EC6000F01016F000E0F01026F010E0F01036F7C
:100ED600000E0F01186F000E0F01196F000E0F01A3
:100EE6001A6F010E0F011B6F000E776E100E6F6EDC
:100EF6006EBEFED7A380A38AA38EA490A49AA49EB6
:100F0600A384A4940F014097609E1200000E000176
:100F1600D36F020E0001D36501D012000001D35138
:100F2600030D5C0EF324F66E030EF420F76E090033
:100F3600F5CFC3F00A00F5CFC4F0CEC0C5F0CFC0E0
:100F4600C6F0D0C0C7F0F2EC03F0E806D8A4120051
:100F56000001D351020D010EF324F66E030EF420A8
:100F6600F76E0900F5CFD1F00900F5CFD2F00001F8
:100F7600D151000185130001D251000186130001F1
:100F8600D32BC7D70001D36F030E0001D36133D033
:100F96000001D351030D5C0EF324F66E030EF4200C
:100FA600F76E0900F5CFC3F00A00F5CFC4F0CEC046
:100FB600C5F0CFC0C6F0D0C0C7F0F2EC03F0E8062B
:100FC600D8A419D00001D351020D010EF324F66EF8
:100FD600030EF420F76E0900F5CFD1F00900F5CF26
:100FE600D2F00001D151000185130001D251000158
:100FF6008613010E1200000E1200000E066E02AEDF
:1010060006D0016C021ED8B0022A010E066E04AE8E
:1010160004D0036C041ED8B0042A03500410D8B4BC
:1010260018D0010E056E04D0D89003360436052A72
:1010360004AEFAD70350015C04500258D8A004D07D
:101046000350015E0450025AD89004320332052E32
:10105600F1D70650D8B404D0016C021ED8B0022ACB
:1010660001C001F002C002F01200056E100E05600C
:1010760012000550020D210EF324F66E030EF42025
:10108600F76E0900F5500900F510D8B412000150AA
:101096000210D8B412000550020D600EF324D96E6A
:1010A600000EF420DA6E01C0DEFF02C0DDFF05503F
:1010B600020D010EF324F66E030EF420F76E0900FE
:1010C600F5CF03F00900F5CF04F0035000018713B4
:1010D6000450000188131200000E0001D76F9AEC2D
:1010E6000AF00001DB6F00018D510001DB19D8B455
:1010F60023D0010E0001D76FDBC0D9F00001DA6BF7
:101106007F0E0001DB19D8B40CD0050E0001D86F94
:10111600D8C0D4F0D9C0D5F0DAC0D6F068EC0AF061
:101126000BD0060E0001D86FD8C0D4F0D9C0D5F0C8
:10113600DAC0D6F068EC0AF0DBC08DF00001D751BA
:1011460012001D6E030E1D602FD01D50030D5C0E88
:10115600F324F66E030EF420F76E0900F5CF0DF0BA
:101166000A00F5CF0EF018C00FF019C010F01AC023
:1011760011F027EC05F0E806D8A416D01D50020D94
:10118600010EF324F66E030EF420F76E0900F5CF78
:101196001BF00900F5CF1CF01B50000185131C50F5
:1011A60000018613010E1200000E1200020E00014D
:1011B600D419D8A40ED006EC0AF0C294C296C298EE
:1011C600C29A000E0001B86F050EB76F000E0BEC49
:1011D60007F0030E0001D419D8A406D00001D5519A
:1011E6000001D611D8B4C282000E0001D76FD7C055
:1011F600D4F0D8C0D5F0D9C0D6F01200000E000148
:10120600DC6F010E0001DC6501D012000001DC512B
:10121600020D650EF324F66E030EF420F76E01D868
:101226000CD00500FA6E0900F550FD6E0900F55068
:10123600FE6EF850FF6EFA501200E806D8B412009F
:101246000001DC2BDED70001B76F0F014097030EBC
:101256000F01456FB7C046FFA2EC0AF00F01476FBA
:10126600A0EC0AF00F01486F000E0F01416F080E47
:101276000F01426F000E0F01436F010E0F01446F05
:101286000F0140810F0140830F01408712000001CA
:10129600B86F080E0001B96F000E0001BA6FD89042
:1012A6000001B8350001BA350001BA6F0001D890C7
:1012B600B8370001B7510001BA5DD8A004D00001CB
:1012C600B7510001BA5F0001B92FE9D70001BA5141
:1012D6001200B7C0BAF0B8C0BBF00001B905BAC079
:1012E600D9FFBBC0DAFFDF6E000120EE01F0BA5174
:1012F600D926BB51DA22000EDF6E000120EE02F085
:10130600BA51D926BB51DA22000EDF6E1200000157
:10131600BD510001BF03F3CFC1F0F4CFC2F000010D
:10132600BD510001C003F3500001C2270001BE51A8
:101336000001BF03F3500001C227C1C0BDF0C2C007
:10134600BEF01200B90E0001B96F000E0001BA6FAF
:1013560004D00001BB51A6EC0AF0B7C0F6FFB8C036
:10136600F7FF0001B74BB82B0800F5CFBBF0000123
:10137600BB51D8B41200EDD70001D76FD7C089F0A2
:10138600020E0001D46FD4C0CEF0D5C0CFF0D6C0C7
:10139600D0F000018951C5EC07F0E806D8A402D0C8
:1013A600010E1200000E12000001D76FD7C08AF09E
:1013B600020E0001D46FD4C0CEF0D5C0CFF0D6C097
:1013C600D0F000018A51C5EC07F0E806D8A402D097
:1013D600010E1200000E12000001BC6FBCC08EF0A0
:1013E60090EC0AF09AEC0AF000018D6F000E0001F5
:1013F6008C6F000E0001B86F030EB76F010E0BEC79
:1014060007F0010E1200000E806E000E896E9280AB
:101416009282C19AC198C08EC050C70B2009C06E77
:10142600C050F80B0109C06EC2809E9C9D8C1200B4
:1014360000EE60F0570EEE6AE806FDE100EE36F0CB
:101446000A0EEE6AE806FDE140904092000EF86E44
:101456000001C5EF06F007500902F3CF0BF0F4CFF9
:101466000CF007500A02F3500C2608500902F350FC
:101476000C260BC007F00CC008F01200040E9D6E7F
:10148600400EF26E0A0EBD6E010EBE6E000EBF6EEF
:10149600210ECD6EF28CF28E1200000E816E000EC1
:1014A6008A6E93949386000E806EFC0E8916030E48
:1014B6009216120004D077EC02F000018F070001AB
:1014C6008F51D8A4F8D7010E1200D4C0CEF0D5C0E3
:1014D600CFF0D6C0D0F000018E51C5EC07F0120057
:1014E600D4C0CEF0D5C0CFF0D6C0D0F0000189511F
:1014F600C5EC07F012001EC018F01FC019F020C07E
:101506001AF000018A51A4EC08F01200B9C0B7F035
:10151600BAC0B8F041EC0AF01200000E826E000E5E
:101526008B6E8268120060AE1200609E12008250BE
:101536000F0B12000F01409712003F5012003E5051
:0C1546001200000E120012001200120031
:020000040020DA
:08000000FFFFFFFFFFFFFFFF00
:020000040030CA
:0E000000FF02191EFF8085FF0FC00FE00F40AA
:00000001FF
