:040000000BEF00F012
:100008004082FACF28F0FBCF29F0D0ED04F02BEF97
:020018000AF0EC
:1003000000010002000400080010002000400080EE
:10031000000001000200040008001000200040005E
:10032000800615F01400000000000000000000002E
:1003300000000000000000000000000000000000BD
:10034000000001010202020203030303030303038B
:10035000CE13C608FE13220B9E13D2119100049DEA
:100360000004A900046815FE101C154661696C653F
:1003700064206F6E20617474656D707420746F20DA
:10038000506F73740A004661696C6564206F6E205B
:100390004E554C4C20706F696E7465720A00466150
:1003A000696C656420496E697469616C697A61740D
:1003B000696F6E0A004F74686572204661696C75DA
:0503C00072650A000057
:1003C600C4C0CCF0C5C0CDF0000120EE02F0CC5187
:1003D600D926CD51DA22DF50D8B46FD0F2CFCAF089
:1003E600F29E000120EE01F0CC51D926CD51DA2241
:1003F600DF500001C86F010E0001C8250001BE6F65
:100406000001BF6B000EBF23000E0001C16F030E7B
:10041600C06F9AEC09F00001BE510001C425D96EE7
:100426000001BF510001C521DA6EC6C0E1FFC7C099
:10043600E2FFDECFE6FFDECFE6FFDECFE6FF00011E
:1004460020EE01F0CC51D926CD51DA22DF2ACCC0DC
:10045600D9FFCDC0DAFF000110EE01F0CC51E12644
:10046600CD51E222DE50E65CD8A019D0000120EE84
:1004760001F0CC51D926CD51DA22CCC0E1FFCDC056
:10048600E2FFE7500001B86F000110EE01F0CC5119
:10049600E126CD51E222E7505AEC09F0DF6E000169
:1004A60020EE02F0CC51D926CD51DA22DF06DF50FC
:1004B6000001CB6FCAC0F2FF14D0C6C0D9FFC7C0B7
:1004C600DAFF000EDF6E000120EE01F0C651D926DC
:1004D600C751DA22000EDE6E000EDD6E000E000140
:1004E600CB6F0001CB51120000018751000188112A
:1004F600D8B4120087C083F088C084F083C0B8F0F7
:1005060084C0B9F0E4EC05F000018B6F00018B515B
:10051600020D600EF324D96E000EF420DA6EDE06AC
:10052600000EDD5ADE50DE10D8A443D0030E0001C3
:10053600806F8BC081F00001826B80C0D5F081C0D6
:10054600D6F082C0D7F000018B51020D210EF324A4
:10055600F66E030EF420F76E01D80CD00500FA6E85
:100566000900F550FD6E0900F550FE6EF850FF6E5D
:10057600FA50120000018B51020D010EF324F66EA3
:10058600030EF420F76E0900F5CFD8F00900F5CF79
:10059600D9F00001D81D0001DA6F0001D91D000154
:1005A600DB6F0001DA51000187170001DB51000102
:1005B600881700018B51020D010EF324F66E030E0F
:1005C600F420F76E0900F5CFD8F00900F5CFD9F081
:1005D6000001D81D0001DA6F0001D91D0001DB6F93
:1005E6000001DA51000183170001DB510001841775
:1005F6000001835100018411D8B412007FD76BD05B
:1006060085C0B8F086C0B9F0E4EC05F00001E26FF1
:100616000001E251030D5C0EF324F66E030EF42086
:10062600F76E0900F5CFC4F00A00F5CFC5F0B50E98
:100636000001C66F000E0001C76FE3EC01F0000970
:10064600D8A41FD00001E251020D010EF324F66E6C
:10065600030EF420F76E0900F5CFDEF00900F5CFA2
:10066600DFF00001DE1D0001E06F0001DF1D00016B
:10067600E16F0001E051000185170001E151000121
:100686008617B5C0D5F0B6C0D6F0B7C0D7F0000112
:10069600E251040D020EF326000EF422500EF3244E
:1006A600F66E030EF420F76E01D80CD00500FA6E34
:1006B6000900F550FD6E0900F550FE6EF850FF6E0C
:1006C600FA501200D50ED96E000EDA6EDF50D8B48D
:1006D60002D0020E12006DEC0AF00009D8B406D062
:1006E6000001855100018611D8A48AD711EC09F0C2
:1006F600F2D7D9C0BAF0DAC0BBF099EC0AF0000E16
:100706000001DB6F020E0001DB6501D066D000013F
:10071600DB51040D500EF324F66E030EF420F76E33
:100726000900F5500900F510D8B413D00001DB51CB
:10073600040D020EF326000EF422500EF324F66E7C
:10074600030EF420F76E0900F5500900F510D8A441
:1007560002D0030E12000001DB51030D5C0EF324E0
:10076600F66E030EF420F76E0900F5CFB8F00A0016
:10077600F5CFB9F00001DB51030D020EF326000E92
:10078600F4225C0EF324F66E030EF420F76E0800D6
:10079600F5CFBAF07CEC09F00001DB51040D500EE8
:1007A600F324F66E030EF420F76E01D80ED0050082
:1007B600FA6E0900F550FD6E0900F550FE6EF85010
:1007C600FF6EFA500001DB511200E806D8B402D0E1
:1007D600050E12000001DB2B95D7000E1200C4C0D7
:1007E600CDF0C5C0CEF0CDC0D9FFCEC0DAFF000136
:1007F60010EE02F0CD51E126CE51E222DE50E65C4B
:10080600D8B05CD0F2CFCCF0F29ECDC0D9FFCEC02E
:10081600DAFFDF500001C96F0001C9510001BA6F4C
:10082600BB6B000120EE02F0CD51D926CE51DA2263
:10083600DF500001CA6F000120EE01F0CD51D9262C
:10084600CE51DA22DF500001CB6F0001CB510001FF
:10085600CA250001B86F0001B96B0001B93736EC43
:1008660006F0010E0001B8250001BE6F000E000162
:10087600B9210001BF6F000E0001C16F030EC06FEA
:100886009AEC09F00001BE510001C425D96E0001A1
:10089600BF510001C521DA6EC6C0DEFFC7C0DEFF4C
:1008A600C8C0DEFF000120EE02F0CD51D926CE51A0
:1008B600DA22DF2ACCC0F2FF010E1200000E12006F
:1008C600020E0001D519D8A409D060EC0AF05BEC41
:1008D60007F08984000E00018E6F55D0050E0001C9
:1008E600D519D8B42DD046D0898489968998899A05
:1008F600000E00018E6F000E36EC09F044D089948C
:1009060089868998899A010E00018E6F010E36EC50
:1009160009F039D0899489968988899A020E00014E
:100926008E6F020E36EC09F02ED08994899689983E
:10093600898A030E00018E6F030E36EC09F023D070
:1009460020EED6F0DECFD8F0DDCFD9F00001D951B8
:10095600000AD8A418D00001D851070AD8B4E5D7A0
:100966000C0AD8B4D7D7060AD8B4C9D7030AD8B45C
:10097600BBD709D0070E0001D519D8A404D00001B1
:100986008E5136EC09F0000E0001DA6FDAC0D5F0B0
:10099600DBC0D6F0DCC0D7F012000600E9CF2AF0A3
:1009A600EACF2BF0E1CF2CF0E2CF2DF0D9CF2EF00D
:1009B600DACF2FF0F3CF30F0F4CF31F0F6CF32F0BC
:1009C600F7CF33F0F8CF34F0F5CF35F09EA415D03D
:1009D600BF50266EBE50366E26C037F0200E362427
:1009E600386E4E0E3720396E3950BF6E38C0BEFF96
:1009F6009E940001902B3A4A3B2AA4A403D0A494C7
:100A0600ADEC0AF0A4A003D0A490A6EC0AF0A4AA28
:100A160003D0A49AB7EC0AF0A4AE03D0A49EB8EC17
:100A26000AF09EAC03D09E9C87EC06F035C0F5FF1D
:100A360034C0F8FF33C0F7FF32C0F6FF31C0F4FF11
:100A460030C0F3FF2FC0DAFF2EC0D9FF2DC0E2FF62
:100A56002CC0E1FF2BC0EAFF2AC0E9FF29C0FBFF3B
:100A660028C0FAFF409211000DC016F00EC017F014
:100A760016C0D9FF17C0DAFF10EE02F01650E126B5
:100A86001750E222DE50E65CD8B046D0F2CF15F021
:100A9600F29E16C0D9FF17C0DAFFDF50126E125051
:100AA600036E046A20EE02F01650D9261750DA2299
:100AB600DF50136E20EE01F01650D9261750DA22B9
:100AC600DF50146E14501324016E026A023610ECC5
:100AD60008F0010E0124076E000E0220086E000EBB
:100AE6000A6E030E096E3EEC0AF007500D24D96E0D
:100AF60008500E20DA6E0FC0DEFF10C0DEFF11C0F8
:100B0600DEFF20EE02F01650D9261750DA22DF2A31
:100B160015C0F2FF010E1200000E120040D0030EA7
:100B26000001D519D8A443D00001D6050001D7117C
:100B3600D8A43DD0010E00018C6F39D0060E0001FD
:100B4600D519D8A413D0000E0001B96F030EB86FE3
:100B5600010E1BEC07F0000E00018C6FD5C0CFF024
:100B6600D6C0D0F0D7C0D1F099EC07F0050E000141
:100B7600D519D8A41CD0000E0001B96F030EB86FAA
:100B8600010E1BEC07F0000E00018C6FD5C0CFF0F4
:100B9600D6C0D0F0D7C0D1F099EC07F008D000014C
:100BA6008C51000AD8B4BBD7010AD8B4C7D7000EF7
:100BB6000001D86FD8C0D5F0D9C0D6F0DAC0D7F0CA
:100BC6001200800E0001BF6F030E0001C16F00010D
:100BD600C1BF46D00001C151040DF3CFBAF0B8C071
:100BE600BBF0B9C0BCF00001BA2B04D00001D8900C
:100BF600BC33BB330001BA2FF9D70001BB510F0B31
:100C06000001C06F0001C0510001D8B426D0FF0E0C
:100C16000001BA6FFF0E0001BB6F0001C051000159
:100C2600BC6FBD6B0001BA510001BC270001BB516E
:100C36000001BD23410E0001BC25F66E030EBD2149
:100C4600F76E0800F5CFBEF00001C151040DF35058
:100C56000001BE250001BF6F03D00001C107B7D751
:100C66000001BF511200000E0001BD6F0001B9AFB7
:100C760008D00001B86DB91FD8B0B92B010E00011C
:100C8600BD6F0001BBAF05D00001BA6DBB1FD8B068
:100C9600BB2B0001BA510001BB11D8B426D0010EFE
:100CA6000001BC6F06D00001D890BA37BB370001EF
:100CB600BC2B0001BBAFF7D70001BA510001B85DEC
:100CC6000001BB510001B959D8A008D00001BA51A2
:100CD6000001B85F0001BB510001B95B0001D8906B
:100CE600BB33BA330001BC2FE7D70001BD51000169
:100CF600D8B405D00001B86DB91FD8B0B92BB8C0AB
:100D0600B8F0B9C0B9F01200C2B21200C230E8326F
:100D16000F0B0009D8A418D0C350C4CF21F0226A03
:100D260021C022F0216A2112000E22122234223220
:100D3600213222342232213221503E6EC250C30B60
:100D46000409C26EC2821200C230E8320F0BE806F6
:100D5600D8A41200C350C4CF21F0226A21C022F0C9
:100D6600216A2112000E221222342232213222342A
:100D76002232213221503F6EC294C296C298C29A44
:100D8600070E236E23C01EF024C01FF025C020F0DE
:100D96008EEC0AF0000E026E050E016E000E48EC97
:100DA60008F012000D0EC16E9C0E0001DA6F3F0EA8
:100DB600D96F7CEC03F00001E36F0001E351000101
:100DC600D8A429D002EC03F00001E36F24D06B0E07
:100DD6000001B86F030E0001B96FB5EC09F027D01A
:100DE600860E0001B86F030E0001B96FB5EC09F06D
:100DF6001ED09E0E0001B86F030E0001B96FB5EC50
:100E060009F015D0B50E0001B86F030E0001B96FD9
:100E1600B5EC09F00CD00001E351010AD8B4D7D7DC
:100E2600020AD8B4DDD7060AD8B4E3D7EBD7FFD782
:100E36000001BC6F100E0001BC6112000001BC5124
:100E4600020D210EF324F66E030EF420F76E090050
:100E5600F5500900F510D8B412000001B851000190
:100E6600B911D8B412000001BC51020D600EF32472
:100E7600D96E000EF420DA6EB8C0DEFFB9C0DDFF11
:100E86000001BC51020D010EF324F66E030EF42090
:100E9600F76E0900F5CFBAF00900F5CFBBF00001F7
:100EA600BA51000187130001BB51000188131200DB
:100EB600800E6F6E6EAEFED7200E736E718E7080D2
:100EC600709271907182718471867198718A728044
:100ED600708C6094609A609C000E0F01006F080E83
:100EE6000F01016F000E0F01026F010E0F01036F5C
:100EF600000E0F01186F000E0F01196F000E0F0183
:100F06001A6F010E0F011B6F000E776E100E6F6EBB
:100F16006EBEFED7A380A38AA38EA490A49AA49E95
:100F2600A384A4940F014097609E1200000E000156
:100F3600D46F020E0001D46501D012000001D45115
:100F4600030D5C0EF324F66E030EF420F76E090013
:100F5600F5CFC4F00A00F5CFC5F0CFC0C6F0D0C0BB
:100F6600C7F0D1C0C8F0F2EC03F0E806D8A412002E
:100F76000001D451020D010EF324F66E030EF42087
:100F8600F76E0900F5CFD2F00900F5CFD3F00001D6
:100F9600D251000185130001D351000186130001CF
:100FA600D42BC7D70001D46F030E0001D46133D010
:100FB6000001D451030D5C0EF324F66E030EF420EB
:100FC600F76E0900F5CFC4F00A00F5CFC5F0CFC023
:100FD600C6F0D0C0C7F0D1C0C8F0F2EC03F0E80606
:100FE600D8A419D00001D451020D010EF324F66ED7
:100FF600030EF420F76E0900F5CFD2F00900F5CF05
:10100600D3F00001D251000185130001D351000134
:101016008613010E1200000E1200000E066E02AEBE
:1010260006D0016C021ED8B0022A010E066E04AE6E
:1010360004D0036C041ED8B0042A03500410D8B49C
:1010460018D0010E056E04D0D89003360436052A52
:1010560004AEFAD70350015C04500258D8A004D05D
:101066000350015E0450025AD89004320332052E12
:10107600F1D70650D8B404D0016C021ED8B0022AAB
:1010860001C001F002C002F01200056E100E0560EC
:1010960012000550020D210EF324F66E030EF42005
:1010A600F76E0900F5500900F510D8B4120001508A
:1010B6000210D8B412000550020D600EF324D96E4A
:1010C600000EF420DA6E01C0DEFF02C0DDFF05501F
:1010D600020D010EF324F66E030EF420F76E0900DE
:1010E600F5CF03F00900F5CF04F003500001871394
:1010F6000450000188131200000E0001D86FAAECFC
:101106000AF00001DC6F00018D510001DC19D8B432
:1011160023D0010E0001D86FDCC0DAF00001DB6BD2
:101126007F0E0001DC19D8B40CD0050E0001D96F72
:10113600D9C0D5F0DAC0D6F0DBC0D7F078EC0AF02B
:101146000BD0060E0001D96FD9C0D5F0DAC0D6F0A3
:10115600DBC0D7F078EC0AF0DCC08DF00001D85186
:1011660012001D6E030E1D602FD01D50030D5C0E68
:10117600F324F66E030EF420F76E0900F5CF0DF09A
:101186000A00F5CF0EF018C00FF019C010F01AC003
:1011960011F037EC05F0E806D8A416D01D50020D64
:1011A600010EF324F66E030EF420F76E0900F5CF58
:1011B6001BF00900F5CF1CF01B50000185131C50D5
:1011C60000018613010E1200000E1200020E00012D
:1011D600D519D8A40ED016EC0AF0C294C296C298BD
:1011E600C29A000E0001B96F050EB86F000E1BEC17
:1011F60007F0030E0001D519D8A406D00001D65178
:101206000001D711D8B4C282000E0001D86FD8C031
:10121600D5F0D9C0D6F0DAC0D7F01200000E000122
:10122600DD6F010E0001DD6501D012000001DD5108
:10123600020D650EF324F66E030EF420F76E01D848
:101246000CD00500FA6E0900F550FD6E0900F55048
:10125600FE6EF850FF6EFA501200E806D8B412007F
:101266000001DD2BDED70001B86F0F014097030E9A
:101276000F01456FB8C046FFB2EC0AF00F01476F89
:10128600B0EC0AF00F01486F000E0F01416F080E17
:101296000F01426F000E0F01436F010E0F01446FE5
:1012A6000F0140810F0140830F01408712000001AA
:1012B600B96F080E0001BA6F000E0001BB6FD8901F
:1012C6000001B9350001BB350001BB6F0001D890A4
:1012D600B9370001B8510001BB5DD8A004D00001A8
:1012E600B8510001BB5F0001BA2FE9D70001BB511D
:1012F6001200B8C0BBF0B9C0BCF00001BA05BBC053
:10130600D9FFBCC0DAFFDF6E000120EE01F0BB5151
:10131600D926BC51DA22000EDF6E000120EE02F063
:10132600BB51D926BC51DA22000EDF6E1200000135
:10133600BE510001C003F3CFC2F0F4CFC3F00001E9
:10134600BE510001C103F3500001C3270001BF5184
:101356000001C003F3500001C327C2C0BEF0C3C0E2
:10136600BFF01200BA0E0001BA6F000E0001BB6F8B
:1013760004D00001BC51B6EC0AF0B8C0F6FFB9C003
:10138600F7FF0001B84BB92B0800F5CFBCF0000100
:10139600BC51D8B41200EDD70001D86FD8C089F07F
:1013A600020E0001D56FD5C0CFF0D6C0D0F0D7C0A1
:1013B600D1F000018951D5EC07F0E806D8A402D097
:1013C600010E1200000E12000001D86FD8C08AF07C
:1013D600020E0001D56FD5C0CFF0D6C0D0F0D7C071
:1013E600D1F000018A51D5EC07F0E806D8A402D066
:1013F600010E1200000E12000001BD6FBDC08FF07D
:10140600A0EC0AF0AAEC0AF000018D6F000E0001B4
:101416008C6F000E0001B96F030EB86F010E1BEC46
:1014260007F0010E1200000E806E000E896E92808B
:101436009282C19AC198C08EC050C70B2009C06E57
:10144600C050F80B0109C06EC2809E9C9D8C120094
:1014560000EE60F0580EEE6AE806FDE100EE36F0AA
:101466000A0EEE6AE806FDE140904092000EF86E24
:101476000001D5EF06F007500902F3CF0BF0F4CFC9
:101486000CF007500A02F3500C2608500902F350DC
:101496000C260BC007F00CC008F01200040E9D6E5F
:1014A600400EF26E0A0EBD6E010EBE6E000EBF6ECF
:1014B600210ECD6EF28CF28E1200000E816E000EA1
:1014C6008A6E93949386000E806EFC0E8916030E28
:1014D6009216120004D077EC02F00001900700018A
:1014E6009051D8A4F8D7010E1200D5C0CFF0D6C0BF
:1014F600D0F0D7C0D1F000018F51D5EC07F0120023
:10150600D5C0CFF0D6C0D0F0D7C0D1F000018951F8
:10151600D5EC07F012001EC018F01FC019F020C04D
:101526001AF000018A51B4EC08F01200BAC0B8F003
:10153600BBC0B9F051EC0AF01200000E826E000E2C
:101546008B6E8268120060AE1200609E120082509E
:101556000F0B12000F01409712003F5012003E5031
:0C1566001200000E120012001200120011
:020000040020DA
:08000000FFFFFFFFFFFFFFFF00
:020000040030CA
:0E000000FF02191EFF8085FF0FC00FE00F40AA
:00000001FF
