:040000000BEF00F012
:100008003E82FACF28F0FBCF29F0D0ED04F03BEF89
:020018000AF0EC
:1003000000010002000400080010002000400080EE
:10031000000001000200040008001000200040005E
:1003200080261510150000000000000000000000ED
:1003300000000000000000000000000000000000BD
:10034000000001010202020203030303030303038B
:10035000EE13C6081E14220BBE133A12950004A118
:100360000004AD0004941566113C154661696C6586
:1003700064206F6E20617474656D707420746F20DA
:10038000506F73740A004661696C6564206F6E205B
:100390004E554C4C20706F696E7465720A00466150
:1003A000696C656420496E697469616C697A61740D
:1003B000696F6E0A004F74686572204661696C75DA
:0503C00072650A000057
:1003C600C8C0D0F0C9C0D1F0000120EE02F0D05173
:1003D600D926D151DA22DF50D8B46FD0F2CFCEF081
:1003E600F29E000120EE01F0D051D926D151DA2239
:1003F600DF500001CC6F010E0001CC250001C26F59
:100406000001C36B000EC323000E0001C56F030E6F
:10041600C46FAAEC09F00001C2510001C825D96ECB
:100426000001C3510001C921DA6ECAC0E1FFCBC089
:10043600E2FFDECFE6FFDECFE6FFDECFE6FF00011E
:1004460020EE01F0D051D926D151DA22DF2AD0C0D0
:10045600D9FFD1C0DAFF000110EE01F0D051E1263C
:10046600D151E222DE50E65CD8A019D0000120EE80
:1004760001F0D051D926D151DA22D0C0E1FFD1C046
:10048600E2FFE7500001BC6F000110EE01F0D05111
:10049600E126D151E222E7506AEC09F0DF6E000155
:1004A60020EE02F0D051D926D151DA22DF06DF50F4
:1004B6000001CF6FCEC0F2FF14D0CAC0D9FFCBC0A7
:1004C600DAFF000EDF6E000120EE01F0CA51D926D8
:1004D600CB51DA22000EDE6E000EDD6E000E00013C
:1004E600CF6F0001CF51120000018B5100018C111A
:1004F600D8B412008BC083F08CC084F083C0BCF0EB
:1005060084C0BDF0E4EC05F000018F6F00018F514F
:10051600020D600EF324D96E000EF420DA6EDE06AC
:10052600000EDD5ADE50DE10D8A443D0030E0001C3
:10053600806F8FC081F00001826B80C0D9F081C0CE
:10054600DAF082C0DBF000018F51020D210EF32498
:10055600F66E030EF420F76E01D80CD00500FA6E85
:100566000900F550FD6E0900F550FE6EF850FF6E5D
:10057600FA50120000018F51020D010EF324F66E9F
:10058600030EF420F76E0900F5CFDCF00900F5CF75
:10059600DDF00001DC1D0001DE6F0001DD1D000144
:1005A600DF6F0001DE5100018B170001DF510001F2
:1005B6008C1700018F51020D010EF324F66E030E07
:1005C600F420F76E0900F5CFDCF00900F5CFDDF079
:1005D6000001DC1D0001DE6F0001DD1D0001DF6F83
:1005E6000001DE51000183170001DF51000184176D
:1005F6000001835100018411D8B412007FD76BD05B
:1006060089C0BCF08AC0BDF0E4EC05F00001E66FDD
:100616000001E651030D5C0EF324F66E030EF42082
:10062600F76E0900F5CFC8F00A00F5CFC9F0B90E8C
:100636000001CA6F000E0001CB6FE3EC01F0000968
:10064600D8A41FD00001E651020D010EF324F66E68
:10065600030EF420F76E0900F5CFE2F00900F5CF9E
:10066600E3F00001E21D0001E46F0001E31D00015B
:10067600E56F0001E451000189170001E551000111
:100686008A17B9C0D9F0BAC0DAF0BBC0DBF00001F6
:10069600E651040D020EF326000EF422500EF3244A
:1006A600F66E030EF420F76E01D80CD00500FA6E34
:1006B6000900F550FD6E0900F550FE6EF850FF6E0C
:1006C600FA501200D90ED96E000EDA6EDF50D8B489
:1006D60002D0020E12007DEC0AF00009D8B406D052
:1006E6000001895100018A11D8A48AD745EC09F086
:1006F600F2D7DDC0BEF0DEC0BFF0A9EC0AF0000EF6
:100706000001DF6F020E0001DF6501D066D0000137
:10071600DF51040D500EF324F66E030EF420F76E2F
:100726000900F5500900F510D8B413D00001DF51C7
:10073600040D020EF326000EF422500EF324F66E7C
:10074600030EF420F76E0900F5500900F510D8A441
:1007560002D0030E12000001DF51030D5C0EF324DC
:10076600F66E030EF420F76E0900F5CFBCF00A0012
:10077600F5CFBDF00001DF51030D020EF326000E8A
:10078600F4225C0EF324F66E030EF420F76E0800D6
:10079600F5CFBEF08CEC09F00001DF51040D500ED0
:1007A600F324F66E030EF420F76E01D80ED0050082
:1007B600FA6E0900F550FD6E0900F550FE6EF85010
:1007C600FF6EFA500001DF511200E806D8B402D0DD
:1007D600050E12000001DF2B95D7000E1200C8C0CF
:1007E600D1F0C9C0D2F0D1C0D9FFD2C0DAFF000122
:1007F60010EE02F0D151E126D251E222DE50E65C43
:10080600D8B05CD0F2CFD0F0F29ED1C0D9FFD2C022
:10081600DAFFDF500001CD6F0001CD510001BE6F40
:10082600BF6B000120EE02F0D151D926D251DA2257
:10083600DF500001CE6F000120EE01F0D151D92624
:10084600D251DA22DF500001CF6F0001CF510001F3
:10085600CE250001BC6F0001BD6B0001BD3736EC33
:1008660006F0010E0001BC250001C26F000E00015A
:10087600BD210001C36F000E0001C56F030EC46FDA
:10088600AAEC09F00001C2510001C825D96E000189
:10089600C3510001C921DA6ECAC0DEFFCBC0DEFF3C
:1008A600CCC0DEFF000120EE02F0D151D926D25194
:1008B600DA22DF2AD0C0F2FF010E1200000E12006B
:1008C600020E0001D919D8A409D070EC0AF08FECF9
:1008D60007F08984000E0001926F55D0050E0001C5
:1008E600D919D8B42DD046D0898489968998899A01
:1008F600000E0001926F000E51EC07F044D089946F
:1009060089868998899A010E0001926F010E51EC31
:1009160007F039D0899489968988899A020E000150
:10092600926F020E51EC07F02ED089948996899821
:10093600898A030E0001926F030E51EC07F023D053
:1009460020EEDAF0DECFDCF0DDCFDDF00001DD51A8
:10095600000AD8A418D00001DC51070AD8B4E5D79C
:100966000C0AD8B4D7D7060AD8B4C9D7030AD8B45C
:10097600BBD709D0070E0001D919D8A404D00001AD
:10098600925151EC07F0000E0001DE6FDEC0D9F087
:10099600DFC0DAF0E0C0DBF012000600E9CF2AF093
:1009A600EACF2BF0E1CF2CF0E2CF2DF0D9CF2EF00D
:1009B600DACF2FF0F3CF30F0F4CF31F0F6CF32F0BC
:1009C600F7CF33F0F8CF34F0F5CF35F09EA415D03D
:1009D600BF50266EBE50366E26C037F0200E362427
:1009E600386E4E0E3720396E3950BF6E38C0BEFF96
:1009F6009E940001942B3A4A3B2AA4A403D0A494C3
:100A0600C7EC0AF0A4A003D0A490C0EC0AF0A4AAF4
:100A160003D0A49ACDEC0AF0A4AE03D0A49ECEECEB
:100A26000AF09EAC03D09E9CCDEC06F035C0F5FFD7
:100A360034C0F8FF33C0F7FF32C0F6FF31C0F4FF11
:100A460030C0F3FF2FC0DAFF2EC0D9FF2DC0E2FF62
:100A56002CC0E1FF2BC0EAFF2AC0E9FF29C0FBFF3B
:100A660028C0FAFF3E9211000DC016F00EC017F016
:100A760016C0D9FF17C0DAFF10EE02F01650E126B5
:100A86001750E222DE50E65CD8B046D0F2CF15F021
:100A9600F29E16C0D9FF17C0DAFFDF50126E125051
:100AA600036E046A20EE02F01650D9261750DA2299
:100AB600DF50136E20EE01F01650D9261750DA22B9
:100AC600DF50146E14501324016E026A023644EC91
:100AD60008F0010E0124076E000E0220086E000EBB
:100AE6000A6E030E096E4EEC0AF007500D24D96EFD
:100AF60008500E20DA6E0FC0DEFF10C0DEFF11C0F8
:100B0600DEFF20EE02F01650D9261750DA22DF2A31
:100B160015C0F2FF010E1200000E120040D0030EA7
:100B26000001D919D8A443D00001DA050001DB1170
:100B3600D8A43DD0010E0001906F39D0060E0001F9
:100B4600D919D8A413D0000E0001BD6F030EBC6FD7
:100B5600010E11EC07F0000E0001906FD9C0D3F022
:100B6600DAC0D4F0DBC0D5F0CDEC07F0050E0001FD
:100B7600D919D8A41CD0000E0001BD6F030EBC6F9E
:100B8600010E11EC07F0000E0001906FD9C0D3F0F2
:100B9600DAC0D4F0DBC0D5F0CDEC07F008D0000108
:100BA6009051000AD8B4BBD7010AD8B4C7D7000EF3
:100BB6000001DC6FDCC0D9F0DDC0DAF0DEC0DBF0AE
:100BC6001200800E0001C36F030E0001C56F000105
:100BD600C5BF46D00001C551040DF3CFBEF0BCC061
:100BE600BFF0BDC0C0F00001BE2B04D00001D890FC
:100BF600C033BF330001BE2FF9D70001BF510F0B21
:100C06000001C46F0001C4510001D8B426D0FF0E04
:100C16000001BE6FFF0E0001BF6F0001C45100014D
:100C2600C06FC16B0001BE510001C0270001BF515A
:100C36000001C123410E0001C025F66E030EC1213D
:100C4600F76E0800F5CFC2F00001C551040DF35050
:100C56000001C2250001C36F03D00001C507B7D745
:100C66000001C3511200000E0001C16F0001BDAFAB
:100C760008D00001BC6DBD1FD8B0BD2B010E000110
:100C8600C16F0001BFAF05D00001BE6DBF1FD8B058
:100C9600BF2B0001BE510001BF11D8B426D0010EF2
:100CA6000001C06F06D00001D890BE37BF370001E3
:100CB600C02B0001BFAFF7D70001BE510001BC5DDC
:100CC6000001BF510001BD59D8A008D00001BE5196
:100CD6000001BC5F0001BF510001BD5B0001D8905F
:100CE600BF33BE330001C02FE7D70001C151000159
:100CF600D8B405D00001BC6DBD1FD8B0BD2BBCC09B
:100D0600BCF0BDC0BDF012000D0EC16E9C0E000100
:100D1600DE6F3F0EDD6F7CEC03F00001E76F000134
:100D2600E7510001D8A429D002EC03F00001E76FD7
:100D360024D06B0E0001BC6F030E0001BD6FC5EC25
:100D460009F027D0860E0001BC6F030E0001BD6FAF
:100D5600C5EC09F01ED09E0E0001BC6F030E00010B
:100D6600BD6FC5EC09F015D0B50E0001BC6F030EC2
:100D76000001BD6FC5EC09F00CD00001E751010A76
:100D8600D8B4D7D7020AD8B4DDD7060AD8B4E3D781
:100D9600EBD7FFD7C2B21200C230E8320F0B000900
:100DA600D8A413D0C350C4CF21F0226A21C022F0A8
:100DB600216A21100001856F22500001866FC25002
:100DC600C30B0409C26EC2821200C230E8320F0B96
:100DD600E806D8A41200C350C4CF21F0226A21C06D
:100DE60022F0216A21100001876F22500001886FCE
:100DF600C294C296C298C29A070E236E23C01EF0F2
:100E060024C01FF025C020F09EEC0AF0000E026EF2
:100E1600050E016E000E7CEC08F012000001C06F9A
:100E2600100E0001C06112000001C051020D210E1A
:100E3600F324F66E030EF420F76E0900F550090050
:100E4600F510D8B412000001BC510001BD11D8B490
:100E560012000001C051020D600EF324D96E000E7F
:100E6600F420DA6EBCC0DEFFBDC0DDFF0001C0515C
:100E7600020D010EF324F66E030EF420F76E090040
:100E8600F5CFBEF00900F5CFBFF00001BE5100015D
:100E96008B130001BF5100018C1312000001BE6FBD
:100EA6000F014097050E0F01456FBEC046FFBBEC14
:100EB6000AF00001BDC0BCF00001BD6B0001BC51D1
:100EC6000F01476FBBEC0AF00001BC510F01486FE0
:100ED600B6EC0AF00001BDC0BCF00001BD6B00011C
:100EE600BC510F01496FB6EC0AF00001BC510F016D
:100EF6004A6F000E0F01416F080E0F01426F000E80
:100F06000F01436F010E0F01446F0F0140810F0166
:100F160040830F0140871200800E6F6E6EAEFED7C3
:100F2600200E736E718E70807092719071827184D2
:100F360071867198718A7280708C6094609A609CD8
:100F4600000E0F01006F080E0F01016F000E0F015A
:100F5600026F010E0F01036F000E0F01186F000ED6
:100F66000F01196F000E0F011A6F010E0F011B6F93
:100F7600000E776E100E6F6E6EBEFED7A380A38A2C
:100F8600A38EA490A49AA49EA384A4940F01409730
:100F9600609E1200000E0001D86F020E0001D86597
:100FA60001D012000001D851030D5C0EF324F66E39
:100FB600030EF420F76E0900F5CFC8F00A00F5CF4E
:100FC600C9F0D3C0CAF0D4C0CBF0D5C0CCF0F2EC97
:100FD60003F0E806D8A412000001D851020D010E54
:100FE600F324F66E030EF420F76E0900F5CFD6F063
:100FF6000900F5CFD7F00001D65100018913000191
:10100600D75100018A130001D82BC7D70001D86F2A
:10101600030E0001D86133D00001D851030D5C0ED8
:10102600F324F66E030EF420F76E0900F5CFC8F030
:101036000A00F5CFC9F0D3C0CAF0D4C0CBF0D5C0F2
:10104600CCF0F2EC03F0E806D8A419D00001D85190
:10105600020D010EF324F66E030EF420F76E09005E
:10106600F5CFD6F00900F5CFD7F00001D651000133
:1010760089130001D75100018A13010E1200000ED8
:101086001200000E066E02AE06D0016C021ED8B02B
:10109600022A010E066E04AE04D0036C041ED8B0FC
:1010A600042A03500410D8B418D0010E056E04D0DB
:1010B600D89003360436052A04AEFAD70350015CED
:1010C60004500258D8A004D00350015E0450025ABE
:1010D600D89004320332052EF1D70650D8B404D086
:1010E600016C021ED8B0022A01C001F002C002F053
:1010F6001200056E100E056012000550020D210E3D
:10110600F324F66E030EF420F76E0900F55009007D
:10111600F510D8B4120001500210D8B412000550D0
:10112600020D600EF324D96E000EF420DA6E01C0B3
:10113600DEFF02C0DDFF0550020D010EF324F66E40
:10114600030EF420F76E0900F5CF03F00900F5CF82
:1011560004F0035000018B13045000018C1312009D
:10116600000E0001DC6FC4EC0AF00001E06F000124
:1011760091510001E019D8B423D0010E0001DC6FB3
:10118600E0C0DEF00001DF6B7F0E0001E019D8B48D
:101196000CD0050E0001DD6FDDC0D9F0DEC0DAF03F
:1011A600DFC0DBF088EC0AF00BD0060E0001DD6F25
:1011B600DDC0D9F0DEC0DAF0DFC0DBF088EC0AF083
:1011C600E0C091F00001DC5112001D6E030E1D609F
:1011D6002FD01D50030D5C0EF324F66E030EF42083
:1011E600F76E0900F5CF0DF00A00F5CF0EF018C026
:1011F6000FF019C010F01AC011F037EC05F0E80630
:10120600D8A416D01D50020D010EF324F66E030E5F
:10121600F420F76E0900F5CF1BF00900F5CF1CF09E
:101226001B50000189131C5000018A13010E120085
:10123600000E1200020E0001D919D8A40ED026EC19
:101246000AF0C294C296C298C29A000E0001BD6FFF
:10125600050EBC6F000E11EC07F0030E0001D91944
:10126600D8A406D00001DA510001DB11D8B4C2823D
:10127600000E0001DC6FDCC0D9F0DDC0DAF0DEC0A4
:10128600DBF01200000E0001E16F010E0001E165C6
:1012960001D012000001E151020D650EF324F66E35
:1012A600030EF420F76E01D80CD00500FA6E090083
:1012B600F550FD6E0900F550FE6EF850FF6EFA50BF
:1012C6001200E806D8B412000001E12BDED70001B7
:1012D600BD6F080E0001BE6F000E0001BF6FD890F3
:1012E6000001BD350001BF350001BF6F0001D89078
:1012F600BD370001BC510001BF5DD8A004D000017C
:10130600BC510001BF5F0001BE2FE9D70001BF51EC
:101316001200BCC0BFF0BDC0C0F00001BE05BFC01A
:10132600D9FFC0C0DAFFDF6E000120EE01F0BF5129
:10133600D926C051DA22000EDF6E000120EE02F03F
:10134600BF51D926C051DA22000EDF6E120000010D
:10135600C2510001C403F3CFC6F0F4CFC7F00001B9
:10136600C2510001C503F3500001C7270001C35154
:101376000001C403F3500001C727C6C0C2F0C7C0AE
:10138600C3F01200BE0E0001BE6F000E0001BF6F5B
:1013960004D00001C051CCEC0AF0BCC0F6FFBDC0C1
:1013A600F7FF0001BC4BBD2B0800F5CFC0F00001D4
:1013B600C051D8B41200EDD70001DC6FDCC08DF04F
:1013C600020E0001D96FD9C0D3F0DAC0D4F0DBC069
:1013D600D5F000018D5109EC08F0E806D8A402D03A
:1013E600010E1200000E12000001DC6FDCC08EF050
:1013F600020E0001D96FD9C0D3F0DAC0D4F0DBC039
:10140600D5F000018E5109EC08F0E806D8A402D008
:10141600010E1200000E12000001C16FC1C093F050
:10142600B0EC0AF0C4EC0AF00001916F000E000166
:10143600906F000E0001BD6F030EBC6F010E11EC24
:1014460007F0010E1200000E806E000E896E92806B
:101456009282C19AC198C08EC050C70B2009C06E37
:10146600C050F80B0109C06EC2809E9C9D8C120074
:1014760000EE60F05C0EEE6AE806FDE100EE36F086
:10148600080EEE6AE806FDE13E903E92000EF86E0A
:10149600000187EF06F007500902F3CF0BF0F4CFF7
:1014A6000CF007500A02F3500C2608500902F350BC
:1014B6000C260BC007F00CC008F01200040E9D6E3F
:1014C600400EF26E0A0EBD6E010EBE6E000EBF6EAF
:1014D600210ECD6EF28CF28E1200000E816E000E81
:1014E6008A6E93949386000E806EFC0E8916030E08
:1014F6009216120004D077EC02F000019407000166
:101506009451D8A4F8D7010E1200D9C0D3F0DAC08E
:10151600D4F0DBC0D5F00001935109EC08F01200BD
:10152600D9C0D3F0DAC0D4F0DBC0D5F000018D51BC
:1015360009EC08F012001EC018F01FC019F020C0F8
:101546001AF000018E51E8EC08F01200BEC0BCF0A3
:10155600BFC0BDF061EC0AF01200000E826E000EF4
:101566008B6E8268120087C0BCF088C0BDF0120086
:1015760085C0BCF086C0BDF0120060AE1200609E51
:10158600120082500F0B12000F0140971200000E3E
:08159600120012001200120005
:020000040020DA
:08000000FFFFFFFFFFFFFFFF00
:020000040030CA
:0E000000FF02191EFF8085FF0FC00FE00F40AA
:00000001FF
