:040000000BEF00F012
:100008005882FACF28F0FBCF29F0F6ED0DF091EFEA
:0200180011F0E5
:1003000000010002000400080010002000400080EE
:10031000000001000200040008001000200040005E
:10032000804C2A682A000000000000000000000045
:1003300000000000000000000000000000000000BD
:10034000000001010202020203030303030303038B
:10035000E425BA1C36281E174A0004B801049A2B5B
:100360004C2A682A4661696C6564206F6E2061744E
:1003700074656D707420746F20506F73740A00463A
:1003800061696C6564206F6E204E554C4C20706F17
:10039000696E7465720A004661696C656420496E15
:1003A000697469616C697A6174696F6E0A004F746F
:1003B000686572204661696C7572650A000073C0D9
:1003C000D9FF74C0DAFFDECF75F0DECF76F0DECF76
:1003D00077F0DECF78F076C075F077C076F078C031
:1003E00077F00001786B75C08DF076C08EF073C029
:1003F000D9FF74C0DAFFDECF75F0DDCF76F0F00EF6
:100400000001751500019F6F0001A06B9FC075F082
:10041000A0C076F0040E0001776F0001D89076330B
:1004200075330001772FF9D70001755100019F271F
:10043000000176510001A02373C0D9FF74C0DAFF18
:10044000DECF75F0DDCF76F00F0E000175150001DF
:10045000A36F0001A46BA3C075F0A4C076F00001E7
:10046000753B763BF00E761775510F0B7613F00E39
:100470007517000175510001A32700017651000195
:10048000A42300019F510001A011D8A40DD0A3C046
:1004900097F0A4C098F097C095F098C096F095C0DA
:1004A00093F096C094F029D18DC06CF08EC06DF0A1
:1004B000000E00016F6F2B0E6E6F0EEC12F06CC011
:1004C0008FF06DC090F08FC066F090C067F0000EA6
:1004D0000001696F2B0E686F55EC14F00001661F68
:1004E0000001671F0001664B672B00018D51000161
:1004F000662500019D6F00018E51000167210001FA
:100500009E6F9DC066F09EC067F0000E0001696F8F
:10051000060E686F55EC14F066C091F067C092F05B
:100520009FC075F0A0C076F00001751F761F754B57
:10053000762BFF0E000175250001666F000E00018D
:1005400076210001676FA3C068F0A4C069F055EC84
:1005500014F0000167510001A16FA26B9FC066F00B
:10056000A0C067F091C068F092C069F055EC14F03B
:10057000000167C066F00001676B0001661F0001A3
:10058000671F0001664B672BFF0E00016625000107
:100590009D6F000E0001672100019E6F9DC066F0F7
:1005A0009EC067F0A3C068F0A4C069F055EC14F0D9
:1005B000000167510001996F9A6B91C075F092C06C
:1005C00076F00001751F761F754B762BFF0E00012C
:1005D00075250001666F000E000176210001676F2E
:1005E0009FC068F0A0C069F055EC14F0000167C02E
:1005F00066F00001676B0001661F0001671F0001C4
:10060000664B672BFF0E0001662500019D6F000EF3
:100610000001672100019E6F9DC066F09EC067F0DB
:10062000A3C068F0A4C069F055EC14F00001675154
:1006300000019B6F9C6B46D0A3C093F0A4C094F0C4
:100640009BC095F09CC096F008D099C093F09AC0DA
:1006500094F0A3C095F0A4C096F0A1C097F0A2C0FA
:1006600098F04BD0A1C093F0A2C094F0A3C095F035
:10067000A4C096F09BC097F09CC098F03ED0A1C05B
:1006800093F0A2C094F099C095F09AC096F008D06B
:100690009BC093F09CC094F0A1C095F0A2C096F0CE
:1006A000A3C097F0A4C098F028D0A3C093F0A4C032
:1006B00094F0A1C095F0A2C096F099C097F09AC0AE
:1006C00098F01BD08FC075F090C076F00001765185
:1006D000000AD8A4EAD700017551000AD8B4ACD7F3
:1006E000010AD8B4B2D7030AD8B4BCD7010AD8B427
:1006F000C6D7070AD8B4CCD7D8D700019551000186
:10070000756F000196510001766F0001776B000153
:10071000786B77C078F076C077F075C076F000011E
:10072000756B000197510001796F0001985100012C
:100730007A6F00017B6B00017C6B7AC07CF079C022
:100740007BF000017A6B796B73C0D9FF74C0DAFF5C
:10075000000EDE1400017D6F000EDE1400017E6FBE
:10076000000EDE1400017F6FFF0EDE140001806FAB
:100770000001795100017D110001816F00017A5162
:1007800000017E110001826F00017B5100017F1189
:100790000001836F00017C51000180110001846F12
:1007A00000017551000181110001856F0001765132
:1007B000000182110001866F000177510001831151
:1007C0000001876F00017851000184110001886FDA
:1007D00000019351000185110001896F00019451BE
:1007E0000001861100018A6F000E000187110001CF
:1007F0008B6F000E0001881100018C6F73C0D9FF50
:1008000074C0DAFF89C0DEFF8AC0DEFF8BC0DEFF66
:100810008CC0DEFF12000A0E0001796F870E000106
:100820007C6F040E00017A6F0F0E00017D6F000EC9
:1008300000017F6F22D100017F51E3C068F0000109
:10084000696B00016827000E6923DB0E0001682533
:100850000001606FFF0E000169210001616FE3C0BC
:1008600062F00001636B78EC10F060C06AF061C068
:100870006BF000017F5100016C6F6D6B00016C1F0C
:100880006D1F6C4B6D2B0001E35100016E6F6F6BA0
:1008900000016C5100016E2700016D5100016F23B2
:1008A000250E00016E250001606F000E00016F2112
:1008B0000001616FE3C062F00001636B78EC10F03F
:1008C0000001605100016A5D00016B51800A000166
:1008D000706F00016151800A00017059D8A028D0C2
:1008E00000017F510001686F696B0001681F691F7B
:1008F000684B692B0001E35100016A6F6B6B0001CB
:10090000685100016A270001695100016B23250E1F
:1009100000016A250001606F000E00016B210001DB
:10092000616FE3C062F00001636B78EC10F01AD0E5
:1009300000017F51E3C068F00001696B0001682786
:10094000000E6923DB0E000168250001606FFF0EB9
:10095000000169210001616FE3C062F00001636B77
:1009600078EC10F060C071F061C072F071C07EF080
:100970000001795100017E5DD8A041D000017D5178
:1009800000017E5DD8A006D0000E0001766F000E3B
:10099000756F30D00001EB5100017E03F3CF60F0A2
:1009A000F4CF61F07DC062F00001636BC1EC0EF02A
:1009B0000001601F0001611F0001604B612B0001FD
:1009C000EB510001686F696B0001605100016827FD
:1009D0000001615100016923040E00016A6F0001EA
:1009E00069356933683300016A2FF9D768C075F03B
:1009F00069C076F075C073F076C074F00BD0EBC0B0
:100A000068F00001683B0F0E681700016851000193
:100A1000736F746B73C07BF000017A510001686FD3
:100A2000696B0001683B693BF00E691768510F0B59
:100A30006913F00E681700017C5100016B6F6A6B3F
:100A40000001685100016A130001695100016B1334
:100A500000017B5100016A13000E6B1300017F51EE
:100A6000020D200EF324D96E010EF420DA6E6AC056
:100A7000DEFF6BC0DDFF00017F2B0001E3510001B1
:100A80007F5DD8A0D8D60001EB29D8A402D0000EF3
:100A900005D00001EB51D8A403D0010E0001F16F85
:100AA0000001F1510001D8A409D0F10E0001EB259D
:100AB0000001776F0001786BFF0E08D00F0E000168
:100AC000EB250001776F0001786B000E782377C06B
:100AD000EBF01200000120EE01F0DA51D926DB51D3
:100AE000DA22DF500001846F0DD1000E0001856F06
:100AF0000FD000018551020D200EF324D96E010E96
:100B0000F420DA6E000EDE6E000EDD6E0001852B25
:100B10000001E3510001855DD8B00BD1EAD7050E85
:100B200012EC0CF006D1060E0BEC04F002D1000E14
:100B30000001866F18D086C068F0EBC069F0010E26
:100B4000BBEC07F000018651020D200EF324D96E94
:100B5000010EF420DA6E000168C0DEFF000169C0FA
:100B6000DDFF0001862B0001E3510001865DD8A066
:100B7000E2D7010E0001EB250001606F0001616BFF
:100B8000000E6123E3C062F00001636B78EC10F0AB
:100B9000B4D0000E0001876F18D087C068F0EBC09A
:100BA00069F0010ECCEC08F000018751020D200E17
:100BB000F324D96E010EF420DA6E000168C0DEFF66
:100BC000000169C0DDFF0001872B0001E351000136
:100BD000875DD8A0E2D7010E0001EB250001606F10
:100BE0000001616B000E6123E3C062F00001636BE2
:100BF00078EC10F082D0000E0001886F19D088C008
:100C000068F0EBC069F0CBEC15F0A0EC06F0000149
:100C10008851020D200EF324D96E010EF420DA6EF5
:100C2000000168C0DEFF000169C0DDFF0001882B04
:100C30000001E3510001885DD8A0E1D7010E000159
:100C4000EB250001606F0001616B000E6123E3C0C2
:100C500062F00001636B78EC10F04FD0000E0001E1
:100C6000896F36D0000189510001EB250001666FC4
:100C70000001676B00016737000E0001696F68694A
:100C800055EC14F066C06CF067C06DF0E3C06EF018
:100C900000016F6B0EEC12F000016CC06DF00001F2
:100CA0006C6BFF0E00016C13000E00016D13000150
:100CB0008951020D200EF324D96E010EF420DA6E54
:100CC00000016CC0DEFF00016DC0DDFF0001892B5B
:100CD0000001E3510001895DD8A0C4D7010E0001D5
:100CE000EB250001606F0001616B000E6123E3C022
:100CF00062F00001636B78EC10F0000160510001BC
:100D0000EB6F17D000018451000AD8B4EED6010A67
:100D1000D8B405D7030AD8B406D7010AD8B46BD71C
:100D2000070AD8B404D7010AD8B433D7FA0AD8B41A
:100D300095D7200E0001826F010E0001836F120013
:100D40000001776F77C081F0550E00017E6F0F0EA6
:100D500000017C6F00016951030B0008050F0001C1
:100D6000806F0001815100016A6F6B6B00016A1F87
:100D70006B1F6A4B6B2B00016851E3C06CF00001E4
:100D80006D6B00016C27000E6D2300016A5100019C
:100D90006C250001606F00016B5100016D210001A5
:100DA000616FE3C062F00001636B78EC10F060C02B
:100DB0006EF061C06FF0000168510001706F716BDF
:100DC0000001701F711F704B712B00018151E3C036
:100DD00072F00001736B00017227000E7323000193
:100DE0007051000172250001606F00017151000116
:100DF00073210001616FE3C062F00001636B78EC66
:100E000010F00001605100016E5D00016F51800A19
:100E10000001746F00016151800A00017459D8A06B
:100E200027D00001685100016A6F6B6B00016A1FD7
:100E30006B1F6A4B6B2B00018151E3C06CF000010A
:100E40006D6B00016C27000E6D2300016A510001DB
:100E50006C250001606F00016B5100016D210001E4
:100E6000616FE3C062F00001636B78EC10F026D094
:100E70000001815100016A6F6B6B00016A1F6B1FDB
:100E80006A4B6B2B00016851E3C06CF000016D6B85
:100E900000016C27000E6D2300016A5100016C25D2
:100EA0000001606F00016B5100016D210001616F55
:100EB000E3C062F00001636B78EC10F060C078F082
:100EC00061C079F078C07FF00001805100017F5D42
:100ED000D8A006D0000E00017B6F000E7A6F1ED0E6
:100EE00000017F510F0DF3CF60F0F4CF61F080C0AF
:100EF00062F00001636BC1EC0EF00001601F0001A5
:100F0000611F0001604B612B0F0E00016025000185
:100F10007A6F000E0001612100017B6F7AC07DF0C5
:100F200000017C5100016A6F6B6B00016A3B6B3BF7
:100F3000F00E6B176A510F0B6B13F00E6A1700015E
:100F40007E5100016D6F6C6B00016A5100016C13E2
:100F500000016B5100016D1300017D5100016C1106
:100F60000001756F00016D510001766F75C068F06A
:100F700076C069F0120069C07FF0200E00017D6F1D
:100F80000F0E00017B6F00017F5100016A6F6B6BD8
:100F900000016A1F6B1F6A4B6B2B00016851E3C095
:100FA0006CF000016D6B00016C27000E6D230001D9
:100FB0006A5100016C250001606F00016B51000156
:100FC0006D210001616FE3C062F00001636B78EC9A
:100FD00010F060C06EF061C06FF000016851000158
:100FE000706F716B0001701F711F704B712B0001CE
:100FF0007F51E3C072F00001736B00017227000E95
:10100000732300017051000172250001606F00011F
:101010007151000173210001616FE3C062F00001B2
:10102000636B78EC10F00001605100016E5D00010F
:101030006F51800A0001746F00016151800A000144
:101040007459D8A027D00001685100016A6F6B6BFA
:1010500000016A1F6B1F6A4B6B2B00017F51E3C0BD
:101060006CF000016D6B00016C27000E6D23000118
:101070006A5100016C250001606F00016B51000195
:101080006D210001616FE3C062F00001636B78ECD9
:1010900010F026D000017F5100016A6F6B6B0001D8
:1010A0006A1F6B1F6A4B6B2B00016851E3C06CF029
:1010B00000016D6B00016C27000E6D2300016A5169
:1010C00000016C250001606F00016B5100016D2172
:1010D0000001616FE3C062F00001636B78EC10F017
:1010E00060C077F061C078F077C07EF0040E000138
:1010F0007E6506D0000E00017A6F000E796F1FD05A
:1011000000017E510F0DF3CF60F0F4CF61F0000EBF
:101110000001636F050E626FC1EC0EF00001601FED
:101120000001611F0001604B612B0F0E0001602563
:101130000001796F000E0001612100017A6F79C012
:101140007CF000017B5100016A6F6B6B00016A3B10
:101150006B3BF00E6B176A510F0B6B13F00E6A1797
:1011600000017D5100016D6F6C6B00016A5100013F
:101170006C1300016B5100016D1300017C510001E3
:101180006C110001756F00016D510001766F75C023
:1011900068F076C069F0120069C07FF0AA0E000105
:1011A0007D6F0F0E00017B6F00017F5100016A6FA0
:1011B0006B6B00016A1F6B1F6A4B6B2B0001685140
:1011C000E3C06CF000016D6B00016C27000E6D2315
:1011D00000016A5100016C250001606F00016B5134
:1011E00000016D210001616FE3C062F00001636BDB
:1011F00078EC10F060C06EF061C06FF000016851D3
:101200000001706F716B0001701F711F704B712BAB
:1012100000017F51E3C072F00001736B000172277F
:10122000000E732300017051000172250001606FF0
:1012300000017151000173210001616FE3C062F090
:101240000001636B78EC10F00001605100016E5DED
:1012500000016F51800A0001746F00016151800A22
:1012600000017459D8A027D00001685100016A6FAD
:101270006B6B00016A1F6B1F6A4B6B2B00017F5168
:10128000E3C06CF000016D6B00016C27000E6D2354
:1012900000016A5100016C250001606F00016B5173
:1012A00000016D210001616FE3C062F00001636B1A
:1012B00078EC10F026D000017F5100016A6F6B6B53
:1012C00000016A1F6B1F6A4B6B2B00016851E3C062
:1012D0006CF000016D6B00016C27000E6D230001A6
:1012E0006A5100016C250001606F00016B51000123
:1012F0006D210001616FE3C062F00001636B78EC67
:1013000010F060C077F061C078F077C07EF0040E16
:1013100000017E6506D0000E00017A6F000E796F25
:101320001FD000017E510F0DF3CF60F0F4CF61F0BC
:10133000000E0001636F050E626FC1EC0EF000013C
:10134000601F0001611F0001604B612B0F0E000147
:1013500060250001796F000E0001612100017A6FA4
:1013600079C07CF000017B5100016A6F6B6B00015A
:101370006A3B6B3BF00E6B176A510F0B6B13F00E51
:101380006A1700017D5100016D6F6C6B00016A519D
:1013900000016C1300016B5100016D1300017C51C1
:1013A00000016C110001756F00016D510001766F35
:1013B00075C068F076C069F012006CC074F06DC042
:1013C00075F0000120EE02F07451D9267551DA2231
:1013D000DF50D8B46FD0F2CF72F0F29E000120EE51
:1013E00001F07451D9267551DA22DF500001706F77
:1013F000010E000170250001666F0001676B000E91
:101400006723000E0001696F030E686F55EC14F03E
:101410000001665100016C25D96E00016751000181
:101420006D21DA6E6EC0E1FF6FC0E2FFDECFE6FF36
:10143000DECFE6FFDECFE6FF000120EE01F07451C3
:10144000D9267551DA22DF2A74C0D9FF75C0DAFFB8
:10145000000110EE01F07451E1267551E222DE50D8
:10146000E65CD8A019D0000120EE01F07451D92615
:101470007551DA2274C0E1FF75C0E2FFE750000148
:10148000606F000110EE01F07451E1267551E22207
:10149000E750BBEC13F0DF6E000120EE02F0745158
:1014A000D9267551DA22DF06DF500001736F72C052
:1014B000F2FF14D06EC0D9FF6FC0DAFF000EDF6EEE
:1014C000000120EE01F06E51D9266F51DA22000E94
:1014D000DE6E000EDD6E000E0001736F00017351B1
:1014E0001200010E0001B96F7BD0FE0E0001A76F44
:1014F000FF0E0001A86F0001B9510001A96FAA6B8E
:10150000D8900001A937AA370001A7510001A927E7
:101510000001A8510001AA230001A9510001A5253D
:10152000D96E0001AA510001A621DA6EDECFABF020
:10153000DDCFACF0F0C0ADF00001AE6BAF6BB06BC7
:10154000ADC0B0F00001AF6BAE6BAD6B0001AB5145
:101550000001AD110001B16F0001AC510001AE11ED
:101560000001B26F000E0001AF110001B36F000E59
:101570000001B0110001B46F000E0001B1110001B3
:10158000B56F000E0001B2110001B66F000E000130
:10159000B3110001B76FE00E0001B4110001B86F84
:1015A0000001B951040DC40EF324D96E010EF420CC
:1015B000DA6EB5C0DEFFB6C0DEFFB7C0DEFFB8C072
:1015C000DEFF0001B951040DC40EF3240001736F56
:1015D000010EF4200001746FDFEC01F00001B92B63
:1015E0000001B9510001E85DD8B07FD7C40E0001F9
:1015F000806F010E0001816F0001E851030F0001AF
:10160000826F8AEC14F012000001E0510001E11138
:10161000D8B41200E0C0D8F0E1C0D9F0D8C060F072
:10162000D9C061F026EC10F00001E26F0001E25138
:10163000020D000EF324D96E010EF420DA6EDE06E0
:10164000000EDD5ADE50DE10D8A443D0030E000198
:10165000D56FE2C0D6F00001D76BD5C07DF0D6C003
:101660007EF0D7C07FF00001E251020D210EF3247D
:10167000F66E030EF420F76E01D80CD00500FA6E5A
:101680000900F550FD6E0900F550FE6EF850FF6E32
:10169000FA5012000001E251020D010EF324F66E21
:1016A000030EF420F76E0900F5CF80F00900F5CFA6
:1016B00081F00001801D0001826F0001811D000189
:1016C000836F000182510001E01700018351000186
:1016D000E1170001E251020D010EF324F66E030E34
:1016E000F420F76E0900F5CF80F00900F5CF81F006
:1016F0000001801D0001826F0001811D0001836FC8
:10170000000182510001D817000183510001D9174F
:101710000001D8510001D911D8B412007FD7000EB2
:101720000001C46F6DD0020E0001BA19D8A473D0A5
:1017300063D0080E0001BA19D8A46DD042EC15F0A0
:1017400060C0CDF061C0CEF062C0CFF063C0D0F019
:10175000CDC060F0CEC061F0CFC062F0D0C063F009
:101760001FEC13F0020E49D0030E0001BA19D8A4E1
:1017700052D0FF0E0001BD6FFF0E0001BE6F0001D1
:10178000EA510001BF6FC06B0001BD510001BF27CE
:101790000001BE510001C0230001E72BE705000155
:1017A000C16FC26B0001BF510001C15D0001C25198
:1017B000800A0001C36F0001C051800A0001C359B3
:1017C000D8B01AD0040E0001DC27000EDD2342EC55
:1017D00015F060C0CDF061C0CEF062C0CFF063C044
:1017E000D0F0CDC060F0CEC061F0CFC062F0D0C00C
:1017F00063F01FEC13F00FD0010E0001E46F0BD06B
:101800000001E451000AD8B48ED7010AD8B491D7A8
:10181000030AD8B4A9D7C4C0BAF0C5C0BBF0C6C0CB
:10182000BCF01200870E0001686F040E0001666FA5
:101830000001EB390F0B0001676F000E0001696FAB
:1018400031D0000166510001606F616B0001603BA7
:10185000613BF00E611760510F0B6113F00E6017C2
:10186000000168510001636F626B0001605100016B
:10187000621300016151000163130001675100010F
:101880006213000E631300016951020D200EF32450
:10189000D96E010EF420DA6E62C0DEFF63C0DDFF98
:1018A0000001692B0001E3510001695DD8A0C9D78F
:1018B0000001EB29D8A40AD0000E0DD0010E0001C2
:1018C000D127000ED223D323D42308D00001EB511B
:1018D000D8A404D0010E0001F26FF0D70001D4515A
:1018E0000001D3110001D2111FE1040E0001D15DEE
:1018F000D8B012000001F2510001D8A409D0F10EB5
:101900000001EB250001646F0001656BFF0E08D03C
:101910000F0E0001EB250001646F0001656B000EE6
:10192000652364C0EBF0120012006BD0DEC060F0E3
:10193000DFC061F026EC10F00001CB6F0001CB514D
:10194000030D580EF324F66E030EF420F76E090013
:10195000F5CF6CF00A00F5CF6DF0ED0E00016E6F63
:10196000000E00016F6FDDEC09F00009D8A41FD054
:101970000001CB51020D010EF324F66E030EF4208C
:10198000F76E0900F5CFC7F00900F5CFC8F00001E8
:10199000C71D0001C96F0001C81D0001CA6F000109
:1019A000C9510001DE170001CA510001DF17EDC067
:1019B000BAF0EEC0BBF0EFC0BCF00001CB51040D9B
:1019C000020EF326000EF422500EF324F66E030EE0
:1019D000F420F76E01D80CD00500FA6E0900F5501E
:1019E000FD6E0900F550FE6EF850FF6EFA501200C1
:1019F000BA0ED96E000EDA6EDF50D8B402D0020EE5
:101A0000120076EC15F00009D8B406D00001DE51C2
:101A10000001DF11D8A48AD796EC13F0F2D781C069
:101A200062F082C063F09EEC15F0000E0001836F3F
:101A3000010E0001836501D066D000018351040DC1
:101A4000500EF324F66E030EF420F76E0900F550E5
:101A50000900F510D8B413D000018351040D020E13
:101A6000F326000EF422500EF324F66E030EF4203B
:101A7000F76E0900F5500900F510D8A402D0030E46
:101A8000120000018351030D580EF324F66E030E6D
:101A9000F420F76E0900F5CF60F00A00F5CF61F091
:101AA00000018351030D020EF326000EF422580E9E
:101AB000F324F66E030EF420F76E0800F5CF62F003
:101AC000FDEC13F000018351040D500EF324F66E6B
:101AD000030EF420F76E01D80ED00500FA6E09004F
:101AE000F550FD6E0900F550FE6EF850FF6EFA508D
:101AF000000183511200E806D8B402D0050E12008E
:101B00000001832B95D7000E12006CC075F06DC0DC
:101B100076F075C0D9FF76C0DAFF000110EE02F052
:101B20007551E1267651E222DE50E65CD8B05CD0F9
:101B3000F2CF74F0F29E75C0D9FF76C0DAFFDF50A5
:101B40000001716F000171510001626F636B000150
:101B500020EE02F07551D9267651DA22DF500001CD
:101B6000726F000120EE01F07551D9267651DA220C
:101B7000DF500001736F00017351000172250001F5
:101B8000606F0001616B0001613778EC10F0010EAD
:101B9000000160250001666F000E00016121000157
:101BA000676F000E0001696F030E686F55EC14F04B
:101BB0000001665100016C25D96E000167510001DA
:101BC0006D21DA6E6EC0DEFF6FC0DEFF70C0DEFF1B
:101BD000000120EE02F07551D9267651DA22DF2A73
:101BE00074C0F2FF010E1200000E12000600E9CFD1
:101BF0002AF0EACF2BF0E1CF2CF0E2CF2DF0D9CFB5
:101C00002EF0DACF2FF0F3CF30F0F4CF31F0F6CF63
:101C100032F0F7CF33F0F8CF34F0F5CF35F09EA4A3
:101C200015D0BF50266EBE503A6E26C03BF0200E37
:101C30003A243C6E4E0E3B203D6E3D50BF6E3CC084
:101C4000BEFF9E940001EC2B3E4A3F2A9EA603D085
:101C50009E9638EC14F0A4A403D0A494C8EC15F01C
:101C6000A4A003D0A490ACEC15F0A4AA03D0A49A2D
:101C7000D1EC15F0A4AE03D0A49ED2EC15F035C083
:101C8000F5FF34C0F8FF33C0F7FF32C0F6FF31C0B4
:101C9000F4FF30C0F3FF2FC0DAFF2EC0D9FF2DC0F4
:101CA000E2FF2CC0E1FF2BC0EAFF2AC0E9FF29C0F8
:101CB000FBFF28C0FAFF58921100000E0001BD6F13
:101CC0004BD0020E0001BA19D8A454D0B9EC14F0CC
:101CD000010E0001E66F050E0001C06FC0C07DF06F
:101CE000C1C07EF0C2C07FF026EC15F043D0050ED7
:101CF0000001BA19D8A43ED0CDEC14F0020E29D0C0
:101D0000030E0001BA19D8A403D0CDEC14F032D0E0
:101D1000060E0001BA19D8A403D0B9EC14F018D0FB
:101D2000070E0001BA19D8A425D0C1EC15F0030E96
:101D300010D0050E0001BA19D8A403D0CDEC14F0D0
:101D4000DDD7060E0001BA19D8A414D0B9EC14F0EE
:101D5000010E0001E66F0ED00001E651000AD8B472
:101D6000B0D7010AD8B4C3D7030AD8B4C9D7010A77
:101D7000D8B4DFD7BDC0BAF0BEC0BBF0BFC0BCF0A6
:101D80001200000E0001656F000163AF08D0000172
:101D9000626D631FD8B0632B010E0001656F0001F7
:101DA00061AF08D00001606D611FD8B0612B010EDA
:101DB0000001651B000E0001676F000E666F0001D9
:101DC000625100016311D8B42CD0010E0001646F80
:101DD00006D00001D890623763370001642B000100
:101DE00063AFF7D70001D8906637673700016251BB
:101DF0000001605D0001635100016159D8A00AD063
:101E0000000162510001605F000163510001615BEC
:101E1000000166810001D890633362330001642FB2
:101E2000E1D7000165510001D8B405D00001666D0D
:101E3000671FD8B0672B66C060F067C061F0120002
:101E40000DC016F00EC017F016C0D9FF17C0DAFF8C
:101E500010EE02F01650E1261750E222DE50E65C4A
:101E6000D8B046D0F2CF15F0F29E16C0D9FF17C0F9
:101E7000DAFFDF50126E1250036E046A20EE02F099
:101E80001650D9261750DA22DF50136E20EE01F0DB
:101E90001650D9261750DA22DF50146E145013242E
:101EA000016E026A023685EC12F0010E0124076E03
:101EB000000E0220086E000E0A6E030E096EE0ECA2
:101EC00014F007500D24D96E08500E20DA6E0FC0A2
:101ED000DEFF10C0DEFF11C0DEFF20EE02F0165064
:101EE000D9261750DA22DF2A15C0F2FF010E1200A0
:101EF000000E12000001636F63C0E8F060C0F0F0F4
:101F0000000EE8CFC4F1000EE8CFC5F1000EE8CF17
:101F1000C6F1000EE8CFC7F10001E8510001616F82
:101F2000626B0001D890613762370001D890613749
:101F30006237040E00016127000E6223C40E000107
:101F40006125D96E010E00016221DA6EFF0EDE6E90
:101F5000FF0EDE6EFF0EDE6EFF0EDD6E0001E8513D
:101F60000001616F626B0001D89061376237000138
:101F7000D89061376237080E00016127000E622396
:101F8000C40E00016125D96E010E00016221DA6ED6
:101F9000FF0EDE6EFF0EDE6EFF0EDE6EFF0EDD6EDE
:101FA00012006150D8A41200180E6218D8A41200B2
:101FB0006350D8A412006404D8A412006628D8A4E0
:101FC00027D035D05604D8B404D0000E226E070EA8
:101FD00003D0000E226E060E216E21C023F025D004
:101FE000FF0EB2EC15F0050E236E1FD04750B2EC79
:101FF00015F0010E4724016E026A000E0222000E47
:10200000046E060E036E85EC12F00150476E0DD083
:102010006650000AD8B4E7D7010AD8B4D3D7030A68
:10202000D8B4DED7010AD8B4E1D766CF56F06750EE
:10203000A3EC14F06850F3EC14F023C01EF024C09D
:102040001FF025C020F08CEC15F01200800E00016E
:10205000676F030E0001696F000169BF46D0000180
:102060006951040DF3CF62F060C063F061C064F0A9
:102070000001622B04D00001D89064336333000167
:10208000622FF9D7000163510F0B0001686F000147
:1020900068510001D8B426D0FF0E0001626FFF0E18
:1020A0000001636F000168510001646F656B0001FE
:1020B0006251000164270001635100016523410E54
:1020C00000016425F66E030E6521F76E0800F5CF5A
:1020D00066F000016951040DF3500001662500010E
:1020E000676F03D000016907B7D70001675112007D
:1020F000000E0001656F000161AF08D00001606D46
:10210000611FD8B0612B010E0001656F000163AF44
:1021100005D00001626D631FD8B0632B00016251CE
:1021200000016311D8B426D0010E0001646F06D0FF
:102130000001D890623763370001642B000163AF60
:10214000F7D7000162510001605D00016351000199
:102150006159D8A008D0000162510001605F000100
:1021600063510001615B0001D89063336233000169
:10217000642FE7D7000165510001D8B405D00001F4
:10218000606D611FD8B0612B60C060F061C061F00C
:1021900012000F0EC16E9C0E0001826F3F0E816F08
:1021A0000FEC0DF00001CC6F0001CC510001D8A460
:1021B00029D095EC0CF00001CC6F24D0640E000106
:1021C000606F030E0001616F70EC14F027D07F0E7A
:1021D0000001606F030E0001616F70EC14F01ED0FF
:1021E000970E0001606F030E0001616F70EC14F038
:1021F00015D0AE0E0001606F030E0001616F70EC30
:1022000014F00CD00001CC51010AD8B4D7D7020A7F
:10221000D8B4DDD7060AD8B4E3D7EBD7FFD7000E82
:10222000066E04AE06D0036C041ED8B0042A010E5C
:10223000066E02AE06D0016C021ED8B0022A010E54
:10224000061A000E086E000E076E03500410D8B474
:102250001CD0010E056E04D0D89003360436052A32
:1022600004AEFAD7D890073608360350015C045004
:102270000258D8A005D00350015E0450025A0780CE
:10228000D89004320332052EEDD70650D8B404D0CE
:10229000076C081ED8B0082A07C001F008C002F079
:1022A00012000001646F100E000164611200000151
:1022B0006451020D210EF324F66E030EF420F76E26
:1022C0000900F5500900F510D8B412000001605162
:1022D00000016111D8B4120000016451020D000E1A
:1022E000F324D96E010EF420DA6E60C0DEFF61C007
:1022F000DDFF00016451020D010EF324F66E030EA2
:10230000F420F76E0900F5CF62F00900F5CF63F015
:10231000000162510001E013000163510001E1136B
:1023200012007A0EF66E2B0EF76E000EF86E00EEAF
:10233000F1F010EE08F00900F5CFEEFFE550E150A6
:10234000FAE19E0EF66E2B0EF76E000EF86E090087
:10235000F5CF56F00900F5CF57F001EEC4F011EEBD
:102360003CF0EE6AE550E150FCE1E250FAE101EEAA
:1023700000F0C40EEE6AE806FDE100EECDF0240E9A
:10238000EE6AE806FDE100EE36F0200EEE6AE806A1
:10239000FDE158905892000EF86E0001C9EF10F060
:1023A000800E6F6E6EAEFED7200E736E718E7080D3
:1023B000709271907182718471867198718A728045
:1023C000708C6094609A609C000E0F01006F080E84
:1023D0000F01016F000E0F01026F010E0F01036F5D
:1023E000000E0F01186F000E0F01196F000E0F0184
:1023F0001A6F010E0F011B6F000E776E100E6F6EBD
:102400006EBEFED7A380A38AA38EA490A49AA49E96
:10241000A384A4940F014097609E1200000E000157
:10242000716F000E706F00016E5100016F11D8B412
:102430002CD0010E0001726F06D00001D8906E37CB
:102440006F370001722B00016FAFF7D70001D890F2
:102450007037713700016E5100016C5D00016F51E2
:1024600000016D59D8A00AD000016E5100016C5FC7
:1024700000016F5100016D5B000170810001D89077
:102480006F336E330001722FE1D770C06CF071C0F2
:102490006DF0120000017C6F020E00017C6133D0F0
:1024A00000017C51030D580EF324F66E030EF42048
:1024B000F76E0900F5CF6CF00A00F5CF6DF077C02C
:1024C0006EF078C06FF079C070F085EC0DF0E80622
:1024D000D8A419D000017C51020D010EF324F66E30
:1024E000030EF420F76E0900F5CF7AF00900F5CF5E
:1024F0007BF000017A510001DE1300017B510001E5
:10250000DF13010E1200000E1200000E066E02AE66
:1025100006D0016C021ED8B0022A010E066E04AE6F
:1025200004D0036C041ED8B0042A03500410D8B49D
:1025300018D0010E056E04D0D89003360436052A53
:1025400004AEFAD70350015C04500258D8A004D05E
:102550000350015E0450025AD89004320332052E13
:10256000F1D70650D8B404D0016C021ED8B0022AAC
:1025700001C001F002C002F012001D6E020E1D60CB
:102580002FD01D50030D580EF324F66E030EF420C9
:10259000F76E0900F5CF0DF00A00F5CF0EF018C068
:1025A0000FF019C010F01AC011F020EC0FF0E8067F
:1025B000D8A416D01D50020D010EF324F66E030EA2
:1025C000F420F76E0900F5CF1BF00900F5CF1CF0E1
:1025D0001B500001DE131C500001DF13010E12001E
:1025E000000E12000001806F80C0E9F0F6C060F0BC
:1025F0004C0E7AEC0FF0F40E0001606F000E00013B
:10260000616F4C0E0001626F97EC15F0B8EC15F09D
:10261000000E0001E66F020E00017D6F7DC077F0B5
:102620007EC078F07FC079F00001E9514AEC12F0E9
:10263000E806D8A402D0010E1200000E1200040E0B
:102640000001F319D8A408D060C036F061C037F09B
:1026500062C038F063C039F00001F3070001F351A4
:10266000080DF35060C064F061C065F062C066F0B0
:1026700063C067F00001E82A05D0D890673366335D
:1026800065336433E82EF9D700016451C96E120036
:102690000001646F0F0E0001646501D0120000019B
:1026A0006451020D010EF324F66E030EF420F76E52
:1026B0000900F5CF60F00900F5CF61F00001601D61
:1026C0000001626F0001611D0001636F0001625132
:1026D0000001E017000163510001E1171200040E30
:1026E0000001F319D8A408D001C036F002C037F0B9
:1026F00003C038F004C039F00001F3070001F351C2
:10270000080DF35001C005F002C006F003C007F049
:1027100004C008F0E82A05D0D89008320732063203
:102720000532E82EF9D70550C96E1200000E0001DF
:10273000606F000160510001D8A4120000016051D7
:10274000020D5E0EF324F66E030EF420F76E01D830
:102750000CD00500FA6E0900F550FD6E0900F55029
:10276000FE6EF850FF6EFA501200E806D8B4120060
:102770000001602BDED70001616F080E0001626F5F
:10278000000E0001636FD8900001613500016335D0
:102790000001636F0001D8906137000160510001B2
:1027A000635DD8A004D0000160510001635F0001A7
:1027B000622FE9D7000163511200000E0001626F21
:1027C0000FD000016251020D200EF324D96E010ECC
:1027D000F420DA6E000EDE6E000EDD6E0001622B5C
:1027E0000001E3510001625DD8A0EBD7200E00018B
:1027F000606F010E0001616F120060C063F061C084
:1028000064F00001620563C0D9FF64C0DAFFDF6EC7
:10281000000120EE01F06351D9266451DA22000E46
:10282000DF6E000120EE02F06351D9266451DA22F6
:10283000000EDF6E12000001806F80C0E5F0C5EC75
:1028400015F0000E0001E46F020E00017D6F7DC0E7
:1028500077F07EC078F07FC079F00001E5514AEC56
:1028600012F0E806D8A402D0010E1200000E1200E9
:102870000001F351D8A40ED0040E0001F36F030E33
:10288000216E21C01EF022C01FF023C020F081EC79
:1028900015F0120036C001F037C002F038C003F066
:1028A00039C004F06FEC13F0120000016651000112
:1028B0006803F3CF6AF0F4CF6BF0000166510001BA
:1028C0006903F35000016B270001675100016803A1
:1028D000F35000016B276AC066F06BC067F012000E
:1028E000620E0001626F000E0001636F04D00001F0
:1028F0006451D0EC15F060C0F6FF61C0F7FF000135
:10290000604B612B0800F5CF64F000016451D8B42E
:102910001200EDD70001E405D8A41200000E00015A
:10292000E76F80C0DCF081C0DDF082C0EAF0080E05
:102930000001836F83C07DF084C07EF085C07FF08E
:1029400034EC15F01200096E09505702F3CF01F074
:10295000F4CF02F0000E046E03680FEC11F001C01A
:102960000AF002C00BF00AC0F6F00A50A5EC15F010
:102970001200000E0001F46F000E48EC13F0DDECC5
:1029800013F060C0A5F061C0A6F071EC0AF04FEC46
:1029900015F0000E0001F46F1200F8C060F00001A5
:1029A000616B000E51EC11F06AEC05F082C0A5F0ED
:1029B00083C0A6F071EC0AF0010E0001F46F120062
:1029C00007500902F3CF0BF0F4CF0CF007500A02C6
:1029D000F3500C2608500902F3500C260BC007F0E8
:1029E0000CC008F012000B6E0B504C0DF3CF01F031
:1029F000F4CF02F0000E046E03680FEC11F001C07A
:102A000009F002C00AF009C048F01200000E826E00
:102A1000000E8B6E0F0EC16E000E946E9D86000E22
:102A2000C66E400EC76EC868300EC66E1200040E29
:102A30009D6E400EF26E0A0EBD6E010EBE6E000E51
:102A4000BF6E210ECD6EF28CF28E120058B28CEF5A
:102A500015F07DC077F07EC078F07FC079F000017E
:102A6000E9514AEC12F0120058B281EF15F07DC026
:102A700077F07EC078F07FC079F00001E5514AEC34
:102A800012F01200DCC0D9FFDDC0DAFFDECF60F04B
:102A9000DECF61F0DECF62F0DECF63F01200000E19
:102AA0000001EB6F000E0001D16F000ED26F000E1F
:102AB000D36F000ED46F1200000E816E000E8A6E6E
:102AC00093949386000E806E000E896E000E926EB7
:102AD0001200000E0001EB6F000E0001D16F000E1E
:102AE000D26F000ED36F000ED46F120004D004EC2E
:102AF0000BF00001EC070001EC51D8A4F8D7010E4F
:102B000012001EC018F01FC019F020C01AF00001FA
:102B1000E551BDEC12F012001EC018F01FC019F0F4
:102B200020C01AF00001E951BDEC12F0120060C0A3
:102B3000DAF061C0DBF062C0E3F0120062C060F066
:102B400063C061F017EC15F01200016E200E0160F9
:102B5000120001C0F0F0120060AE1200D1EC0FF0D4
:102B6000609E1200016E01C0F5F069EC15F01200D4
:102B70005CEC15F0D0EC11F0120001010300FF1F16
:102B80000001000E48EC13F0120006EC15F01200E4
:102B90000F014097120048501200000E1200FF1F54
:062BA000120012001200F9
:020000040020DA
:08000000FFFFFFFFFFFFFFFF00
:020000040030CA
:0E000000FF02191EFF8085FF0FC00FE00F40AA
:00000001FF
