:040000000BEF00F012
:100008003E82FACF26F0FBCF27F0A7ED06F0EAEF05
:0200180007F0EF
:1003000000010002000400080010002000400080EE
:10031000000001000200040008001000200040005E
:100320008058170A170000000000000000000000BD
:1003300000000000000000000000000000000000BD
:10034000000001010202020203030303030303038B
:100350004013D60B36154807A00004AC0004DC1788
:1003600058170A174661696C6564206F6E206174C6
:1003700074656D707420746F20506F73740A00463A
:1003800061696C6564206F6E204E554C4C20706F17
:10039000696E7465720A004661696C656420496E15
:1003A000697469616C697A6174696F6E0A004F746F
:1003B000686572204661696C7572650A000000010B
:1003C00020EE01F08D51D9268E51DA22DF50000146
:1003D000CE6F000120EE02F08D51D9268E51DA2227
:1003E000DF500001CD6F76D0000E0001CF6F3FD0FF
:1003F00000019E510001CF19D8A402D0010E01D0F6
:10040000000E0001BB6FBC6BBD6BBE6B84C0BFF048
:1004100085C0C0F086C0C1F087C0C2F0BDEC08F056
:10042000000E0001BB110001C96F000E0001BC11DC
:100430000001CA6F000E0001BD110001CB6FFF0E5D
:100440000001BE110001CC6F0001CF51040D000E60
:10045000F324D96E020EF420DA6EC9C0DEFFCAC0E2
:10046000DEFFCBC0DEFFCCC0DEFF0001CF2B0001E2
:1004700096510001CF5DD8A0BBD796C0BBF000015C
:100480009E2B9E053AEC0AF00009D8A437D084C010
:10049000BBF085C0BCF086C0BDF087C0BEF00D0EBD
:1004A0000001BF6F000EC06F000EC16F000EC26F63
:1004B0009DEC07F0BBC084F0BCC085F0BDC086F0E9
:1004C000BEC087F0010E00018427000E852386231D
:1004D000872314D00001CE51000AD8B40FD0010AEE
:1004E000D8B40CD0030AD8B409D0010AD8B406D0C5
:1004F000070AD8B403D0FB0AD8B476D7000E00019F
:10050000C76F020E0001C86F1200C7C0CFF0C8C08D
:10051000D0F0000120EE02F0CF51D926D051DA22DE
:10052000DF50D8B46FD0F2CFCDF0F29E000120EEB4
:1005300001F0CF51D926D051DA22DF500001CB6F24
:10054000010E0001CB250001C16F0001C26B000E3E
:10055000C223000E0001C46F030EC36FB8EC0AF093
:100560000001C1510001C725D96E0001C25100012F
:10057000C821DA6EC9C0E1FFCAC0E2FFDECFE6FFE4
:10058000DECFE6FFDECFE6FF000120EE01F0CF5127
:10059000D926D051DA22DF2ACFC0D9FFD0C0DAFF66
:1005A000000110EE01F0CF51E126D051E222DE50E1
:1005B000E65CD8A019D0000120EE01F0CF51D92679
:1005C000D051DA22CFC0E1FFD0C0E2FFE7500001F6
:1005D000BB6F000110EE01F0CF51E126D051E222B5
:1005E000E7503AEC0AF0DF6E000120EE02F0CF5146
:1005F000D926D051DA22DF06DF500001CE6FCDC000
:10060000F2FF14D0C9C0D9FFCAC0DAFF000EDF6EF6
:10061000000120EE01F0C951D926CA51DA22000E9C
:10062000DE6E000EDD6E000E0001CE6F0001CE51B9
:1006300012000001935100019411D8B4120093C02C
:100640008BF094C08CF08BC0BBF08CC0BCF0FAEC8B
:1006500006F00001956F00019551020D600EF32424
:10066000D96E000EF420DA6EDE06000EDD5ADE5082
:10067000DE10D8A443D0030E0001886F95C089F026
:1006800000018A6B88C0D8F089C0D9F08AC0DAF03E
:1006900000019551020D210EF324F66E030EF42095
:1006A000F76E01D80CD00500FA6E0900F550FD6E0A
:1006B0000900F550FE6EF850FF6EFA50120000016E
:1006C0009551020D010EF324F66E030EF420F76E21
:1006D0000900F5CFDBF00900F5CFDCF00001DB1DF0
:1006E0000001DD6F0001DC1D0001DE6F0001DD5146
:1006F000000193170001DE5100019417000195518C
:10070000020D010EF324F66E030EF420F76E0900BD
:10071000F5CFDBF00900F5CFDCF00001DB1D0001B7
:10072000DD6F0001DC1D0001DE6F0001DD51000105
:100730008B170001DE5100018C1700018B51000165
:100740008C11D8B412007FD7000E0001E76F5FD084
:10075000020E0001E319D8A46ED055D0090E000195
:10076000E319D8A468D046EC0BF0BBC080F0BCC045
:1007700081F0BDC082F0BEC083F000018051DBEC8F
:100780000BF0020E41D0030E0001E319D8A453D0A0
:1007900000018151DBEC0BF0030E36D0030E00019B
:1007A000E319D8A448D000018251DBEC0BF0040E11
:1007B0002BD0030E0001E319D8A43DD000018351D2
:1007C000DBEC0BF0050E20D0030E0001E319D8A4DA
:1007D00032D000019A2B9A050001E66F00019D516D
:1007E0000001E65DD8B00FD046EC0BF0BBC080F046
:1007F000BCC081F0BDC082F0BEC083F0000180515A
:10080000DBEC0BF0BED7010E0001976F14D0000196
:100810009751000AD8B49CD7010AD8B49FD7030ACD
:10082000D8B4B1D7010AD8B4B9D7070AD8B4C1D758
:10083000010AD8B4C9D7E7C0E3F0E8C0E4F0E9C0E2
:10084000E5F012006BD091C0BBF092C0BCF0FAECA6
:1008500006F00001F06F0001F051030D580EF32473
:10086000F66E030EF420F76E0900F5CFC7F00A000C
:10087000F5CFC8F0B80E0001C96F000E0001CA6FB5
:1008800085EC02F00009D8A41FD00001F051020D40
:10089000010EF324F66E030EF420F76E0900F5CF77
:1008A000ECF00900F5CFEDF00001EC1D0001EE6F5A
:1008B0000001ED1D0001EF6F0001EE5100019117E5
:1008C0000001EF5100019217B8C0E3F0B9C0E4F0A5
:1008D000BAC0E5F00001F051040D020EF326000E3F
:1008E000F422500EF324F66E030EF420F76E01D8B6
:1008F0000CD00500FA6E0900F550FD6E0900F550A8
:10090000FE6EF850FF6EFA501200E30ED96E000E24
:10091000DA6EDF50D8B402D0020E1200A1EC0BF058
:100920000009D8B406D00001915100019211D8A459
:100930008AD715EC0AF0F2D7DCC0BDF0DDC0BEF0FE
:10094000D4EC0BF0000E0001DE6F010E0001DE653D
:1009500001D066D00001DE51040D500EF324F66E76
:10096000030EF420F76E0900F5500900F510D8B415
:1009700013D00001DE51040D020EF326000EF42206
:10098000500EF324F66E030EF420F76E0900F550B6
:100990000900F510D8A402D0030E12000001DE51A8
:1009A000030D580EF324F66E030EF420F76E0900C3
:1009B000F5CFBBF00A00F5CFBCF00001DE51030D0E
:1009C000020EF326000EF422580EF324F66E030EE8
:1009D000F420F76E0800F5CFBDF07DEC0AF00001C1
:1009E000DE51040D500EF324F66E030EF420F76E64
:1009F00001D80ED00500FA6E0900F550FD6E090011
:100A0000F550FE6EF850FF6EFA500001DE511200F4
:100A1000E806D8B402D0050E12000001DE2B95D7EF
:100A2000000E1200C7C0D0F0C8C0D1F0D0C0D9FFAE
:100A3000D1C0DAFF000110EE02F0D051E126D15111
:100A4000E222DE50E65CD8B05CD0F2CFCFF0F29E6E
:100A5000D0C0D9FFD1C0DAFFDF500001CC6F000158
:100A6000CC510001BD6FBE6B000120EE02F0D051F1
:100A7000D926D151DA22DF500001CD6F000120EEDE
:100A800001F0D051D926D151DA22DF500001CE6FCA
:100A90000001CE510001CD250001BB6F0001BC6BF0
:100AA0000001BC374CEC07F0010E0001BB25000132
:100AB000C16F000E0001BC210001C26F000E0001D9
:100AC000C46F030EC36FB8EC0AF00001C1510001FE
:100AD000C725D96E0001C2510001C821DA6EC9C014
:100AE000DEFFCAC0DEFFCBC0DEFF000120EE02F059
:100AF000D051D926D151DA22DF2ACFC0F2FF010E20
:100B00001200000E12000001BD6FBDC09BF001017C
:100B1000806981698269836900019B510001BB6F13
:100B2000BC6B0001D890BB37BC370001D890BB37F5
:100B3000BC37040E0001BB27000EBC23800E000151
:100B4000BB25D96E010E0001BC21DA6EDE6ADE6AB9
:100B5000DE6ADD6A01010069016902690369000159
:100B60009B510001BB6FBC6B0001D890BB37BC37F9
:100B70000001D890BB37BC37040E0001BB27000E24
:100B8000BC23000E0001BB25D96E010E0001BC2163
:100B9000DA6EDE6ADE6ADE6ADD6A010E0001BE6FB1
:100BA00013D00001BE51040D000EF324D96E010EC6
:100BB000F420DA6E000EDE6E000EDE6E000EDE6ECB
:100BC000E00EDD6E0001BE2B0001BE5100019B5DF9
:100BD000D8A01200E6D7000E0001E66F49D0020E41
:100BE0000001E319D8A452D0010E0001996F050E3F
:100BF0000001E96FE9C0D8F0EAC0D9F0EBC0DAF043
:100C0000ACEC0BF043D0050E0001E319D8A43ED0A4
:100C100020EC0BF0020E29D0030E0001E319D8A43A
:100C200003D020EC0BF032D0060E0001E319D8A45B
:100C300003D069EC0BF018D0070E0001E319D8A41B
:100C400025D0E4EC0BF0030E10D0080E0001E319E0
:100C5000D8A403D020EC0BF0DDD7060E0001E31979
:100C6000D8A414D069EC0BF0010E0001996F0ED0DE
:100C700000019951000AD8B4B2D7010AD8B4C3D739
:100C8000030AD8B4C9D7010AD8B4DFD7E6C0E3F065
:100C9000E7C0E4F0E8C0E5F012000DC016F00EC0A9
:100CA00017F016C0D9FF17C0DAFF10EE02F0165089
:100CB000E1261750E222DE50E65CD8B046D0F2CFF3
:100CC00015F0F29E16C0D9FF17C0DAFFDF50126E82
:100CD0001250036E046A20EE02F01650D926175007
:100CE000DA22DF50136E20EE01F01650D92617508D
:100CF000DA22DF50146E14501324016E026A023699
:100D000033EC09F0010E0124076E000E0220086E7C
:100D1000000E0A6E030E096E33EC0BF007500D2423
:100D2000D96E08500E20DA6E0FC0DEFF10C0DEFF55
:100D300011C0DEFF20EE02F01650D9261750DA223D
:100D4000DF2A15C0F2FF010E1200000E120006008D
:100D5000E9CF28F0EACF29F0E1CF2AF0E2CF2BF05B
:100D6000D9CF2CF0DACF2DF0F3CF2EF0F4CF2FF037
:100D7000F6CF30F0F7CF31F0F8CF32F0F5CF33F0D7
:100D80009EA415D0BF50246EBE50346E24C035F0E2
:100D9000200E3424366E4E0E3520376E3750BF6E1F
:100DA00036C0BEFF9E9400019F2B384A392A9EA66A
:100DB00003D09E96B7EC0BF033C0F5FF32C0F8FFBE
:100DC00031C0F7FF30C0F6FF2FC0F4FF2EC0F3FF95
:100DD0002DC0DAFF2CC0D9FF2BC0E2FF2AC0E1FFF3
:100DE00029C0EAFF28C0E9FF27C0FBFF26C0FAFFA1
:100DF0003E921100800E0001C26F030E0001C46F0D
:100E00000001C4BF46D00001C451040DF3CFBDF0B2
:100E1000BBC0BEF0BCC0BFF00001BD2B04D00001C0
:100E2000D890BF33BE330001BD2FF9D70001BE51AA
:100E30000F0B0001C36F0001C3510001D8B426D0CD
:100E4000FF0E0001BD6FFF0E0001BE6F0001C35118
:100E50000001BF6FC06B0001BD510001BF27000141
:100E6000BE510001C023410E0001BF25F66E030EE6
:100E7000C021F76E0800F5CFC1F00001C451040D88
:100E8000F3500001C1250001C26F03D00001C40767
:100E9000B7D70001C2511200000E0001C06F00015F
:100EA000BCAF08D00001BB6DBC1FD8B0BC2B010E7D
:100EB0000001C06F0001BEAF05D00001BD6DBE1FB7
:100EC000D8B0BE2B0001BD510001BE11D8B426D050
:100ED000010E0001BF6F06D00001D890BD37BE37AC
:100EE0000001BF2B0001BEAFF7D70001BD510001CB
:100EF000BB5D0001BE510001BC59D8A008D0000163
:100F0000BD510001BB5F0001BE510001BC5B00018F
:100F1000D890BE33BD330001BF2FE7D70001C051C9
:100F20000001D8B405D00001BB6DBC1FD8B0BC2BEC
:100F3000BBC0BBF0BCC0BCF012000001BF5100013F
:100F4000C0110001C1110001C211D8B43AD0010E84
:100F50000001C36F08D00001D890BF37C037C13738
:100F6000C2370001C32B0001C2AFF5D70001BF514A
:100F70000001BB5D0001C0510001BC590001C1511D
:100F80000001BD590001C2510001BE59D8A010D0C6
:100F90000001BF510001BB5F0001C0510001BC5BFB
:100FA0000001C1510001BD5B0001C2510001BE5BE7
:100FB0000001D890C233C133C033BF330001C32F07
:100FC000D5D7BBC0BBF0BCC0BCF0BDC0BDF0BEC07F
:100FD000BEF01200A60EF66E150EF76E000EF86E3D
:100FE00002EE78F010EE34F00900F5CFEEFFE55098
:100FF000E150FAE1D60EF66E170EF76E000EF86E9F
:1010000000EEF2F010EE05F00900F5CFEEFFE5502E
:10101000E150FAE1E20EF66E170EF76E000EF86E72
:101020000900F5CF3DF002EE00F0780EEE6AE8061A
:10103000FDE101EE00F011EE00F0EE6AE550E15046
:10104000FCE1E250FAE100EE60F05B0EEE6AE806C9
:10105000FDE100EE34F0090EEE6AE806FDE13E9097
:101060003E92000EF86E000136EF08F0D388D38A66
:10107000D38C9C0E0001DD6F3F0EDC6F9CEC04F006
:101080000001F16F0001F1510001D8A429D022EC38
:1010900004F00001F16F24D0640E0001BB6F030E59
:1010A0000001BC6FEDEC0AF027D07F0E0001BB6F92
:1010B000030E0001BC6FEDEC0AF01ED0970E00018C
:1010C000BB6F030E0001BC6FEDEC0AF015D0AE0E45
:1010D0000001BB6F030E0001BC6FEDEC0AF00CD0F9
:1010E0000001F151010AD8B4D7D7020AD8B4DDD72C
:1010F000060AD8B4E3D7EBD7FFD70001BF6F100EB5
:101100000001BF6112000001BF51020D210EF32446
:10111000F66E030EF420F76E0900F5500900F51085
:10112000D8B412000001BB510001BC11D8B41200A8
:101130000001BF51020D600EF324D96E000EF420A1
:10114000DA6EBBC0DEFFBCC0DDFF0001BF51020D87
:10115000010EF324F66E030EF420F76E0900F5CFAE
:10116000BDF00900F5CFBEF00001BD5100019313A1
:101170000001BE51000194131200000E0001C36F64
:10118000000EC46F000EC56F000EC66F0001BBA13C
:1011900010D00001BF510001C3270001C051000160
:1011A000C4230001C1510001C5230001C251000147
:1011B000C6230001D890BF37C037C137C2370001FE
:1011C000D890BE33BD33BC33BB330001BB510001EB
:1011D000BC110001BD110001BE11D8A4D7D7C3C0F6
:1011E000BBF0C4C0BCF0C5C0BDF0C6C0BEF01200AC
:1011F0000001D76F020E0001D76133D00001D75133
:10120000030D580EF324F66E030EF420F76E09005A
:10121000F5CFC7F00A00F5CFC8F0D2C0C9F0D3C0EF
:10122000CAF0D4C0CBF012EC05F0E806D8A419D06F
:101230000001D751020D010EF324F66E030EF420C7
:10124000F76E0900F5CFD5F00900F5CFD6F0000113
:10125000D551000191130001D65100019213010EE6
:101260001200000E1200000E066E02AE06D0016CD7
:10127000021ED8B0022A010E066E04AE04D0036C22
:10128000041ED8B0042A03500410D8B418D0010E9C
:10129000056E04D0D89003360436052A04AEFAD77A
:1012A0000350015C04500258D8A004D00350015EE2
:1012B0000450025AD89004320332052EF1D706505A
:1012C000D8B404D0016C021ED8B0022A01C001F0CB
:1012D00002C002F012001D6E020E1D602FD01D50C4
:1012E000030D580EF324F66E030EF420F76E09007A
:1012F000F5CF0DF00A00F5CF0EF018C00FF019C0B1
:1013000010F01AC011F04DEC06F0E806D8A416D083
:101310001D50020D010EF324F66E030EF420F76E3D
:101320000900F5CF1BF00900F5CF1CF01B500001A0
:1013300091131C5000019213010E1200000E1200B6
:101340000001DB6FDBC09CF00B0E83EC05F0F20EAE
:101350000001BB6F000E0001BC6F0B0E0001BD6FE2
:10136000CDEC0BF0000E0001996F020E0001D86F5A
:10137000D8C0D2F0D9C0D3F0DAC0D4F000019C516B
:10138000F8EC08F0E806D8A402D0010E1200000E16
:1013900012000001BF6F0F0E0001BF6501D01200E7
:1013A0000001BF51020D010EF324F66E030EF4206E
:1013B000F76E0900F5CFBBF00900F5CFBCF00001D6
:1013C000BB1D0001BD6F0001BC1D0001BE6F00010F
:1013D000BD51000193170001BE5100019417120086
:1013E000BDC0C3F0BEC0C4F0BBC0C1F0BCC0C2F041
:1013F00010D0C3C0D9FFC4C0DAFFC1C0E1FFC2C072
:10140000E2FFDFCFE7FF0001C34BC42B0001C14B5C
:10141000C22B0001BF07D8A0C0070001BF29E9E126
:101420000001C029D8B41200E4D7000E0001BB6F40
:101430000001BB510001D8A412000001BB51020DF4
:101440005E0EF324F66E030EF420F76E01D80CD076
:101450000500FA6E0900F550FD6E0900F550FE6EAC
:10146000F850FF6EFA501200E806D8B412000001DE
:10147000BB2BDED70001BC6F080E0001BD6F000E54
:101480000001BE6FD8900001BC350001BE350001DF
:10149000BE6F0001D890BC370001BB510001BE5D9A
:1014A000D8A004D00001BB510001BE5F0001BD2FD8
:1014B000E9D70001BE511200900E0001BB6F010E72
:1014C0000001BC6FE1C0BDF0E2C0BEF000019B5165
:1014D000040DF3CFBFF0F4CFC0F0F0EC09F0800EB4
:1014E0000001DB6F010E0001DC6F00019B51020F58
:1014F0000001DD6F07EC0BF01200BBC0BEF0BCC0FA
:10150000BFF00001BD05BEC0D9FFBFC0DAFFDF6E6E
:10151000000120EE01F0BE51D926BF51DA22000EA3
:10152000DF6E000120EE02F0BE51D926BF51DA2253
:10153000000EDF6E12000001DB6FDBC098F0E8ECFC
:101540000BF0000E0001976F020E0001D86FD8C09B
:10155000D2F0D9C0D3F0DAC0D4F000019851F8EC41
:1015600008F0E806D8A402D0010E1200000E120006
:101570000001C1510001C303F3CFC5F0F4CFC6F0A1
:101580000001C1510001C403F3500001C62700014E
:10159000C2510001C303F3500001C627C5C0C1F00A
:1015A000C6C0C2F012000000FF0000A5FF0000FF4F
:1015B000FF000080800000FF000000800000FFFFAF
:1015C000000080800000FF00000080000000FF009D
:1015D000FF008000800000008000BD0E0001BD6F94
:1015E000000E0001BE6F04D00001BF51F0EC0BF003
:1015F000BBC0F6FFBCC0F7FF0001BB4BBC2B080013
:10160000F5CFBFF00001BF51D8B41200EDD70001F3
:101610009705D8A41200000E00019A6FDBC08FF06E
:10162000DCC090F0DDC09DF0090E0001DE6FDEC071
:10163000D8F0DFC0D9F0E0C0DAF085EC0BF0120092
:10164000F6C0BBF00001BC6B000E7DEC08F0DFECD7
:1016500001F0C7C0E1F0C8C0E2F05CEC0AF0010E96
:101660000001F26F120007500902F3CF0BF0F4CF24
:101670000CF007500A02F3500C2608500902F350F0
:101680000C260BC007F00CC008F012008FC0D9FF69
:1016900090C0DAFF0001040E8F27000E9023DECFEA
:1016A000BBF0DECFBCF0DECFBDF0DECFBEF012006F
:1016B000000E826E000E8B6E0F0EC16E000E946EC9
:1016C0009D86000EC66E400EC76EC868320EC66E8E
:1016D0001200000E0001F26F000EC9EC09F077EC69
:1016E0000BF0E0EC0BF0000E0001F26F1200000EA8
:1016F0000001DB6F010E0001DC6F00019B51020F46
:101700000001DD6F07EC0BF012003EB2C2EF0BF0F0
:10171000D8C0D2F0D9C0D3F0DAC0D4F000019851CB
:10172000F8EC08F01200040E9D6E400EF26E0A0EE8
:10173000BD6E010EBE6E000EBF6E210ECD6EF28E1E
:10174000120004D019EC03F000019F0700019F5123
:10175000D8A4F8D7010E1200D8C0D2F0D9C0D3F067
:10176000DAC0D4F000019C51F8EC08F01200030E2E
:10177000216E21C01EF022C01FF023C020F0C2EC59
:101780000BF012001EC018F01FC019F020C01AF094
:10179000000198516BEC09F01200BBC08DF0BCC089
:1017A0008EF0BDC096F01200BDC0BBF0BEC0BCF054
:1017B00093EC0BF012000001BB6FBBC0C9FF12001D
:1017C000000E00019E6F1200000EC9EC09F012001D
:0B17D00058EC0BF0120000FF1F00643B
:0717DC00000E120012001FB5
:020000040020DA
:08000000FFFFFFFFFFFFFFFF00
:020000040030CA
:0E000000FF08191EFF8085FF0FC00FE00F40A4
:00000001FF
