:040000000BEF00F012
:100008005082FACF26F0FBCF27F0CBED0AF049EF6C
:020018000CF0EA
:1003000000010002000400080010002000400080EE
:10031000000001000200040008001000200040005E
:10032000802E1FC61E00000000000000000000001C
:1003300000000000000000000000000000000000BD
:10034000000001010202020203030303030303038B
:10035000D21AAE12201DE60EE90004430004921FDB
:100360002E1FC61E4661696C6564206F6E20617425
:1003700074656D707420746F20506F73740A00463A
:1003800061696C6564206F6E204E554C4C20706F17
:10039000696E7465720A004661696C656420496E15
:1003A000697469616C697A6174696F6E0A004F746F
:1003B000686572204661696C7572650A000073C0D9
:1003C000D9FF74C0DAFFDECF75F0DECF76F0DECF76
:1003D00077F0DECF78F076C075F077C076F078C031
:1003E00077F00001786B75C08DF076C08EF073C029
:1003F000D9FF74C0DAFFDECF75F0DDCF76F0F00EF6
:100400000001751500019F6F0001A06B9FC075F082
:10041000A0C076F0040E0001776F0001D89076330B
:1004200075330001772FF9D70001755100019F271F
:10043000000176510001A02373C0D9FF74C0DAFF18
:10044000DECF75F0DDCF76F00F0E000175150001DF
:10045000A36F0001A46BA3C075F0A4C076F00001E7
:10046000753B763BF00E761775510F0B7613F00E39
:100470007517000175510001A32700017651000195
:10048000A42300019F510001A011D8A40DD0A3C046
:1004900097F0A4C098F097C095F098C096F095C0DA
:1004A00093F096C094F029D18DC06CF08EC06DF0A1
:1004B000000E00016F6F2B0E6E6F85EC0CF06CC0A0
:1004C0008FF06DC090F08FC066F090C067F0000EA6
:1004D0000001696F2B0E686FCAEC0EF00001661FF9
:1004E0000001671F0001664B672B00018D51000161
:1004F000662500019D6F00018E51000167210001FA
:100500009E6F9DC066F09EC067F0000E0001696F8F
:10051000060E686FCAEC0EF066C091F067C092F0EC
:100520009FC075F0A0C076F00001751F761F754B57
:10053000762BFF0E000175250001666F000E00018D
:1005400076210001676FA3C068F0A4C069F0CAEC0F
:100550000EF0000167510001A16FA26B9FC066F011
:10056000A0C067F091C068F092C069F0CAEC0EF0CC
:10057000000167C066F00001676B0001661F0001A3
:10058000671F0001664B672BFF0E00016625000107
:100590009D6F000E0001672100019E6F9DC066F0F7
:1005A0009EC067F0A3C068F0A4C069F0CAEC0EF06A
:1005B000000167510001996F9A6B91C075F092C06C
:1005C00076F00001751F761F754B762BFF0E00012C
:1005D00075250001666F000E000176210001676F2E
:1005E0009FC068F0A0C069F0CAEC0EF0000167C0BF
:1005F00066F00001676B0001661F0001671F0001C4
:10060000664B672BFF0E0001662500019D6F000EF3
:100610000001672100019E6F9DC066F09EC067F0DB
:10062000A3C068F0A4C069F0CAEC0EF000016751E5
:1006300000019B6F9C6B46D0A3C093F0A4C094F0C4
:100640009BC095F09CC096F008D099C093F09AC0DA
:1006500094F0A3C095F0A4C096F0A1C097F0A2C0FA
:1006600098F04BD0A1C093F0A2C094F0A3C095F035
:10067000A4C096F09BC097F09CC098F03ED0A1C05B
:1006800093F0A2C094F099C095F09AC096F008D06B
:100690009BC093F09CC094F0A1C095F0A2C096F0CE
:1006A000A3C097F0A4C098F028D0A3C093F0A4C032
:1006B00094F0A1C095F0A2C096F099C097F09AC0AE
:1006C00098F01BD08FC075F090C076F00001765185
:1006D000000AD8A4EAD700017551000AD8B4ACD7F3
:1006E000010AD8B4B2D7030AD8B4BCD7010AD8B427
:1006F000C6D7070AD8B4CCD7D8D700019551000186
:10070000756F000196510001766F0001776B000153
:10071000786B77C078F076C077F075C076F000011E
:10072000756B000197510001796F0001985100012C
:100730007A6F00017B6B00017C6B7AC07CF079C022
:100740007BF000017A6B796B73C0D9FF74C0DAFF5C
:10075000000EDE1400017D6F000EDE1400017E6FBE
:10076000000EDE1400017F6FFF0EDE140001806FAB
:100770000001795100017D110001816F00017A5162
:1007800000017E110001826F00017B5100017F1189
:100790000001836F00017C51000180110001846F12
:1007A00000017551000181110001856F0001765132
:1007B000000182110001866F000177510001831151
:1007C0000001876F00017851000184110001886FDA
:1007D00000019351000185110001896F00019451BE
:1007E0000001861100018A6F000E000187110001CF
:1007F0008B6F000E0001881100018C6F73C0D9FF50
:1008000074C0DAFF89C0DEFF8AC0DEFF8BC0DEFF66
:100810008CC0DEFF120069C07FF0200E0001756FF2
:100820000F0E00017C6F00017F5100016A6F6B6B3E
:1008300000016A1F6B1F6A4B6B2B00016851DFC000
:100840006CF000016D6B00016C27000E6D23000140
:100850006A5100016C250001606F00016B510001BD
:100860006D210001616FDFC062F00001636B70EC0D
:100870000BF060C06EF061C06FF0000168510001C4
:10088000706F716B0001701F711F704B712B000135
:100890007F51DFC072F00001736B00017227000E00
:1008A000732300017051000172250001606F000187
:1008B0007151000173210001616FDFC062F000011E
:1008C000636B70EC0BF00001605100016E5D000184
:1008D0006F51800A0001746F00016151800A0001AC
:1008E0007459D8A027D00001685100016A6F6B6B62
:1008F00000016A1F6B1F6A4B6B2B00017F51DFC029
:100900006CF000016D6B00016C27000E6D2300017F
:100910006A5100016C250001606F00016B510001FC
:100920006D210001616FDFC062F00001636B70EC4C
:100930000BF026D000017F5100016A6F6B6B000144
:100940006A1F6B1F6A4B6B2B00016851DFC06CF094
:1009500000016D6B00016C27000E6D2300016A51D0
:1009600000016C250001606F00016B5100016D21D9
:100970000001616FDFC062F00001636B70EC0BF08F
:1009800060C078F061C079F078C07EF0040E00019C
:100990007E6506D0000E00017B6F000E7A6F1FD0BF
:1009A00000017E510F0DF3CF60F0F4CF61F0000E27
:1009B0000001636F050E626FBBEC09F00001601F60
:1009C0000001611F0001604B612B0F0E00016025CB
:1009D00000017A6F000E0001612100017B6F7AC077
:1009E0007DF000017C5100016A6F6B6B00016A3B76
:1009F0006B3BF00E6B176A510F0B6B13F00E6A17FF
:100A000000017D5100016A13000E6B13000E0001FE
:100A10006A110001766F200E00016B110001776FE3
:100A200076C068F077C069F01200000120EE01F096
:100A3000D651D926D751DA22DF500001826F86D0F5
:100A4000000E0001836F18D083C068F0E7C069F022
:100A5000010E0BEC04F000018351020D200EF32473
:100A6000D96E010EF420DA6E000168C0DEFF0001CD
:100A700069C0DDFF0001832B0001DF510001835DB0
:100A8000D8A0E2D7010E0001E7250001606F000148
:100A9000616B000E6123DFC062F00001636B70ECDC
:100AA0000BF04FD0000E0001846F36D0000184514E
:100AB0000001E7250001666F0001676B00016737E1
:100AC000000E0001696F6869CAEC0EF066C06CF038
:100AD00067C06DF0DFC06EF000016F6B85EC0CF04D
:100AE00000016CC06DF000016C6BFF0E00016C1317
:100AF000000E00016D1300018451020D200EF3243D
:100B0000D96E010EF420DA6E00016CC0DEFF000128
:100B10006DC0DDFF0001842B0001DF510001845D09
:100B2000D8A0C4D7010E0001E7250001606F0001C5
:100B3000616B000E6123DFC062F00001636B70EC3B
:100B40000BF0000160510001E76F14D000018251E9
:100B5000000AD8B40FD0010AD8B40CD0030AD8B414
:100B60006FD7010AD8B406D0070AD8B403D0FB0A5D
:100B7000D8B498D7200E0001806F010E0001816F5C
:100B800012006CC074F06DC075F0000120EE02F030
:100B90007451D9267551DA22DF50D8B46FD0F2CF14
:100BA00072F0F29E000120EE01F07451D9267551C9
:100BB000DA22DF500001706F010E00017025000184
:100BC000666F0001676B000E6723000E0001696FFE
:100BD000030E686FCAEC0EF00001665100016C252F
:100BE000D96E0001675100016D21DA6E6EC0E1FF20
:100BF0006FC0E2FFDECFE6FFDECFE6FFDECFE6FF2F
:100C0000000120EE01F07451D9267551DA22DF2A55
:100C100074C0D9FF75C0DAFF000110EE01F0745105
:100C2000E1267551E222DE50E65CD8A019D0000121
:100C300020EE01F07451D9267551DA2274C0E1FF1B
:100C400075C0E2FFE7500001606F000110EE01F097
:100C50007451E1267551E222E75030EC0EF0DF6E60
:100C6000000120EE02F07451D9267551DA22DF0618
:100C7000DF500001736F72C0F2FF14D06EC0D9FF55
:100C80006FC0DAFF000EDF6E000120EE01F06E5142
:100C9000D9266F51DA22000EDE6E000EDD6E000ED8
:100CA0000001736F000173511200010E0001B96F52
:100CB0007BD0FE0E0001A76FFF0E0001A86F0001A0
:100CC000B9510001A96FAA6BD8900001A937AA37C2
:100CD0000001A7510001A9270001A8510001AA2382
:100CE0000001A9510001A525D96E0001AA510001FA
:100CF000A621DA6EDECFABF0DDCFACF0F8C0ADF000
:100D00000001AE6BAF6BB06BADC0B0F00001AF6B6C
:100D1000AE6BAD6B0001AB510001AD110001B16FC5
:100D20000001AC510001AE110001B26F000E0001D4
:100D3000AF110001B36F000E0001B0110001B46FDC
:100D4000000E0001B1110001B56F000E0001B211DB
:100D50000001B66F000E0001B3110001B76FE00E85
:100D60000001B4110001B86F0001B951040DB80EB3
:100D7000F324D96E010EF420DA6EB5C0DEFFB6C0E2
:100D8000DEFFB7C0DEFFB8C0DEFF0001B951040DC1
:100D9000B80EF3240001736F010EF4200001746F8C
:100DA000DFEC01F00001B92B0001B9510001E45D55
:100DB000D8B07FD7B80E0001806F010E0001816F9F
:100DC0000001E451030F0001826FFFEC0EF01200EE
:100DD0000001DC510001DD11D8B41200DCC0D4F0F8
:100DE000DDC0D5F0D4C060F0D5C061F01EEC0BF0D2
:100DF0000001DE6F0001DE51020D000EF324D96EFA
:100E0000010EF420DA6EDE06000EDD5ADE50DE1032
:100E1000D8A443D0030E0001D16FDEC0D2F0000190
:100E2000D36BD1C07DF0D2C07EF0D3C07FF0000183
:100E3000DE51020D210EF324F66E030EF420F76E40
:100E400001D80CD00500FA6E0900F550FD6E0900BE
:100E5000F550FE6EF850FF6EFA5012000001DE51A0
:100E6000020D010EF324F66E030EF420F76E090056
:100E7000F5CF80F00900F5CF81F00001801D000161
:100E8000826F0001811D0001836F0001825100010A
:100E9000DC17000183510001DD170001DE51020D56
:100EA000010EF324F66E030EF420F76E0900F5CF61
:100EB00080F00900F5CF81F00001801D0001826FF4
:100EC0000001811D0001836F000182510001D417D0
:100ED000000183510001D5170001D4510001D51143
:100EE000D8B412007FD7000E0001C46F6DD0020E7F
:100EF0000001BA19D8A473D063D0090E0001BA1941
:100F0000D8A46DD07FEC0FF060C0CDF061C0CEF002
:100F100062C0CFF063C0D0F0CDC060F0CEC061F051
:100F2000CFC062F0D0C063F094EC0DF0020E49D057
:100F3000030E0001BA19D8A452D0FF0E0001BD6FF4
:100F4000FF0E0001BE6F0001E6510001BF6FC06BD4
:100F50000001BD510001BF270001BE510001C023A7
:100F60000001E32BE3050001C16FC26B0001BF511B
:100F70000001C15D0001C251800A0001C36F000180
:100F8000C051800A0001C359D8B01AD0040E000124
:100F9000D827000ED9237FEC0FF060C0CDF061C0E0
:100FA000CEF062C0CFF063C0D0F0CDC060F0CEC054
:100FB00061F0CFC062F0D0C063F094EC0DF00FD0C0
:100FC000010E0001E06F0BD00001E051000AD8B41F
:100FD0008ED7010AD8B491D7030AD8B4A9D7C4C010
:100FE000BAF0C5C0BBF0C6C0BCF012006BD0DAC00E
:100FF00060F0DBC061F01EEC0BF00001CB6F000174
:10100000CB51030D580EF324F66E030EF420F76E49
:101010000900F5CF6CF00A00F5CF6DF0F50E000178
:101020006E6F000E00016F6FC1EC05F00009D8A4CF
:101030001FD00001CB51020D010EF324F66E030EFA
:10104000F420F76E0900F5CFC7F00900F5CFC8F01E
:101050000001C71D0001C96F0001C81D0001CA6F52
:101060000001C9510001DA170001CA510001DB1764
:10107000F5C0BAF0F6C0BBF0F7C0BCF00001CB5130
:10108000040D020EF326000EF422500EF324F66E29
:10109000030EF420F76E01D80CD00500FA6E09009B
:1010A000F550FD6E0900F550FE6EF850FF6EFA50D7
:1010B0001200BA0ED96E000EDA6EDF50D8B402D02C
:1010C000020E12008CEC0FF00009D8B406D000011B
:1010D000DA510001DB11D8A48AD70BEC0EF0F2D75D
:1010E00081C062F082C063F0B4EC0FF0000E00012A
:1010F000836F010E0001836501D066D0000183512A
:10110000040D500EF324F66E030EF420F76E090062
:10111000F5500900F510D8B413D000018351040D27
:10112000020EF326000EF422500EF324F66E030E88
:10113000F420F76E0900F5500900F510D8A402D08C
:10114000030E120000018351030D580EF324F66EB6
:10115000030EF420F76E0900F5CF60F00A00F5CF1A
:1011600061F000018351030D020EF326000EF422FC
:10117000580EF324F66E030EF420F76E0800F5CF38
:1011800062F072EC0EF000018351040D500EF32456
:10119000F66E030EF420F76E01D80ED00500FA6E3D
:1011A0000900F550FD6E0900F550FE6EF850FF6E17
:1011B000FA50000183511200E806D8B402D0050E9F
:1011C00012000001832B95D7000E12006CC075F041
:1011D0006DC076F075C0D9FF76C0DAFF000110EE61
:1011E00002F07551E1267651E222DE50E65CD8B07D
:1011F0005CD0F2CF74F0F29E75C0D9FF76C0DAFFF2
:10120000DF500001716F000171510001626F636B6B
:10121000000120EE02F07551D9267651DA22DF5016
:101220000001726F000120EE01F07551D926765150
:10123000DA22DF500001736F000173510001722543
:101240000001606F0001616B0001613770EC0BF011
:10125000010E000160250001666F000E0001612192
:101260000001676F000E0001696F030E686FCAEC22
:101270000EF00001665100016C25D96E0001675126
:1012800000016D21DA6E6EC0DEFF6FC0DEFF70C040
:10129000DEFF000120EE02F07551D9267651DA22E8
:1012A000DF2A74C0F2FF010E1200000E1200000EC1
:1012B0000001BD6F4BD0020E0001BA19D8A454D062
:1012C00018EC0FF0010E0001E26F050E0001C06F77
:1012D000C0C07DF0C1C07EF0C2C07FF097EC0FF0BF
:1012E00043D0050E0001BA19D8A43ED02CEC0FF063
:1012F000020E29D0030E0001BA19D8A403D02CEC99
:101300000FF032D0060E0001BA19D8A403D018ECA1
:101310000FF018D0070E0001BA19D8A425D0BFECE1
:101320000FF0030E10D0080E0001BA19D8A403D094
:101330002CEC0FF0DDD7060E0001BA19D8A414D09A
:1013400018EC0FF0010E0001E26F0ED00001E25127
:10135000000AD8B4B0D7010AD8B4C3D7030AD8B4A6
:10136000C9D7010AD8B4DFD7BDC0BAF0BEC0BBF040
:10137000BFC0BCF01200000E0001656F000163AF3A
:1013800008D00001626D631FD8B0632B010E00010D
:10139000656F000161AF08D00001606D611FD8B0BA
:1013A000612B010E0001651B000E0001676F000E2E
:1013B000666F0001625100016311D8B42CD0010E98
:1013C0000001646F06D00001D890623763370001D6
:1013D000642B000163AFF7D70001D89066376737F9
:1013E000000162510001605D00016351000161591B
:1013F000D8A00AD0000162510001605F0001635172
:101400000001615B000166810001D89063336233A3
:101410000001642FE1D7000165510001D8B405D067
:101420000001666D671FD8B0672B66C060F067C0AB
:1014300061F012000DC016F00EC017F016C0D9FFF3
:1014400017C0DAFF10EE02F01650E1261750E22224
:10145000DE50E65CD8B046D0F2CF15F0F29E16C052
:10146000D9FF17C0DAFFDF50126E1250036E046A04
:1014700020EE02F01650D9261750DA22DF50136EF4
:1014800020EE01F01650D9261750DA22DF50146EE4
:1014900014501324016E026A0236FCEC0CF0010EAB
:1014A0000124076E000E0220086E000E0A6E030E65
:1014B000096E3FEC0FF007500D24D96E08500E2036
:1014C000DA6E0FC0DEFF10C0DEFF11C0DEFF20EEBF
:1014D00002F01650D9261750DA22DF2A15C0F2FF83
:1014E000010E1200000E12000001636F63C0E4F0F1
:1014F00060C0F8F0000EE8CFB8F1000EE8CFB9F107
:10150000000EE8CFBAF1000EE8CFBBF10001E451C4
:101510000001616F626B0001D89061376237000192
:10152000D89061376237040E00016127000E6223F4
:10153000B80E00016125D96E010E00016221DA6E3C
:10154000FF0EDE6EFF0EDE6EFF0EDE6EFF0EDD6E38
:101550000001E4510001616F626B0001D8906137B6
:1015600062370001D89061376237080E00016127A9
:10157000000E6223B80E00016125D96E010E000134
:101580006221DA6EFF0EDE6EFF0EDE6EFF0EDE6E85
:10159000FF0EDD6E12000600E9CF28F0EACF29F039
:1015A000E1CF2AF0E2CF2BF0D9CF2CF0DACF2DF01B
:1015B000F3CF2EF0F4CF2FF0F6CF30F0F7CF31F09D
:1015C000F8CF32F0F5CF33F09EA415D0BF50246E83
:1015D000BE50386E24C039F0200E38243A6E4E0EBC
:1015E00039203B6E3B50BF6E3AC0BEFF9E94000157
:1015F000E82B3C4A3D2A9EA603D09E96ADEC0EF009
:1016000033C0F5FF32C0F8FF31C0F7FF30C0F6FF3E
:101610002FC0F4FF2EC0F3FF2DC0DAFF2CC0D9FF7E
:101620002BC0E2FF2AC0E1FF29C0EAFF28C0E9FF82
:1016300027C0FBFF26C0FAFF50921100800E000168
:10164000676F030E0001696F000169BF46D000019A
:101650006951040DF3CF62F060C063F061C064F0C3
:101660000001622B04D00001D89064336333000181
:10167000622FF9D7000163510F0B0001686F000161
:1016800068510001D8B426D0FF0E0001626FFF0E32
:101690000001636F000168510001646F656B000118
:1016A0006251000164270001635100016523410E6E
:1016B00000016425F66E030E6521F76E0800F5CF74
:1016C00066F000016951040DF35000016625000128
:1016D000676F03D000016907B7D700016751120097
:1016E000000E0001656F000161AF08D00001606D60
:1016F000611FD8B0612B010E0001656F000163AF5F
:1017000005D00001626D631FD8B0632B00016251E8
:1017100000016311D8B426D0010E0001646F06D019
:101720000001D890623763370001642B000163AF7A
:10173000F7D7000162510001605D000163510001B3
:101740006159D8A008D0000162510001605F00011A
:1017500063510001615B0001D89063336233000183
:10176000642FE7D7000165510001D8B405D000010E
:10177000606D611FD8B0612B60C060F061C061F026
:101780001200D388D38AD38CD3829C0E0001826F3F
:101790003F0E816F70EC08F00001CC6F0001CC515E
:1017A0000001D8A429D0F6EC07F00001CC6F24D0BA
:1017B000640E0001606F030E0001616FE5EC0EF036
:1017C00027D07F0E0001606F030E0001616FE5EC12
:1017D0000EF01ED0970E0001606F030E0001616FC6
:1017E000E5EC0EF015D0AE0E0001606F030E0001A7
:1017F000616FE5EC0EF00CD00001CC51010AD8B4B9
:10180000D7D7020AD8B4DDD7060AD8B4E3D7EBD7C6
:10181000FFD70001646F100E000164611200000127
:101820006451020D210EF324F66E030EF420F76EC0
:101830000900F5500900F510D8B4120000016051FC
:1018400000016111D8B4120000016451020D000EB4
:10185000F324D96E010EF420DA6E60C0DEFF61C0A1
:10186000DDFF00016451020D010EF324F66E030E3C
:10187000F420F76E0900F5CF62F00900F5CF63F0B0
:10188000000162510001DC13000163510001DD130E
:101890001200860EF66E1F0EF76E000EF86E00EE4A
:1018A000F9F010EE06F00900F5CFEEFFE550E1503B
:1018B000FAE1980EF66E1F0EF76E000EF86E090034
:1018C000F5CF4FF001EEB8F011EE3CF0EE6AE550C6
:1018D000E150FCE1E250FAE101EE00F0B80EEE6AF0
:1018E000E806FDE100EECDF02C0EEE6AE806FDE123
:1018F00000EE34F01B0EEE6AE806FDE150905092C7
:10190000000EF86E0001C1EF0BF0000E0001716FC8
:10191000000E706F00016E5100016F11D8B42CD011
:10192000010E0001726F06D00001D8906E376F373C
:101930000001722B00016FAFF7D70001D89070370C
:10194000713700016E5100016C5D00016F510001A3
:101950006D59D8A00AD000016E5100016C5F0001E2
:101960006F5100016D5B000170810001D8906F33F1
:101970006E330001722FE1D770C06CF071C06DF052
:10198000120000017C6F020E00017C6133D0000167
:101990007C51030D580EF324F66E030EF420F76EFF
:1019A0000900F5CF6CF00A00F5CF6DF077C06EF04E
:1019B00078C06FF079C070F0E6EC08F0E806D8A4C3
:1019C00019D000017C51020D010EF324F66E030EB6
:1019D000F420F76E0900F5CF7AF00900F5CF7BF01F
:1019E00000017A510001DA1300017B510001DB1381
:1019F000010E1200000E1200000E066E02AE06D09E
:101A0000016C021ED8B0022A010E066E04AE04D08C
:101A1000036C041ED8B0042A03500410D8B418D0A4
:101A2000010E056E04D0D89003360436052A04AEA4
:101A3000FAD70350015C04500258D8A004D00350D8
:101A4000015E0450025AD89004320332052EF1D7B9
:101A50000650D8B404D0016C021ED8B0022A01C0CE
:101A600001F002C002F012001D6E020E1D602FD0A8
:101A70001D50030D580EF324F66E030EF420F76E7E
:101A80000900F5CF0DF00A00F5CF0EF018C00FF0E9
:101A900019C010F01AC011F01AEC0AF0E806D8A428
:101AA00016D01D50020D010EF324F66E030EF42025
:101AB000F76E0900F5CF1BF00900F5CF1CF01B50A5
:101AC0000001DA131C500001DB13010E1200000E9E
:101AD00012000001806F80C0E5F0FCC060F04C0E89
:101AE00074EC0AF0FA0E0001606F000E0001616FE5
:101AF0004C0E0001626FADEC0FF0000E0001E26FC2
:101B0000020E00017D6F7DC077F07EC078F07FC04F
:101B100079F00001E551C1EC0CF0E806D8A402D040
:101B2000010E1200000E1200040E0001F919D8A4D3
:101B300008D060C034F061C035F062C036F063C0D8
:101B400037F00001F9070001F951080DF35060C0AA
:101B500064F061C065F062C066F063C067F00001C8
:101B6000E82A05D0D8906733663365336433E82EAE
:101B7000F9D700016451C96E12000001646F0F0EA5
:101B80000001646501D0120000016451020D010ED4
:101B9000F324F66E030EF420F76E0900F5CF60F023
:101BA0000900F5CF61F00001601D0001626F0001C6
:101BB000611D0001636F000162510001DC1700012B
:101BC00063510001DD171200040E0001F919D8A4B9
:101BD00008D001C034F002C035F003C036F004C0B4
:101BE00037F00001F9070001F951080DF35001C069
:101BF00005F002C006F003C007F004C008F0E82AB0
:101C000005D0D8900832073206320532E82EF9D7CF
:101C10000550C96E1200000E0001606F0001605196
:101C20000001D8A4120000016051020D5E0EF324E1
:101C3000F66E030EF420F76E01D80CD00500FA6E94
:101C40000900F550FD6E0900F550FE6EF850FF6E6C
:101C5000FA501200E806D8B412000001602BDED75B
:101C60000001616F080E0001626F000E0001636FDA
:101C7000D89000016135000163350001636F0001F8
:101C8000D8906137000160510001635DD8A004D095
:101C9000000160510001635F0001622FE9D700017C
:101CA00063511200000E0001626F0FD000016251FB
:101CB000020D200EF324D96E010EF420DA6E000E10
:101CC000DE6E000EDD6E0001622B0001DF510001AF
:101CD000625DD8A0EBD7200E0001606F010E0001FD
:101CE000616F120060C063F061C064F000016205C2
:101CF00063C0D9FF64C0DAFFDF6E000120EE01F09F
:101D00006351D9266451DA22000EDF6E000120EE05
:101D100002F06351D9266451DA22000EDF6E120000
:101D20000001806F80C0E1F0C6EC0FF0000E0001F2
:101D3000E06F020E00017D6F7DC077F07EC078F00D
:101D40007FC079F00001E151C1EC0CF0E806D8A4A5
:101D500002D0010E1200000E12000001F951D8A4A9
:101D60000ED0040E0001F96F030E216E21C01EF08B
:101D700022C01FF023C020F0A2EC0FF0120034C0EC
:101D800001F035C002F036C003F037C004F0E4ECD7
:101D90000DF012000001665100016803F3CF6AF0F4
:101DA000F4CF6BF00001665100016903F3500001AC
:101DB0006B270001675100016803F35000016B2796
:101DC0006AC066F06BC067F01200620E0001626FBD
:101DD000000E0001636F04D000016451CBEC0FF0E2
:101DE00060C0F6FF61C0F7FF0001604B612B080087
:101DF000F5CF64F000016451D8B41200EDD70001B2
:101E0000E005D8A41200000E0001E36F80C0D8F0F6
:101E100081C0D9F082C0E6F0090E0001836F83C053
:101E20007DF084C07EF085C07FF063EC0FF012007F
:101E3000000E0001FA6F000EBDEC0DF052EC0EF03A
:101E400060C0A5F061C0A6F055EC06F0BBEC0FF049
:101E5000000E0001FA6F1200FEC060F00001616B1D
:101E6000000E09EC0CF015EC05F080C0A5F081C067
:101E7000A6F055EC06F0010E0001FA6F12000750B3
:101E80000902F3CF0BF0F4CF0CF007500A02F35025
:101E90000C2608500902F3500C260BC007F00CC0AA
:101EA00008F01200000E826E000E8B6E0F0EC16ED7
:101EB000000E946E9D86000EC66E400EC76EC868FA
:101EC000300EC66E120050B2A2EF0FF07DC077F058
:101ED0007EC078F07FC079F00001E151C1EC0CF0D8
:101EE0001200040E9D6E400EF26E0A0EBD6E010EC3
:101EF000BE6E000EBF6E210ECD6EF28E1200D8C0E7
:101F0000D9FFD9C0DAFFDECF60F0DECF61F0DECFDF
:101F100062F0DECF63F0120004D0E8EC06F00001BE
:101F2000E8070001E851D8A4F8D7010E12007DC0DF
:101F300077F07EC078F07FC079F00001E551C1EC08
:101F40000CF012001EC018F01FC019F020C01AF0CB
:101F50000001E15134EC0DF0120060C0D6F061C018
:101F6000D7F062C0DFF0120062C060F063C061F0C1
:101F700071EC0FF01200000E0001E76F1200000E6E
:101F8000BDEC0DF012000300FF1F000152EC0FF03A
:091F90001200000E120012001FE5
:020000040020DA
:08000000FFFFFFFFFFFFFFFF00
:020000040030CA
:0E000000FF08191EFF8085FF0FC00FE00F40A4
:00000001FF
