:040000000BEF00F012
:100008005C82FACF26F0FBCF27F024ED0DF0C9EF84
:0200180010F0E6
:1003000000010002000400080010002000400080EE
:10031000000001000200040008001000200040005E
:1003200080D22850280000000000000000000000DB
:1003300000000000000000000000000000000000BD
:10034000000001010202020203030303030303038B
:100350002C24161B7A2680168A279C1CEA0004434C
:1003600000044F00046829D22850284661696C6552
:1003700064206F6E20617474656D707420746F20DA
:10038000506F73740A004661696C6564206F6E205B
:100390004E554C4C20706F696E7465720A00466150
:1003A000696C656420496E697469616C697A61740D
:1003B000696F6E0A004F74686572204661696C75DA
:0503C00072650A000057
:1003C60073C0D9FF74C0DAFFDECF75F0DECF76F0EA
:1003D600DECF77F0DECF78F076C075F077C076F0B6
:1003E60078C077F00001786B75C08DF076C08EF01E
:1003F60073C0D9FF74C0DAFFDECF75F0DDCF76F0BB
:10040600F00E0001751500019F6F0001A06B9FC0E3
:1004160075F0A0C076F0040E0001776F0001D89049
:10042600763375330001772FF9D700017551000136
:100436009F27000176510001A02373C0D9FF74C025
:10044600DAFFDECF75F0DDCF76F00F0E0001751501
:100456000001A36F0001A46BA3C075F0A4C076F0E1
:100466000001753B763BF00E761775510F0B761330
:10047600F00E7517000175510001A3270001765192
:100486000001A42300019F510001A011D8A40DD0A2
:10049600A3C097F0A4C098F097C095F098C096F0C6
:1004A60095C093F096C094F029D18DC06CF08EC0A3
:1004B6006DF0000E00016F6F2B0E6E6F05EC11F0E4
:1004C6006CC08FF06DC090F08FC066F090C067F082
:1004D600000E0001696F2B0E686F77EC13F00001B8
:1004E600661F0001671F0001664B672B00018D51D7
:1004F6000001662500019D6F00018E5100016721F4
:1005060000019E6F9DC066F09EC067F0000E000160
:10051600696F060E686F77EC13F066C091F067C0DE
:1005260092F09FC075F0A0C076F00001751F761F8F
:10053600754B762BFF0E000175250001666F000EC8
:10054600000176210001676FA3C068F0A4C069F0BE
:1005560077EC13F0000167510001A16FA26B9FC0F9
:1005660066F0A0C067F091C068F092C069F077ECC1
:1005760013F0000167C066F00001676B0001661F9B
:100586000001671F0001664B672BFF0E0001662501
:1005960000019D6F000E0001672100019E6F9DC046
:1005A60066F09EC067F0A3C068F0A4C069F077EC5F
:1005B60013F0000167510001996F9A6B91C075F0B5
:1005C60092C076F00001751F761F754B762BFF0ED5
:1005D600000175250001666F000E000176210001FD
:1005E600676F9FC068F0A0C069F077EC13F0000158
:1005F60067C066F00001676B0001661F0001671F98
:100606000001664B672BFF0E0001662500019D6FFA
:10061600000E0001672100019E6F9DC066F09EC01E
:1006260067F0A3C068F0A4C069F077EC13F000018E
:10063600675100019B6F9C6B46D0A3C093F0A4C08A
:1006460094F09BC095F09CC096F008D099C093F0AA
:100656009AC094F0A3C095F0A4C096F0A1C097F0FC
:10066600A2C098F04BD0A1C093F0A2C094F0A3C052
:1006760095F0A4C096F09BC097F09CC098F03ED031
:10068600A1C093F0A2C094F099C095F09AC096F0DC
:1006960008D09BC093F09CC094F0A1C095F0A2C076
:1006A60096F0A3C097F0A4C098F028D0A3C093F00A
:1006B600A4C094F0A1C095F0A2C096F099C097F09E
:1006C6009AC098F01BD08FC075F090C076F00001EC
:1006D6007651000AD8A4EAD700017551000AD8B4A9
:1006E600ACD7010AD8B4B2D7030AD8B4BCD7010A2A
:1006F600D8B4C6D7070AD8B4CCD7D8D700019551F5
:100706000001756F000196510001766F0001776B4D
:100716000001786B77C078F076C077F075C076F018
:100726000001756B000197510001796F0001985126
:1007360000017A6F00017B6B00017C6B7AC07CF054
:1007460079C07BF000017A6B796B73C0D9FF74C0F6
:10075600DAFF000EDE1400017D6F000EDE140001CC
:100766007E6F000EDE1400017F6FFF0EDE140001A7
:10077600806F0001795100017D110001816F000138
:100786007A5100017E110001826F00017B51000148
:100796007F110001836F00017C510001801100016F
:1007A600846F00017551000181110001856F000100
:1007B6007651000182110001866F00017751000118
:1007C60083110001876F0001785100018411000137
:1007D600886F00019351000185110001896F0001A6
:1007E60094510001861100018A6F000E00018711E5
:1007F60000018B6F000E0001881100018C6F73C021
:10080600D9FF74C0DAFF89C0DEFF8AC0DEFF8BC065
:10081600DEFF8CC0DEFF1200000120EE01F0D65193
:10082600D926D751DA22DF500001826F1CD1000E83
:100836000001836F18D083C068F0E8C069F0010E2C
:1008460084EC08F000018351020D200EF324D96ECA
:10085600010EF420DA6E000168C0DEFF000169C0F7
:10086600DDFF0001832B0001E0510001835DD8A06C
:10087600E2D7010E0001E8250001606F0001616BFF
:10088600000E6123E0C062F00001636BAEEC0FF076
:10089600E5D0000E0001846F18D084C068F0E8C06F
:1008A60069F0010E51EC05F000018451020D200E95
:1008B600F324D96E010EF420DA6E000168C0DEFF63
:1008C600000169C0DDFF0001842B0001E051000139
:1008D600845DD8A0E2D7010E0001E8250001606F13
:1008E6000001616B000E6123E0C062F00001636BE2
:1008F600AEEC0FF0B3D0000E0001856F18D085C0A6
:1009060068F0E8C069F0010E62EC06F0000185515E
:10091600020D200EF324D96E010EF420DA6E0001CA
:1009260068C0DEFF000169C0DDFF0001852B000104
:10093600E0510001855DD8A0E2D7010E0001E8254F
:100946000001606F0001616B000E6123E0C062F080
:100956000001636BAEEC0FF081D0000E0001866FD4
:1009660018D086C068F0E8C069F0010E73EC07F095
:1009760000018651020D200EF324D96E010EF420DB
:10098600DA6E000168C0DEFF000169C0DDFF00010C
:10099600862B0001E0510001865DD8A0E2D7010E4A
:1009A6000001E8250001606F0001616B000E612304
:1009B600E0C062F00001636BAEEC0FF04FD0000EAA
:1009C6000001876F36D0000187510001E82500013C
:1009D600666F0001676B00016737000E0001696FE3
:1009E600686977EC13F066C06CF067C06DF0E0C024
:1009F6006EF000016F6B05EC11F000016CC06DF03C
:100A060000016C6BFF0E00016C13000E00016D13EC
:100A160000018751020D200EF324D96E010EF42039
:100A2600DA6E00016CC0DEFF00016DC0DDFF000163
:100A3600872B0001E0510001875DD8A0C4D7010EC5
:100A46000001E8250001606F0001616B000E612363
:100A5600E0C062F00001636BAEEC0FF00001605184
:100A66000001E86F14D000018251000AD8B40FD0FB
:100A7600010AD8B4DCD6030AD8B40BD7010AD8B415
:100A86003AD7070AD8B469D7FB0AD8B498D7200E44
:100A96000001806F010E0001816F120069C07FF0B6
:100AA600200E00017D6F0F0E00017B6F00017F514C
:100AB60000016A6F6B6B00016A1F6B1F6A4B6B2B21
:100AC60000016851E0C06CF000016D6B00016C27FD
:100AD600000E6D2300016A5100016C250001606F54
:100AE60000016B5100016D210001616FE0C062F0F1
:100AF6000001636BAEEC0FF060C06EF061C06FF08A
:100B0600000168510001706F716B0001701F711F49
:100B1600704B712B00017F51E0C072F00001736BC6
:100B260000017227000E7323000170510001722527
:100B36000001606F00017151000173210001616FB6
:100B4600E0C062F00001636BAEEC0FF00001605193
:100B560000016E5D00016F51800A0001746F000193
:100B66006151800A00017459D8A027D0000168514C
:100B760000016A6F6B6B00016A1F6B1F6A4B6B2B60
:100B860000017F51E0C06CF000016D6B00016C2725
:100B9600000E6D2300016A5100016C250001606F93
:100BA60000016B5100016D210001616FE0C062F030
:100BB6000001636BAEEC0FF026D000017F510001FF
:100BC6006A6F6B6B00016A1F6B1F6A4B6B2B000110
:100BD6006851E0C06CF000016D6B00016C27000EDF
:100BE6006D2300016A5100016C250001606F000150
:100BF6006B5100016D210001616FE0C062F00001E0
:100C0600636BAEEC0FF060C077F061C078F077C030
:100C16007EF0040E00017E6506D0000E00017A6F9C
:100C2600000E796F1FD000017E510F0DF3CF60F0DB
:100C3600F4CF61F0000E0001636F050E626FEFECFA
:100C46000DF00001601F0001611F0001604B612B68
:100C56000F0E000160250001796F000E0001612171
:100C660000017A6F79C07CF000017B5100016A6F48
:100C76006B6B00016A3B6B3BF00E6B176A510F0BF7
:100C86006B13F00E6A1700017D5100016D6F6C6BDE
:100C960000016A5100016C1300016B5100016D13D4
:100CA60000017C5100016C110001756F00016D514E
:100CB6000001766F75C068F076C069F0120069C0F1
:100CC6007FF0AA0E00017D6F0F0E00017B6F000101
:100CD6007F5100016A6F6B6B00016A1F6B1F6A4BC5
:100CE6006B2B00016851E0C06CF000016D6B0001D8
:100CF6006C27000E6D2300016A5100016C2500016E
:100D0600606F00016B5100016D210001616FE0C051
:100D160062F00001636BAEEC0FF060C06EF061C074
:100D26006FF0000168510001706F716B0001701F58
:100D3600711F704B712B00017F51E0C072F00001F2
:100D4600736B00017227000E7323000170510001BE
:100D560072250001606F00017151000173210001CD
:100D6600616FE0C062F00001636BAEEC0FF0000152
:100D7600605100016E5D00016F51800A0001746FC1
:100D860000016151800A00017459D8A027D00001E2
:100D9600685100016A6F6B6B00016A1F6B1F6A4B1B
:100DA6006B2B00017F51E0C06CF000016D6B000100
:100DB6006C27000E6D2300016A5100016C250001AD
:100DC600606F00016B5100016D210001616FE0C091
:100DD60062F00001636BAEEC0FF026D000017F518C
:100DE60000016A6F6B6B00016A1F6B1F6A4B6B2BEE
:100DF60000016851E0C06CF000016D6B00016C27CA
:100E0600000E6D2300016A5100016C250001606F20
:100E160000016B5100016D210001616FE0C062F0BD
:100E26000001636BAEEC0FF060C077F061C078F044
:100E360077C07EF0040E00017E6506D0000E00012C
:100E46007A6F000E796F1FD000017E510F0DF3CF20
:100E560060F0F4CF61F0000E0001636F050E626F63
:100E6600EFEC0DF00001601F0001611F0001604BF7
:100E7600612B0F0E000160250001796F000E000145
:100E8600612100017A6F79C07CF000017B5100017D
:100E96006A6F6B6B00016A3B6B3BF00E6B176A5116
:100EA6000F0B6B13F00E6A1700017D5100016D6F79
:100EB6006C6B00016A5100016C1300016B5100015B
:100EC6006D1300017C5100016C110001756F00016A
:100ED6006D510001766F75C068F076C069F012003A
:100EE60069C07FF0550E00017D6F0F0E00017B6F0C
:100EF60000017F5100016A6F6B6B00016A1F6B1F57
:100F06006A4B6B2B00016851E0C06CF000016D6B01
:100F160000016C27000E6D2300016A5100016C254B
:100F26000001606F00016B5100016D210001616FCE
:100F3600E0C062F00001636BAEEC0FF060C06EF0D3
:100F460061C06FF0000168510001706F716B0001A4
:100F5600701F711F704B712B00017F51E0C072F042
:100F66000001736B00017227000E7323000170519C
:100F7600000172250001606F0001715100017321AB
:100F86000001616FE0C062F00001636BAEEC0FF030
:100F96000001605100016E5D00016F51800A000181
:100FA600746F00016151800A00017459D8A027D0DE
:100FB6000001685100016A6F6B6B00016A1F6B1FAD
:100FC6006A4B6B2B00017F51E0C06CF000016D6B2A
:100FD60000016C27000E6D2300016A5100016C258B
:100FE6000001606F00016B5100016D210001616F0E
:100FF600E0C062F00001636BAEEC0FF026D000019A
:101006007F5100016A6F6B6B00016A1F6B1F6A4B91
:101016006B2B00016851E0C06CF000016D6B0001A4
:101026006C27000E6D2300016A5100016C2500013A
:10103600606F00016B5100016D210001616FE0C01E
:1010460062F00001636BAEEC0FF060C077F061C038
:1010560078F077C07EF0040E00017E6506D0000EA3
:1010660000017A6F000E796F1FD000017E510F0DBF
:10107600F3CF60F0F4CF61F0000E0001636F050E50
:10108600626FEFEC0DF00001601F0001611F0001AF
:10109600604B612B0F0E000160250001796F000E79
:1010A6000001612100017A6F79C07CF000017B515B
:1010B60000016A6F6B6B00016A3B6B3BF00E6B17AE
:1010C6006A510F0B6B13F00E6A1700017D51000178
:1010D6006D6F6C6B00016A5100016C1300016B515E
:1010E60000016D1300017C5100016C110001756F48
:1010F60000016D510001766F75C068F076C069F029
:10110600120069C07FF0000E0001756F0F0E00011E
:101116007C6F00017F5100016A6F6B6B00016A1FD3
:101126006B1F6A4B6B2B00016851E0C06CF000012D
:101136006D6B00016C27000E6D2300016A510001E2
:101146006C250001606F00016B5100016D210001EB
:10115600616FE0C062F00001636BAEEC0FF060C03F
:101166006EF061C06FF0000168510001706F716B25
:101176000001701F711F704B712B00017F51E0C081
:1011860072F00001736B00017227000E73230001D9
:101196007051000172250001606F0001715100015C
:1011A60073210001616FE0C062F00001636BAEEC79
:1011B6000FF00001605100016E5D00016F51800A61
:1011C6000001746F00016151800A00017459D8A0B2
:1011D60027D00001685100016A6F6B6B00016A1F1E
:1011E6006B1F6A4B6B2B00017F51E0C06CF0000156
:1011F6006D6B00016C27000E6D2300016A51000122
:101206006C250001606F00016B5100016D2100012A
:10121600616FE0C062F00001636BAEEC0FF026D0A8
:1012260000017F5100016A6F6B6B00016A1F6B1F23
:101236006A4B6B2B00016851E0C06CF000016D6BCE
:1012460000016C27000E6D2300016A5100016C2518
:101256000001606F00016B5100016D210001616F9B
:10126600E0C062F00001636BAEEC0FF060C078F096
:1012760061C079F078C07EF0040E00017E6506D06C
:10128600000E00017B6F000E7A6F1FD000017E51A9
:101296000F0DF3CF60F0F4CF61F0000E0001636F25
:1012A600050E626FEFEC0DF00001601F0001611F7B
:1012B6000001604B612B0F0E0001602500017A6F63
:1012C600000E0001612100017B6F7AC07DF00001F4
:1012D6007C5100016A6F6B6B00016A3B6B3BF00E41
:1012E6006B176A510F0B6B13F00E6A1700017D51D5
:1012F60000016A13000E6B13000E00016A11000153
:10130600766F200E00016B110001776F76C068F0D2
:1013160077C069F012006CC074F06DC075F0000102
:1013260020EE02F07451D9267551DA22DF50D8B476
:101336006FD0F2CF72F0F29E000120EE01F07451F0
:10134600D9267551DA22DF500001706F010E0001B7
:1013560070250001666F0001676B000E6723000EA3
:101366000001696F030E686F77EC13F00001665198
:1013760000016C25D96E0001675100016D21DA6EFE
:101386006EC0E1FF6FC0E2FFDECFE6FFDECFE6FF15
:10139600DECFE6FF000120EE01F07451D92675512B
:1013A600DA22DF2A74C0D9FF75C0DAFF000110EE19
:1013B60001F07451E1267551E222DE50E65CD8A0B8
:1013C60019D0000120EE01F07451D9267551DA22A8
:1013D60074C0E1FF75C0E2FFE7500001606F0001D5
:1013E60010EE01F07451E1267551E222E750DDEC72
:1013F60012F0DF6E000120EE02F07451D92675510D
:10140600DA22DF06DF500001736F72C0F2FF14D0DC
:101416006EC0D9FF6FC0DAFF000EDF6E000120EE4E
:1014260001F06E51D9266F51DA22000EDE6E000EE3
:10143600DD6E000E0001736F000173511200010E84
:101446000001B96F7BD0FE0E0001A76FFF0E0001F1
:10145600A86F0001B9510001A96FAA6BD8900001CD
:10146600A937AA370001A7510001A9270001A851F1
:101476000001AA230001A9510001A525D96E00018A
:10148600AA510001A621DA6EDECFABF0DDCFACF0BB
:10149600F9C0ADF00001AE6BAF6BB06BADC0B0F094
:1014A6000001AF6BAE6BAD6B0001AB510001AD112E
:1014B6000001B16F0001AC510001AE110001B26F25
:1014C600000E0001AF110001B36F000E0001B01154
:1014D6000001B46F000E0001B1110001B56F000EDE
:1014E6000001B2110001B66F000E0001B311000138
:1014F600B76FE00E0001B4110001B86F0001B951D9
:10150600040DB80EF324D96E010EF420DA6EB5C0C0
:10151600DEFFB6C0DEFFB7C0DEFFB8C0DEFF0001EB
:10152600B951040DB80EF3240001736F010EF420B7
:101536000001746FE3EC01F00001B92B0001B95111
:101546000001E55DD8B07FD7B80E0001806F010EAF
:101556000001816F0001E551030F0001826FACECC1
:1015660013F012000001DC510001DD11D8B41200A5
:10157600DCC0D4F0DDC0D5F0D4C060F0D5C061F0D9
:101586005CEC0FF00001DF6F0001DF51020D000E71
:10159600F324D96E010EF420DA6EDE06000EDD5A53
:1015A600DE50DE10D8A443D0030E0001D16FDFC099
:1015B600D2F00001D36BD1C07DF0D2C07EF0D3C093
:1015C6007FF00001DF51020D210EF324F66E030EAB
:1015D600F420F76E01D80CD00500FA6E0900F5501C
:1015E600FD6E0900F550FE6EF850FF6EFA501200BF
:1015F6000001DF51020D010EF324F66E030EF420F6
:10160600F76E0900F5CF80F00900F5CF81F00001F3
:10161600801D0001826F0001811D0001836F0001A2
:1016260082510001DC17000183510001DD17000122
:10163600DF51020D010EF324F66E030EF420F76E51
:101646000900F5CF80F00900F5CF81F00001801D7B
:101656000001826F0001811D0001836F000182512C
:101666000001D417000183510001D5170001D451A0
:101676000001D511D8B412007FD7000E0001C46F47
:101686006DD0020E0001BA19D8A473D063D0090E2A
:101696000001BA19D8A46DD044EC14F060C0CDF0A6
:1016A60061C0CEF062C0CFF063C0D0F0CDC060F0B4
:1016B600CEC061F0CFC062F0D0C063F041EC12F052
:1016C600020E49D0030E0001BA19D8A452D0FF0E5B
:1016D6000001BD6FFF0E0001BE6F0001E751000162
:1016E600BF6FC06B0001BD510001BF270001BE5195
:1016F6000001C0230001E42BE4050001C16FC26BA9
:101706000001BF510001C15D0001C251800A000104
:10171600C36F0001C051800A0001C359D8B01AD066
:10172600040E0001D827000ED92344EC14F060C043
:10173600CDF061C0CEF062C0CFF063C0D0F0CDC0B6
:1017460060F0CEC061F0CFC062F0D0C063F041EC73
:1017560012F00FD0010E0001E16F0BD00001E15134
:10176600000AD8B48ED7010AD8B491D7030AD8B4E0
:10177600A9D7C4C0BAF0C5C0BBF0C6C0BCF0120041
:101786006BD0DAC060F0DBC061F05CEC0FF00001FA
:10179600CB6F0001CB51030D5C0EF324F66E030EE6
:1017A600F420F76E0900F5CF6CF00A00F5CF6DF066
:1017B600F60E00016E6F000E00016F6F8EEC09F0E1
:1017C6000009D8A41FD00001CB51020D010EF3244D
:1017D600F66E030EF420F76E0900F5CFC7F0090088
:1017E600F5CFC8F00001C71D0001C96F0001C81D73
:1017F6000001CA6F0001C9510001DA170001CA5180
:101806000001DB17F6C0BAF0F7C0BBF0F8C0BCF0B9
:101816000001CB51040D020EF326000EF422500EE9
:10182600F324F66E030EF420F76E01D80CD00500F3
:10183600FA6E0900F550FD6E0900F550FE6EF8507F
:10184600FF6EFA501200BA0ED96E000EDA6EDF5035
:10185600D8B402D0020E12005EEC14F00009D8B41F
:1018660006D00001DA510001DB11D8A48AD7B8EC02
:1018760012F0F2D781C062F082C063F091EC14F0EE
:10188600000E0001836F020E0001836501D066D051
:1018960000018351040D500EF324F66E030EF4205E
:1018A600F76E0900F5500900F510D8B413D0000101
:1018B6008351040D020EF326000EF422500EF3247B
:1018C600F66E030EF420F76E0900F5500900F510C8
:1018D600D8A402D0030E120000018351030D5C0E42
:1018E600F324F66E030EF420F76E0900F5CF60F0D0
:1018F6000A00F5CF61F000018351030D020EF326B5
:10190600000EF4225C0EF324F66E030EF420F76E3E
:101916000800F5CF62F01FEC13F000018351040DAF
:10192600500EF324F66E030EF420F76E01D80ED097
:101936000500FA6E0900F550FD6E0900F550FE6EC1
:10194600F850FF6EFA50000183511200E806D8B431
:1019560002D0050E12000001832B95D7000E12004F
:101966006CC075F06DC076F075C0D9FF76C0DAFF31
:10197600000110EE02F07551E1267651E222DE50AA
:10198600E65CD8B05CD0F2CF74F0F29E75C0D9FF99
:1019960076C0DAFFDF500001716F0001715100015E
:1019A600626F636B000120EE02F07551D926765105
:1019B600DA22DF500001726F000120EE01F075514E
:1019C600D9267651DA22DF500001736F0001735178
:1019D600000172250001606F0001616B0001613733
:1019E600AEEC0FF0010E000160250001666F000EDF
:1019F600000161210001676F000E0001696F030E8F
:101A0600686F77EC13F00001665100016C25D96E02
:101A16000001675100016D21DA6E6EC0DEFF6FC0F6
:101A2600DEFF70C0DEFF000120EE02F07551D92600
:101A36007651DA22DF2A74C0F2FF010E1200000E80
:101A460012000600E9CF28F0EACF29F0E1CF2AF00C
:101A5600E2CF2BF0D9CF2CF0DACF2DF0F3CF2EF04A
:101A6600F4CF2FF0F6CF30F0F7CF31F0F8CF32F0D9
:101A7600F5CF33F09EA415D0BF50246EBE50386EFD
:101A860024C039F0200E38243A6E4E0E39203B6EB3
:101A96003B50BF6E3AC0BEFF9E940001E92B3C4A04
:101AA6003D2A9EA603D09E965AEC13F0A4A403D01A
:101AB600A494B1EC14F0A4A003D0A49098EC14F074
:101AC600A4AA03D0A49AB7EC14F0A4AE03D0A49EA3
:101AD600B8EC14F033C0F5FF32C0F8FF31C0F7FFA1
:101AE60030C0F6FF2FC0F4FF2EC0F3FF2DC0DAFF83
:101AF6002CC0D9FF2BC0E2FF2AC0E1FF29C0EAFFB4
:101B060028C0E9FF27C0FBFF26C0FAFF5C92110040
:101B1600000E0001BD6F4BD0020E0001BA19D8A409
:101B260054D0DDEC13F0010E0001E36F050E000149
:101B3600C06FC0C07DF0C1C07EF0C2C07FF069EC4E
:101B460014F043D0050E0001BA19D8A43ED0F1EC2A
:101B560013F0020E29D0030E0001BA19D8A403D03F
:101B6600F1EC13F032D0060E0001BA19D8A403D056
:101B7600DDEC13F018D0070E0001BA19D8A425D051
:101B8600A7EC14F0030E10D0080E0001BA19D8A461
:101B960003D0F1EC13F0DDD7060E0001BA19D8A474
:101BA60014D0DDEC13F0010E0001E36F0ED000013E
:101BB600E351000AD8B4B0D7010AD8B4C3D7030A90
:101BC600D8B4C9D7010AD8B4DFD7BDC0BAF0BEC0F1
:101BD600BBF0BFC0BCF01200000E0001656F000133
:101BE60063AF08D00001626D631FD8B0632B010E8E
:101BF6000001656F000161AF08D00001606D611FD3
:101C0600D8B0612B010E0001651B000E0001676F45
:101C1600000E666F0001625100016311D8B42CD02A
:101C2600010E0001646F06D00001D8906237633759
:101C36000001642B000163AFF7D70001D890663727
:101C46006737000162510001605D000163510001C8
:101C56006159D8A00AD0000162510001605F0001FD
:101C660063510001615B000166810001D890633316
:101C760062330001642FE1D7000165510001D8B439
:101C860005D00001666D671FD8B0672B66C060F08F
:101C960067C061F0120041D051EC14F047EC10F02F
:101CA6004DD0010E9EEC14F0050E0001C06FC0C0B1
:101CB6007DF0C1C07EF0C2C07FF069EC14F03ED06A
:101CC600020E9EEC14F0050E0001C06FC0C07DF040
:101CD600C1C07EF0C2C07FF069EC14F02FD0030EB5
:101CE6009EEC14F0050E0001C06FC0C07DF0C1C0AF
:101CF6007EF0C2C07FF069EC14F020D0040E9EEC9A
:101D060014F0050E0001C06FC0C07DF0C1C07EF0AA
:101D1600C2C07FF069EC14F011D00001BA51020A7A
:101D2600D8B4BAD7080AD8B4BCD7010AD8B4D7D71A
:101D3600070AD8B4C5D7010AD8B4E0D7000E000107
:101D4600BD6FBDC0BAF0BEC0BBF0BFC0BCF01200D4
:101D56000DC016F00EC017F016C0D9FF17C0DAFF77
:101D660010EE02F01650E1261750E222DE50E65C35
:101D7600D8B046D0F2CF15F0F29E16C0D9FF17C0E4
:101D8600DAFFDF50126E1250036E046A20EE02F084
:101D96001650D9261750DA22DF50136E20EE01F0C6
:101DA6001650D9261750DA22DF50146E1450132419
:101DB600016E026A02367CEC11F0010E0124076EF8
:101DC600000E0220086E000E0A6E030E096E04EC69
:101DD60014F007500D24D96E08500E20DA6E0FC08D
:101DE600DEFF10C0DEFF11C0DEFF20EE02F016504F
:101DF600D9261750DA22DF2A15C0F2FF010E12008B
:101E0600000E12000001636F63C0E5F060C0F9F0D8
:101E1600000EE8CFB8F1000EE8CFB9F1000EE8CF1A
:101E2600BAF1000EE8CFBBF10001E5510001616F88
:101E3600626B0001D890613762370001D890613734
:101E46006237040E00016127000E6223B80E0001FE
:101E56006125D96E010E00016221DA6EFF0EDE6E7B
:101E6600FF0EDE6EFF0EDE6EFF0EDD6E0001E5512B
:101E76000001616F626B0001D89061376237000123
:101E8600D89061376237080E00016127000E622381
:101E9600B80E00016125D96E010E00016221DA6ECD
:101EA600FF0EDE6EFF0EDE6EFF0EDE6EFF0EDD6EC9
:101EB6001200800E0001676F030E0001696F0001BA
:101EC60069BF46D000016951040DF3CF62F060C0CE
:101ED60063F061C064F00001622B04D00001D89069
:101EE600643363330001622FF9D7000163510F0B8E
:101EF6000001686F000168510001D8B426D0FF0EBA
:101F06000001626FFF0E0001636F0001685100015E
:101F1600646F656B00016251000164270001635123
:101F260000016523410E00016425F66E030E65214E
:101F3600F76E0800F5CF66F000016951040DF35005
:101F4600000166250001676F03D000016907B7D756
:101F5600000167511200000E0001656F000161AFBC
:101F660008D00001606D611FD8B0612B010E000121
:101F7600656F000163AF05D00001626D631FD8B0C5
:101F8600632B0001625100016311D8B426D0010E03
:101F96000001646F06D00001D890623763370001F4
:101FA600642B000163AFF7D7000162510001605D49
:101FB6000001635100016159D8A008D000016251A7
:101FC6000001605F000163510001615B0001D89070
:101FD600633362330001642FE7D7000165510001C6
:101FE600D8B405D00001606D611FD8B0612B60C008
:101FF60060F061C061F01200D388D38AD38CD3829B
:102006009C0E0001826F3F0E816F3DEC0CF00001CB
:10201600CC6F0001CC510001D8A429D0C3EC0BF041
:102026000001CC6F24D06B0E0001606F030E00011F
:10203600616F92EC13F027D0860E0001606F030EDD
:102046000001616F92EC13F01ED09E0E0001606FCE
:10205600030E0001616F92EC13F015D0B50E00016E
:10206600606F030E0001616F92EC13F00CD000015B
:10207600CC51010AD8B4D7D7020AD8B4DDD7060A9C
:10208600D8B4E3D7EBD7FFD7800E6F6E6EAEFED710
:10209600200E736E718E709070827084709671903F
:1020A6007192719471967198719A7280729272940B
:1020B600709C6094609A609C000E0F01006F080E81
:1020C6000F01016F000E0F01026F010E0F01036F6A
:1020D600000E0F01186F000E0F01196F000E0F0191
:1020E6001A6F010E0F011B6F000E776E100E6F6ECA
:1020F6006EBEFED7A380A38AA38EA490A49AA49EA4
:10210600A384A4940F014097609E12000001646F9F
:10211600100E00016461120000016451020D210ECF
:10212600F324F66E030EF420F76E0900F55009004D
:10213600F510D8B412000001605100016111D8B445
:10214600120000016451020D000EF324D96E010E37
:10215600F420DA6E60C0DEFF61C0DDFF000164516D
:10216600020D010EF324F66E030EF420F76E09003D
:10217600F5CF62F00900F5CF63F00001625100016E
:10218600DC13000163510001DD131200560EF66EDA
:10219600290EF76E000EF86E00EEFAF010EE06F05D
:1021A6000900F5CFEEFFE550E150FAE1720EF66E4A
:1021B600290EF76E000EF86E0900F5CF5BF001EE02
:1021C600B8F011EE3CF0EE6AE550E150FCE1E25069
:1021D600FAE101EE00F0B80EEE6AE806FDE100EE67
:1021E600CDF02D0EEE6AE806FDE100EE34F0270E86
:1021F600EE6AE806FDE15C905C92000EF86E000166
:10220600FFEF0FF0000E0001716F000E706F0001FE
:102216006E5100016F11D8B42CD0010E0001726FFF
:1022260006D00001D8906E376F370001722B00017F
:102236006FAFF7D70001D8907037713700016E5134
:1022460000016C5D00016F5100016D59D8A00AD0E4
:1022560000016E5100016C5F00016F5100016D5B62
:10226600000170810001D8906F336E330001722F28
:10227600E1D770C06CF071C06DF0120000017C6F88
:10228600030E00017C6133D000017C51030D5C0E0E
:10229600F324F66E030EF420F76E0900F5CF6CF00A
:1022A6000A00F5CF6DF077C06EF078C06FF079C098
:1022B60070F0B3EC0CF0E806D8A419D000017C51FC
:1022C600020D010EF324F66E030EF420F76E0900DC
:1022D600F5CF7AF00900F5CF7BF000017A510001C5
:1022E600DA1300017B510001DB13010E1200000E10
:1022F6001200000E066E02AE06D0016C021ED8B0A9
:10230600022A010E066E04AE04D0036C041ED8B079
:10231600042A03500410D8B418D0010E056E04D058
:10232600D89003360436052A04AEFAD70350015C6A
:1023360004500258D8A004D00350015E0450025A3B
:10234600D89004320332052EF1D70650D8B404D003
:10235600016C021ED8B0022A01C001F002C002F0D0
:1023660012001D6E030E1D602FD01D50030D5C0E56
:10237600F324F66E030EF420F76E0900F5CF0DF088
:102386000A00F5CF0EF018C00FF019C010F01AC0F1
:1023960011F0ABEC0EF0E806D8A416D01D50020DD5
:1023A600010EF324F66E030EF420F76E0900F5CF46
:1023B6001BF00900F5CF1CF01B500001DA131C506E
:1023C6000001DB13010E1200000E12006150D8A4AA
:1023D6001200180E6218D8A412006350D8A4120076
:1023E6006404D8A4120009D00A0E05D00B0E03D03F
:1023F6000C0E01D00D0E216E0DD06650000AD8B419
:10240600F3D7010AD8B4F4D7030AD8B4EFD7010A30
:10241600D8B4F0D721C01EF022C01FF023C020F090
:102426007FEC14F012000001806F80C0E6F0FDC062
:1024360060F04C0E05EC0FF0FB0E0001606F000E15
:102446000001616F4C0E0001626F8AEC14F0000E01
:102456000001E36F020E00017D6F7DC077F07EC044
:1024660078F07FC079F00001E65141EC11F0E80602
:10247600D8A402D0010E1200000E1200040E0001B4
:10248600FA19D8A408D060C034F061C035F062C033
:1024960036F063C037F00001FA070001FA51080D63
:1024A600F35060C064F061C065F062C066F063C05E
:1024B60067F00001E82A05D0D890673366336533A4
:1024C6006433E82EF9D700016451C96E1200000189
:1024D600646F0F0E0001646501D0120000016451A3
:1024E600020D010EF324F66E030EF420F76E0900BA
:1024F600F5CF60F00900F5CF61F00001601D000125
:10250600626F0001611D0001636F000162510001ED
:10251600DC17000163510001DD171200040E0001F3
:10252600FA19D8A408D001C034F002C035F003C0AF
:1025360036F004C037F00001FA070001FA51080D21
:10254600F35001C005F002C006F003C007F004C056
:1025560008F0E82A05D0D89008320732063205324C
:10256600E82EF9D70550C96E1200000E0001606F03
:10257600000160510001D8A4120000016051020D53
:10258600650EF324F66E030EF420F76E01D80CD018
:102596000500FA6E0900F550FD6E0900F550FE6E55
:1025A600F850FF6EFA501200E806D8B41200000187
:1025B600602BDED70001616F080E0001626F000E0E
:1025C6000001636FD8900001613500016335000199
:1025D600636F0001D8906137000160510001635DAF
:1025E600D8A004D0000160510001635F0001622F92
:1025F600E9D7000163511200000E0001626F0FD08F
:1026060000016251020D200EF324D96E010EF42052
:10261600DA6E000EDE6E000EDD6E0001622B00012A
:10262600E0510001625DD8A0EBD7200E0001606F7B
:10263600010E0001616F120060C063F061C064F0BA
:102646000001620563C0D9FF64C0DAFFDF6E0001D6
:1026560020EE01F06351D9266451DA22000EDF6EB6
:10266600000120EE02F06351D9266451DA22000EF1
:10267600DF6E12000001806F80C0E2F0AEEC14F055
:10268600000E0001E16F020E00017D6F7DC077F044
:102696007EC078F07FC079F00001E25141EC11F084
:1026A600E806D8A402D0010E1200000E12000001A6
:1026B600FA51D8A40ED0040E0001FA6F030E216E53
:1026C60021C01EF022C01FF023C020F074EC14F0CD
:1026D600120034C001F035C002F036C003F037C036
:1026E60004F091EC12F0120000016651000168033B
:1026F600F3CF6AF0F4CF6BF0000166510001690375
:10270600F35000016B270001675100016803F35085
:1027160000016B276AC066F06BC067F01200620E9C
:102726000001626F000E0001636F04D00001645166
:10273600B6EC14F060C0F6FF61C0F7FF0001604B15
:10274600612B0800F5CF64F000016451D8B4120083
:10275600EDD70001E105D8A41200000E0001E46FD8
:1027660080C0D8F081C0D9F082C0E7F0090E000120
:10277600836F83C07DF084C07EF085C07FF028EC37
:1027860014F012000001806F80C0DEF0020E00011E
:102796007D6F7DC077F07EC078F07FC079F0000154
:1027A600DE5141EC11F0E806D8A402D0010E120069
:1027B600000E1200000E0001FB6F000E6AEC12F014
:1027C600FFEC12F060C0A5F061C0A6F022EC0AF0A2
:1027D600A3EC14F0000E0001FB6F1200FFC060F0C6
:1027E6000001616B000E89EC10F00FEC04F080C064
:1027F600A5F081C0A6F022EC0AF0010E0001FB6FE5
:10280600120007500902F3CF0BF0F4CF0CF007507B
:102816000A02F3500C2608500902F3500C260BC08E
:1028260007F00CC008F01200000E826E000E8B6ED0
:102836000F0EC16E000E946E9D86000EC66E400E83
:10284600C76EC868300EC66E12005CB274EF14F024
:102856007DC077F07EC078F07FC079F00001E2514C
:1028660041EC11F01200040E9D6E400EF26E0A0E3F
:10287600BD6E010EBE6E000EBF6E210ECD6EF28EC7
:102886001200D8C0D9FFD9C0DAFFDECF60F0DECFA4
:1028960061F0DECF62F0DECF63F01200000E816ED3
:1028A600000E8A6E93949386000E806E000E896EDB
:1028B600000E926E120004D0B5EC0AF00001E90792
:1028C6000001E951D8A4F8D7010E12007DC077F0B7
:1028D6007EC078F07FC079F00001E65141EC11F03E
:1028E60012001EC018F01FC019F020C01AF0000117
:1028F600E251B4EC11F012001EC018F01FC019F01E
:1029060020C01AF00001DE51B4EC11F0120060C0D4
:10291600D6F061C0D7F062C0E0F0120062C060F08D
:1029260063C061F036EC14F0120060AE1200E9EC00
:1029360011F0609E12000001606F60C0FCF0120092
:10294600000E0001E86F1200000E6AEC12F0120091
:102956000300FF1F000117EC14F012000F0140974F
:0D2966001200000E12001200120012001FDD
:020000040020DA
:08000000FFFFFFFFFFFFFFFF00
:020000040030CA
:0E000000FF08191EFF8085FF0FC00FE00F40A4
:00000001FF
