:040000000BEF00F012
:100008003E82FACF26F0FBCF27F003ED07F046EF4C
:0200180008F0EE
:1003000000010002000400080010002000400080EE
:10031000000001000200040008001000200040005E
:10032000808A172217000000000000000000000073
:1003300000000000000000000000000000000000BD
:10034000000001010202020203030303030303038B
:100350007C138E0C72155C05A00004AC00040E1812
:100360008A1722174661696C6564206F6E2061747C
:1003700074656D707420746F20506F73740A00463A
:1003800061696C6564206F6E204E554C4C20706F17
:10039000696E7465720A004661696C656420496E15
:1003A000697469616C697A6174696F6E0A004F746F
:1003B000686572204661696C7572650A000000010B
:1003C00020EE01F08D51D9268E51DA22DF50000146
:1003D000CF6F000120EE02F08D51D9268E51DA2226
:1003E000DF500001CA6F9FD0000E0001D06F55D0C2
:1003F00000019E510001D019D8B40AD0000E0001AE
:10040000CB6F000ECC6F000ECD6F000ECE6F1ED0E6
:10041000800E0001C66F010E0001C76FD890000169
:100420008435D96E00018535DA6ED890D936DA3642
:100430000001C651D9260001C751DA22DECFCBF028
:10044000DECFCCF0DECFCDF0DECFCEF0000E00015F
:10045000CB110001C66F000E0001CC110001C76F67
:10046000000E0001CD110001C86FFF0E0001CE117A
:100470000001C96F0001D051040D800EF324D96E24
:10048000020EF420DA6EC6C0DEFFC7C0DEFFC8C0B1
:10049000DEFFC9C0DEFF0001D02B00019651000134
:1004A000D05DD8A0A5D7010E00019E250001BB6F2D
:1004B0000001BC6B000EBC2396C0BDF00001BE6BFA
:1004C000A8EC07F00001BB5100019E6F00019E5196
:1004D0000001D8A43CD0010E000184250001BB6FAF
:1004E000000E000185210001BC6F000E0001862175
:1004F0000001BD6F000E000187210001BE6F0D0ECF
:100500000001BF6F000EC06F000EC16F000EC26F02
:10051000F9EC07F0BBC084F0BCC085F0BDC086F02C
:10052000BEC087F014D00001CF51000AD8B40FD05C
:10053000010AD8B40CD0030AD8B409D0010AD8B43F
:1005400006D0070AD8B403D0FB0AD8B44DD7800E22
:100550000001C46F020E0001C56F1200000E000101
:10056000ED6F82D0020E0001E319D8A491D078D0AB
:10057000090E0001E319D8A48BD0ADEC0BF0BBC081
:1005800080F0BCC081F0BDC082F0BEC083F000012D
:100590008351F4EC0BF0020E64D0030E0001E3195A
:1005A000D8A476D000018251F4EC0BF0030E59D0A0
:1005B000030E0001E319D8A46BD000018151F4ECC3
:1005C0000BF0040E4ED0030E0001E319D8A460D046
:1005D00000018051F4EC0BF0050E43D0030E000136
:1005E000E319D8A455D0FF0E0001E66FFF0E0001FD
:1005F000E76F00019D510001E86FE96B0001E651D2
:100600000001E8270001E7510001E92300019A2BCE
:100610009A050001EA6FEB6B0001E8510001EA5D09
:100620000001EB51800A0001EC6F0001E951800AE2
:100630000001EC59D8B014D0040E00018F27000E31
:100640009023ADEC0BF0BBC080F0BCC081F0BDC00E
:1006500082F0BEC083F000018351F4EC0BF09BD715
:10066000010E0001976F14D000019751000AD8B411
:1006700079D7010AD8B47CD7030AD8B48ED7010A37
:10068000D8B496D7070AD8B49ED7010AD8B4A6D74B
:10069000EDC0E3F0EEC0E4F0EFC0E5F01200C7C03B
:1006A000CFF0C8C0D0F0000120EE02F0CF51D92623
:1006B000D051DA22DF50D8B46FD0F2CFCDF0F29E15
:1006C000000120EE01F0CF51D926D051DA22DF50BF
:1006D0000001CB6F010E0001CB250001C16F0001AD
:1006E000C26B000EC223000E0001C46F030EC36F65
:1006F000D6EC0AF00001C1510001C725D96E0001F6
:10070000C2510001C821DA6EC9C0E1FFCAC0E2FFD0
:10071000DECFE6FFDECFE6FFDECFE6FF000120EE14
:1007200001F0CF51D926D051DA22DF2ACFC0D9FF2C
:10073000D0C0DAFF000110EE01F0CF51E126D05118
:10074000E222DE50E65CD8A019D0000120EE01F0D4
:10075000CF51D926D051DA22CFC0E1FFD0C0E2FF7D
:10076000E7500001BB6F000110EE01F0CF51E12610
:10077000D051E222E75058EC0AF0DF6E000120EE83
:1007800002F0CF51D926D051DA22DF06DF50000126
:10079000CE6FCDC0F2FF14D0C9C0D9FFCAC0DAFFF6
:1007A000000EDF6E000120EE01F0C951D926CA51BA
:1007B000DA22000EDE6E000EDD6E000E0001CE6F3E
:1007C0000001CE5112000001935100019411D8B4E0
:1007D000120093C08BF094C08CF08BC0BBF08CC027
:1007E000BCF056EC07F00001956F00019551020D29
:1007F000600EF324D96E000EF420DA6EDE06000ED1
:10080000DD5ADE50DE10D8A443D0030E0001886FFD
:1008100095C089F000018A6B88C0D8F089C0D9F0F2
:100820008AC0DAF000019551020D210EF324F66E14
:10083000030EF420F76E01D80CD00500FA6E090003
:10084000F550FD6E0900F550FE6EF850FF6EFA503F
:10085000120000019551020D010EF324F66E030EF5
:10086000F420F76E0900F5CFDBF00900F5CFDCF0DE
:100870000001DB1D0001DD6F0001DC1D0001DE6FEA
:100880000001DD51000193170001DE5100019417B2
:1008900000019551020D010EF324F66E030EF420B3
:1008A000F76E0900F5CFDBF00900F5CFDCF00001B1
:1008B000DB1D0001DD6F0001DC1D0001DE6F0001AA
:1008C000DD5100018B170001DE5100018C17000182
:1008D0008B5100018C11D8B412007FD76BD091C01E
:1008E000BBF092C0BCF056EC07F00001F46F0001C1
:1008F000F451030D580EF324F66E030EF420F76E38
:100900000900F5CFC7F00A00F5CFC8F0B80E000116
:10091000C96F000E0001CA6F4FEC03F00009D8A4A4
:100920001FD00001F451020D010EF324F66E030EE8
:10093000F420F76E0900F5CFF0F00900F5CFF1F0E3
:100940000001F01D0001F26F0001F11D0001F36FC5
:100950000001F251000191170001F35100019217BB
:10096000B8C0E3F0B9C0E4F0BAC0E5F00001F4515A
:10097000040D020EF326000EF422500EF324F66E40
:10098000030EF420F76E01D80CD00500FA6E0900B2
:10099000F550FD6E0900F550FE6EF850FF6EFA50EE
:1009A0001200E30ED96E000EDA6EDF50D8B402D01A
:1009B000020E1200BAEC0BF00009D8B406D0000108
:1009C000915100019211D8A48AD733EC0AF0F2D7E2
:1009D0000001BD6FBDC09BF0000E0101006F000E55
:1009E000016F000E026F000E036F00019B510001AA
:1009F000BB6FBC6B0001D890BB37BC370001D890EF
:100A0000BB37BC37040E0001BB27000EBC23000E11
:100A10000001BB25D96E010E0001BC21DA6EFF0E6C
:100A2000DE6EFF0EDE6EFF0EDE6EFF0EDD6E000E62
:100A30000201006F000E016F000E026F000E036FC7
:100A400000019B510001BB6FBC6B0001D890BB370C
:100A5000BC370001D890BB37BC37040E0001BB2760
:100A6000000EBC23000E0001BB25D96E020E000152
:100A7000BC21DA6EFF0EDE6EFF0EDE6EFF0EDE6E46
:100A8000FF0EDD6E010E0001BE6F13D00001BE51DE
:100A9000040D000EF324D96E020EF420DA6E000E5F
:100AA000DE6E000EDE6E000EDE6EE00EDD6E00010C
:100AB000BE2B0001BE5100019B5DD8A01200E6D7FD
:100AC000DCC0BDF0DDC0BEF0EDEC0BF0000E0001AF
:100AD000DE6F010E0001DE6501D066D00001DE513F
:100AE000040D500EF324F66E030EF420F76E090089
:100AF000F5500900F510D8B413D00001DE51040DF3
:100B0000020EF326000EF422500EF324F66E030EAE
:100B1000F420F76E0900F5500900F510D8A402D0B2
:100B2000030E12000001DE51030D580EF324F66E81
:100B3000030EF420F76E0900F5CFBBF00A00F5CFE5
:100B4000BCF00001DE51030D020EF326000EF4226C
:100B5000580EF324F66E030EF420F76E0800F5CF5E
:100B6000BDF09BEC0AF00001DE51040D500EF324A1
:100B7000F66E030EF420F76E01D80ED00500FA6E63
:100B80000900F550FD6E0900F550FE6EF850FF6E3D
:100B9000FA500001DE511200E806D8B402D0050E6A
:100BA00012000001DE2B95D7000E1200C7C0D0F056
:100BB000C8C0D1F0D0C0D9FFD1C0DAFF000110EE1B
:100BC00002F0D051E126D151E222DE50E65CD8B0ED
:100BD0005CD0F2CFCFF0F29ED0C0D9FFD1C0DAFF07
:100BE000DF500001CC6F0001CC510001BD6FBE6B26
:100BF000000120EE02F0D051D926D151DA22DF5087
:100C00000001CD6F000120EE01F0D051D926D15165
:100C1000DA22DF500001CE6F0001CE510001CD2558
:100C20000001BB6F0001BC6B0001BC37A8EC07F0F2
:100C3000010E0001BB250001C16F000E0001BC21A7
:100C40000001C26F000E0001C46F030EC36FD6EC2B
:100C50000AF00001C1510001C725D96E0001C2513F
:100C60000001C821DA6EC9C0DEFFCAC0DEFFCBC0FA
:100C7000DEFF000120EE02F0D051D926D151DA2258
:100C8000DF2ACFC0F2FF010E1200000E1200000E8C
:100C90000001E66F49D0020E0001E319D8A452D03A
:100CA000010E0001996F050E0001E96FE9C0D8F04F
:100CB000EAC0D9F0EBC0DAF0C5EC0BF043D0050E7A
:100CC0000001E319D8A43ED03EEC0BF0020E29D06F
:100CD000030E0001E319D8A403D03EEC0BF032D090
:100CE000060E0001E319D8A403D075EC0BF018D060
:100CF000070E0001E319D8A425D0FDEC0BF0030E7C
:100D000010D0080E0001E319D8A403D03EEC0BF07C
:100D1000DDD7060E0001E319D8A414D075EC0BF052
:100D2000010E0001996F0ED000019951000AD8B44C
:100D3000B2D7010AD8B4C3D7030AD8B4C9D7010AB5
:100D4000D8B4DFD7E6C0E3F0E7C0E4F0E8C0E5F0F0
:100D500012000DC016F00EC017F016C0D9FF17C054
:100D6000DAFF10EE02F01650E1261750E222DE50B4
:100D7000E65CD8B046D0F2CF15F0F29E16C0D9FF8F
:100D800017C0DAFFDF50126E1250036E046A20EEB5
:100D900002F01650D9261750DA22DF50136E20EEDB
:100DA00001F01650D9261750DA22DF50146E145075
:100DB0001324016E026A023651EC09F0010E01247F
:100DC000076E000E0220086E000E0A6E030E096EFA
:100DD00051EC0BF007500D24D96E08500E20DA6E3E
:100DE0000FC0DEFF10C0DEFF11C0DEFF20EE02F0FC
:100DF0001650D9261750DA22DF2A15C0F2FF010E4D
:100E00001200000E12000600E9CF28F0EACF29F008
:100E1000E1CF2AF0E2CF2BF0D9CF2CF0DACF2DF0B2
:100E2000F3CF2EF0F4CF2FF0F6CF30F0F7CF31F034
:100E3000F8CF32F0F5CF33F09EA415D0BF50246E1A
:100E4000BE50346E24C035F0200E3424366E4E0E63
:100E50003520376E3750BF6E36C0BEFF9E940001FE
:100E60009F2B384A392A9EA603D09E96D0EC0BF0D1
:100E700033C0F5FF32C0F8FF31C0F7FF30C0F6FFD6
:100E80002FC0F4FF2EC0F3FF2DC0DAFF2CC0D9FF16
:100E90002BC0E2FF2AC0E1FF29C0EAFF28C0E9FF1A
:100EA00027C0FBFF26C0FAFF3E921100800E000112
:100EB000C26F030E0001C46F0001C4BF46D0000121
:100EC000C451040DF3CFBDF0BBC0BEF0BCC0BFF039
:100ED0000001BD2B04D00001D890BF33BE33000108
:100EE000BD2FF9D70001BE510F0B0001C36F0001E8
:100EF000C3510001D8B426D0FF0E0001BD6FFF0E14
:100F00000001BE6F0001C3510001BF6FC06B000143
:100F1000BD510001BF270001BE510001C023410E99
:100F20000001BF25F66E030EC021F76E0800F5CF55
:100F3000C1F00001C451040DF3500001C1250001AE
:100F4000C26F03D00001C407B7D70001C25112001D
:100F5000000E0001C06F0001BCAF08D00001BB6DE6
:100F6000BC1FD8B0BC2B010E0001C06F0001BEAF8A
:100F700005D00001BD6DBE1FD8B0BE2B0001BD5114
:100F80000001BE11D8B426D0010E0001BF6F06D0FB
:100F90000001D890BD37BE370001BF2B0001BEAFA6
:100FA000F7D70001BD510001BB5D0001BE5100013A
:100FB000BC59D8A008D00001BD510001BB5F0001A1
:100FC000BE510001BC5B0001D890BE33BD330001AF
:100FD000BF2FE7D70001C0510001D8B405D00001F0
:100FE000BB6DBC1FD8B0BC2BBBC0BBF0BCC0BCF041
:100FF00012000001BF510001C0110001C111000128
:10100000C211D8B43AD0010E0001C36F08D000015C
:10101000D890BF37C037C137C2370001C32B00019A
:10102000C2AFF5D70001BF510001BB5D0001C05147
:101030000001BC590001C1510001BD590001C2515C
:101040000001BE59D8A010D00001BF510001BB5F04
:101050000001C0510001BC5B0001C1510001BD5B3A
:101060000001C2510001BE5B0001D890C233C13300
:10107000C033BF330001C32FD5D7BBC0BBF0BCC04A
:10108000BCF0BDC0BDF0BEC0BEF01200E20EF66EF8
:10109000150EF76E000EF86E01EE80F010EE34F0D3
:1010A0000900F5CFEEFFE550E150FAE1080EF66ECB
:1010B000180EF76E000EF86E00EEF6F010EE05F06A
:1010C0000900F5CFEEFFE550E150FAE1140EF66E9F
:1010D000180EF76E000EF86E0900F5CF3DF002EE27
:1010E00000F0F80EEE6AE806FDE101EE00F0800E79
:1010F000EE6AE806FDE100EE60F05B0EEE6AE806DF
:10110000FDE100EE34F0090EEE6AE806FDE13E90E6
:101110003E92000EF86E00018EEF08F0D388D38A5D
:10112000D38CD3829C0E0001DD6F3F0EDC6F60EC30
:1011300005F00001F56F0001F5510001D8A429D098
:101140006EEC04F00001F56F24D0640E0001BB6F5B
:10115000030E0001BC6F0BEC0BF027D07F0E0001DB
:10116000BB6F030E0001BC6F0BEC0BF01ED0970E93
:101170000001BB6F030E0001BC6F0BEC0BF015D030
:10118000AE0E0001BB6F030E0001BC6F0BEC0BF049
:101190000CD00001F551010AD8B4D7D7020AD8B44F
:1011A000DDD7060AD8B4E3D7EBD7FFD70001BF6F6E
:1011B000100E0001BF6112000001BF51020D210E8F
:1011C000F324F66E030EF420F76E0900F5500900C3
:1011D000F510D8B412000001BB510001BC11D8B405
:1011E00012000001BF51020D600EF324D96E000EF3
:1011F000F420DA6EBBC0DEFFBCC0DDFF0001BF51D2
:10120000020D010EF324F66E030EF420F76E0900B2
:10121000F5CFBDF00900F5CFBEF00001BD510001D2
:1012200093130001BE510001941312000001D76F07
:10123000020E0001D76133D00001D751030D580EC3
:10124000F324F66E030EF420F76E0900F5CFC7F015
:101250000A00F5CFC8F0D2C0C9F0D3C0CAF0D4C0DC
:10126000CBF0D6EC05F0E806D8A419D00001D75190
:10127000020D010EF324F66E030EF420F76E090042
:10128000F5CFD5F00900F5CFD6F00001D55100011A
:1012900091130001D65100019213010E1200000EAD
:1012A0001200000E066E02AE06D0016C021ED8B00F
:1012B000022A010E066E04AE04D0036C041ED8B0E0
:1012C000042A03500410D8B418D0010E056E04D0BF
:1012D000D89003360436052A04AEFAD70350015CD1
:1012E00004500258D8A004D00350015E0450025AA2
:1012F000D89004320332052EF1D70650D8B404D06A
:10130000016C021ED8B0022A01C001F002C002F036
:1013100012001D6E020E1D602FD01D50030D580EC1
:10132000F324F66E030EF420F76E0900F5CF0DF0EE
:101330000A00F5CF0EF018C00FF019C010F01AC057
:1013400011F0A9EC06F0E806D8A416D01D50020D45
:10135000010EF324F66E030EF420F76E0900F5CFAC
:101360001BF00900F5CF1CF01B50000191131C501D
:1013700000019213010E1200000E12000001DB6F3B
:10138000DBC09CF00B0EE8EC04F0F60E0001BB6F26
:10139000000E0001BC6F0B0E0001BD6FE6EC0BF000
:1013A000000E0001996F020E0001D86FD8C0D2F074
:1013B000D9C0D3F0DAC0D4F000019C5116EC09F08A
:1013C000E806D8A402D0010E1200000E120000019F
:1013D000BF6F0F0E0001BF6501D012000001BF51A9
:1013E000020D010EF324F66E030EF420F76E0900D1
:1013F000F5CFBBF00900F5CFBCF00001BB1D00012B
:10140000BD6F0001BC1D0001BE6F0001BD51000198
:1014100093170001BE51000194171200BDC0C3F024
:10142000BEC0C4F0BBC0C1F0BCC0C2F010D0C3C0CD
:10143000D9FFC4C0DAFFC1C0E1FFC2C0E2FFDFCF05
:10144000E7FF0001C34BC42B0001C14BC22B0001BD
:10145000BF07D8A0C0070001BF29E9E10001C029EA
:10146000D8B41200E4D7000E0001BB6F0001BB51DD
:101470000001D8A412000001BB51020D5E0EF3243E
:10148000F66E030EF420F76E01D80CD00500FA6E4C
:101490000900F550FD6E0900F550FE6EF850FF6E24
:1014A000FA501200E806D8B412000001BB2BDED7B8
:1014B0000001BC6F080E0001BD6F000E0001BE6F81
:1014C000D8900001BC350001BE350001BE6F00019F
:1014D000D890BC370001BB510001BE5DD8A004D03C
:1014E0000001BB510001BE5F0001BD2FE9D7000123
:1014F000BE511200040E0001BB6F010E0001BC6F53
:10150000E1C0BDF0E2C0BEF000019B51040DF3CF7D
:10151000BFF0F4CFC0F00EEC0AF0000E0001DB6F5C
:10152000010E0001DC6F00019B51020F0001DD6F15
:1015300025EC0BF01200BBC0BEF0BCC0BFF0000138
:10154000BD05BEC0D9FFBFC0DAFFDF6E000120EECF
:1015500001F0BE51D926BF51DA22000EDF6E000124
:1015600020EE02F0BE51D926BF51DA22000EDF6E06
:1015700012000001DB6FDBC098F001EC0CF0000EF4
:101580000001976F020E0001D86FD8C0D2F0D9C009
:10159000D3F0DAC0D4F00001985116EC09F0E80657
:1015A000D8A402D0010E1200000E12000001C15199
:1015B0000001C303F3CFC5F0F4CFC6F00001C15161
:1015C0000001C403F3500001C6270001C25100010D
:1015D000C303F3500001C627C5C0C1F0C6C0C2F0A6
:1015E00012000000FF0000A5FF0000FFFF000080C8
:1015F000800000FF000000800000FFFF00008080EE
:101600000000FF00000080000000FF00FF008000DD
:10161000800000008000BD0E0001BD6F000E0001C3
:10162000BE6F04D00001BF5109EC0CF0BBC0F6FF47
:10163000BCC0F7FF0001BB4BBC2B0800F5CFBFF0CF
:101640000001BF51D8B41200EDD700019705D8A40E
:101650001200000E00019A6FDBC08FF0DCC090F02A
:10166000DDC09DF0090E0001DE6FDEC0D8F0DFC0E6
:10167000D9F0E0C0DAF091EC0BF01200FAC0BBF048
:101680000001BC6B000ED6EC08F0DFEC01F0C4C02A
:10169000E1F0C5C0E2F07AEC0AF0010E0001F66F4D
:1016A000120007500902F3CF0BF0F4CF0CF00750F3
:1016B0000A02F3500C2608500902F3500C260BC006
:1016C00007F00CC008F01200000E826E000E8B6E48
:1016D0000F0EC16E000E946E9D86000EC66E400EFB
:1016E000C76EC868320EC66E1200000E0001F66F9B
:1016F000000EE7EC09F083EC0BF0F9EC0BF0000EB8
:101700000001F66F1200000E0001DB6F020E0001F7
:10171000DC6F00019B51020F0001DD6F25EC0BF027
:1017200012003EB2DBEF0BF0D8C0D2F0D9C0D3F03C
:10173000DAC0D4F00001985116EC09F01200040E42
:101740009D6E400EF26E0A0EBD6E010EBE6E000E54
:10175000BF6E210ECD6EF28E12008FC0D9FF90C0E9
:10176000DAFFDECFBBF0DECFBCF0DECFBDF0DECFE8
:10177000BEF0120004D0E3EC03F000019F0700016B
:101780009F51D8A4F8D7010E1200D8C0D2F0D9C00A
:10179000D3F0DAC0D4F000019C5116EC09F012002D
:1017A000030E216E21C01EF022C01FF023C020F0C6
:1017B000DBEC0BF012001EC018F01FC019F020C0A7
:1017C0001AF00001985189EC09F01200BBC08DF0AD
:1017D000BCC08EF0BDC096F01200BDC0BBF0BEC054
:1017E000BCF09FEC0BF012000001BB6FBBC0C9FF47
:1017F0001200000E00019E6F1200000EE7EC09F0CF
:0D180000120064EC0BF0120000FF1F00014D
:07180E00000E120012001F82
:020000040020DA
:08000000FFFFFFFFFFFFFFFF00
:020000040030CA
:0E000000FF08191EFF8085FF0FC00FE00F40A4
:00000001FF
