:040000000BEF00F012
:100008005682FACF28F0FBCF29F09FED16F0E7EFE4
:0200180019F0DD
:1003000000010002000400080010002000400080EE
:10031000000001000200040008001000200040005E
:1003200080EC3A083B0000000000000000000000E4
:1003300000000000000000000000000000000000BD
:10034000000001010202020203030303030303038B
:1003500090360C2EF4387C28480004B8010446611D
:10036000696C6564206F6E20617474656D707420B3
:10037000746F20506F73740A004661696C65642065
:100380006F6E204E554C4C20706F696E7465720A0A
:10039000004661696C656420496E697469616C69C5
:1003A0007A6174696F6E0A004F74686572204661E5
:1003B000696C7572650A0000020E0001826F000E02
:1003C0000001846F080E0001846501D0D9D26AC093
:1003D000D9FF6BC0DAFFDF500001726F736B000151
:1003E000721F731F724B732B000184510001746FD5
:1003F000756B0001725100017427000173510001F7
:1004000075234C0E000174250001606F000E000181
:1004100075210001616F000E0001636F4C0E626F69
:10042000CEEC18F060C076F061C077F00001845126
:100430000001786F796B0001781F791F784B792B59
:100440006AC0D9FF6BC0DAFFDF5000017A6F7B6BA7
:100450000001785100017A270001795100017B23C6
:100460004C0E00017A250001606F000E00017B2117
:100470000001616F000E0001636F4C0E626FCEECE5
:1004800018F0000160510001765D00017751800A8B
:1004900000017C6F00016151800A00017C59D8A0E5
:1004A0002CD0000184510001726F736B0001721F28
:1004B000731F724B732B6AC0D9FF6BC0DAFFDF501A
:1004C0000001746F756B0001725100017427000107
:1004D0007351000175234C0E000174250001606FFB
:1004E000000E000175210001616F000E0001636FB5
:1004F0004C0E626FCEEC18F02BD06AC0D9FF6BC0E7
:10050000DAFFDF500001726F736B0001721F731FFF
:10051000724B732B000184510001746F756B0001E5
:1005200072510001742700017351000175234C0EB4
:10053000000174250001606F000E000175210001AB
:10054000616F000E0001636F4C0E626FCEEC18F00D
:1005500060C07DF061C07EF07DC081F000018251FD
:100560000001815DD8A006D0000E0001806F000E52
:100570007F6F1ED0000181510F0DF3CF60F0F4CFDB
:1005800061F082C062F00001636B6AEC17F0000159
:10059000601F0001611F0001604B612B0F0E000105
:1005A000602500017F6F000E000161210001806F56
:1005B0007FC083F000016F510001726F736B000107
:1005C000723B733BF00E731772510F0B7313F00EE7
:1005D000721700016E510001756F746B000172514A
:1005E0000001741300017351000175130001835160
:1005F00000017413000E751300018451020DF350B5
:1006000000016825D96EF45000016921DA6E74C0CA
:10061000DEFF75C0DDFF00016F510001726F736B6B
:100620000001723B733BF00E731772510F0B731383
:10063000F00E721700016E510001756F746B0001AE
:100640007251000174130001735100017513000110
:10065000835100017413000E7513000184510001D1
:10066000766F776BD890000176377737120E0001DE
:100670007627000E77230001765100016825D96E98
:100680000001775100016921DA6E74C0DEFF75C088
:10069000DDFF00016F510001726F736B0001723B4F
:1006A000733BF00E731772510F0B7313F00E72172A
:1006B00000016E510001756F746B000172510001F1
:1006C000741300017351000175130001835100017F
:1006D0007413000E7513000184510001766F776B5F
:1006E000D890000176377737260E00017627000E66
:1006F00077230001765100016825D96E00017751FA
:1007000000016921DA6E74C0DEFF75C0DDFF0001F3
:100710006F510001726F736B0001723B733BF00EFF
:10072000731772510F0B7313F00E721700016E5195
:100730000001756F746B00017251000174130001A8
:100740007351000175130001835100017413000EF1
:100750007513000184510001766F776BD89000010A
:1007600076377737380E00017627000E77230001A1
:10077000765100016825D96E000177510001692189
:10078000DA6E74C0DEFF75C0DDFF00016F5100013D
:10079000726F736B0001723B733BF00E73177251F3
:1007A0000F0B7313F00E721700016E510001756F7D
:1007B000746B000172510001741300017351000148
:1007C00075130001835100017413000E75130001AD
:1007D00084510001766F776BD890000176377737B8
:1007E0004C0E00017627000E7723000176510001A0
:1007F0006825D96E0001775100016921DA6E74C055
:10080000DEFF75C0DDFF00016F510001726F736B79
:100810000001723B733BF00E731772510F0B731391
:10082000F00E721700016E510001756F746B0001BC
:10083000725100017413000173510001751300011E
:10084000835100017413000E7513000184510001DF
:10085000766F776BD8900001763777375E0E0001A0
:100860007627000E77230001765100016825D96EA6
:100870000001775100016921DA6E74C0DEFF75C096
:10088000DDFF00016F510001726F736B0001723B5D
:10089000733BF00E731772510F0B7313F00E721738
:1008A00000016E510001756F746B000172510001FF
:1008B000741300017351000175130001835100018D
:1008C0007413000E7513000184510001766F776B6D
:1008D000D890000176377737720E00017627000E28
:1008E00077230001765100016825D96E0001775108
:1008F00000016921DA6E74C0DEFF75C0DDFF000102
:100900006F510001726F736B0001723B733BF00E0D
:10091000731772510F0B7313F00E721700016E51A3
:100920000001756F746B00017251000174130001B6
:100930007351000175130001835100017413000EFF
:100940007513000184510001766F776BD890000118
:1009500076377737840E00017627000E7723000163
:10096000765100016825D96E000177510001692197
:10097000DA6E74C0DEFF75C0DDFF0001842B22D566
:100980006AC0D9FF6BC0DAFFDF500001726F010E41
:10099000000172250001606F0001616B000E612390
:1009A000000E0001636F190E626FCEEC18F00001AB
:1009B00060516AC0D9FF6BC0DAFFDF6E1200000E13
:1009C0000001836F120E0001836501D043D14C0EEC
:1009D000000183250001606F0001616B000E61233F
:1009E000000E0001636F4C0E626FCEEC18F060C019
:1009F00072F061C073F0000183510001746F756B78
:100A00000001741F751F744B752B4C0E000174256B
:100A10000001606F000E000175210001616F000E82
:100A20000001636F4C0E626FCEEC18F00001605154
:100A30000001725D00017351800A0001766F0001B0
:100A40006151800A00017659D8A01CD00001835161
:100A50000001726F736B0001721F731F724B732B57
:100A60004C0E000172250001606F000E0001732121
:100A70000001616F000E0001636F4C0E626FCEECDF
:100A800018F010D04C0E000183250001606F0001AA
:100A9000616B000E6123000E0001636F4C0E626FEC
:100AA000CEEC18F060C079F061C07AF079C082F0C5
:100AB000040E0001826506D0000E00017C6F000E5E
:100AC0007B6F1FD0000182510F0DF3CF60F0F4CF88
:100AD00061F0000E0001636F050E626F6AEC17F0A3
:100AE0000001601F0001611F0001604B612B0F0EB0
:100AF0000001602500017B6F000E000161210001F3
:100B00007C6F7BC081F000016F510001726F736BCD
:100B10000001723B733BF00E731772510F0B73138E
:100B2000F00E721700016E510001756F746B0001B9
:100B3000725100017413000173510001751300011B
:100B4000815100017413000E75136AC0D9FF6BC088
:100B5000DAFFDF500001766F000183510001762536
:100B60000001606F0001616B00016137000E000140
:100B7000636F4C0E626FCEEC18F0D89000016037B6
:100B8000000161370001605100016825D96E000144
:100B9000615100016921DA6E74C0DEFF75C0DDFFAE
:100BA00000016F510001726F736B0001723B733B68
:100BB000F00E731772510F0B7313F00E72170001C2
:100BC0006E510001756F746B000172510001741356
:100BD000000173510001751300018151000174136C
:100BE000000E75136AC0D9FF6BC0DAFFDF50000139
:100BF000766F0001765183C077F00001786B0001B9
:100C00007727000E7823260E000177250001606FFC
:100C1000000E000178210001616F000E0001636F7A
:100C20004C0E626FCEEC18F0D890000160370001D6
:100C300061370001605100016825D96E00016151E2
:100C400000016921DA6E74C0DEFF75C0DDFF0001AE
:100C5000832BB8D6390E0001846F4B0E00018465DA
:100C600001D043D14C0E000184250001606F0001CA
:100C7000616B000E6123000E0001636F4C0E626F0A
:100C8000CEEC18F060C072F061C073F000018451C6
:100C90000001746F756B0001741F751F744B752B09
:100CA0004C0E000174250001606F000E00017521DB
:100CB0000001616F000E0001636F4C0E626FCEEC9D
:100CC00018F0000160510001725D00017351800A4B
:100CD0000001766F00016151800A00017659D8A0A9
:100CE0001CD0000184510001726F736B0001721FF0
:100CF000731F724B732B4C0E000172250001606F45
:100D0000000E000173210001616F000E0001636F8E
:100D10004C0E626FCEEC18F010D04C0E0001842502
:100D20000001606F0001616B000E6123000E000185
:100D3000636F4C0E626FCEEC18F060C07DF061C046
:100D40007EF07DC082F0040E0001826506D0000EA8
:100D50000001806F000E7F6F1FD0000182510F0DC8
:100D6000F3CF60F0F4CF61F0000E0001636F050E69
:100D7000626F6AEC17F00001601F0001611F000143
:100D8000604B612B0F0E0001602500017F6F000E8C
:100D9000000161210001806F7FC081F000016F516F
:100DA0000001726F736B0001723B733BF00E73179F
:100DB00072510F0B7313F00E721700016E51000188
:100DC000756F746B0001725100017413000173514F
:100DD000000175130001815100017413000E751399
:100DE0006AC0D9FF6BC0DAFFDF500001766F0001E7
:100DF0008451000176250001606F0001616B0001E4
:100E00006137000E0001636F4C0E626FCEEC18F07C
:100E1000D890000160370001613700016051000186
:100E20006825D96E0001615100016921DA6E74C034
:100E3000DEFF75C0DDFF00016F510001726F736B43
:100E40000001723B733BF00E731772510F0B73135B
:100E5000F00E721700016E510001756F746B000186
:100E600072510001741300017351000175130001E8
:100E7000815100017413000E75136AC0D9FF6BC055
:100E8000DAFFDF500001766F0001765184C077F001
:100E90000001786B00017727000E7823DA0E00013D
:100EA00077250001606FFF0E000178210001616F5E
:100EB000000E0001636F4C0E626FCEEC18F0D890FC
:100EC00000016037000161370001605100016825B1
:100ED000D96E0001615100016921DA6E74C0DEFF34
:100EE00075C0DDFF0001842BB8D66AC0D9FF6BC086
:100EF000DAFFDF500001726F010E00017225000160
:100F0000606F0001616B000E6123000E0001636FD2
:100F10004C0E626FCEEC18F0000160516AC0D9FF30
:100F20006BC0DAFFDF6E120073C0D9FF74C0DAFF46
:100F3000DECF75F0DECF76F0DECF77F0DECF78F063
:100F400076C075F077C076F078C077F00001786BE6
:100F500075C08DF076C08EF073C0D9FF74C0DAFF13
:100F6000DECF75F0DDCF76F0F00E000175150001D3
:100F70009F6F0001A06B9FC075F0A0C076F0040EBB
:100F80000001776F0001D890763375330001772F19
:100F9000F9D70001755100019F270001765100012A
:100FA000A02373C0D9FF74C0DAFFDECF75F0DDCFA8
:100FB00076F00F0E000175150001A36F0001A46B00
:100FC000A3C075F0A4C076F00001753B763BF00E2F
:100FD000761775510F0B7613F00E751700017551CA
:100FE0000001A327000176510001A42300019F51B5
:100FF0000001A011D8A40DD0A3C097F0A4C098F010
:1010000097C095F098C096F095C093F096C094F074
:1010100029D18DC06CF08EC06DF0000E00016F6F95
:101020002B0E6E6F64EC1AF06CC08FF06DC090F0F8
:101030008FC066F090C067F0000E0001696F2B0E44
:10104000686FB4EC1CF00001661F0001671F00010F
:10105000664B672B00018D510001662500019D6FD5
:1010600000018E510001672100019E6F9DC066F056
:101070009EC067F0000E0001696F060E686FB4EC49
:101080001CF066C091F067C092F09FC075F0A0C0E0
:1010900076F00001751F761F754B762BFF0E000151
:1010A00075250001666F000E000176210001676F53
:1010B000A3C068F0A4C069F0B4EC1CF00001675153
:1010C0000001A16FA26B9FC066F0A0C067F091C045
:1010D00068F092C069F0B4EC1CF0000167C066F0E3
:1010E0000001676B0001661F0001671F0001664B6E
:1010F000672BFF0E0001662500019D6F000E0001A9
:10110000672100019E6F9DC066F09EC067F0A3C07E
:1011100068F0A4C069F0B4EC1CF000016751000154
:10112000996F9A6B91C075F092C076F00001751FAF
:10113000761F754B762BFF0E000175250001666F3B
:10114000000E000176210001676F9FC068F0A0C00B
:1011500069F0B4EC1CF0000167C066F00001676B39
:101160000001661F0001671F0001664B672BFF0E21
:101170000001662500019D6F000E0001672100013E
:101180009E6F9DC066F09EC067F0A3C068F0A4C0CB
:1011900069F0B4EC1CF00001675100019B6F9C6B7F
:1011A00046D0A3C093F0A4C094F09BC095F09CC01F
:1011B00096F008D099C093F09AC094F0A3C095F02F
:1011C000A4C096F0A1C097F0A2C098F04BD0A1C0E7
:1011D00093F0A2C094F0A3C095F0A4C096F09BC079
:1011E00097F09CC098F03ED0A1C093F0A2C094F0BC
:1011F00099C095F09AC096F008D09BC093F09CC01F
:1012000094F0A1C095F0A2C096F0A3C097F0A4C03E
:1012100098F028D0A3C093F0A4C094F0A1C095F09A
:10122000A2C096F099C097F09AC098F01BD08FC0DA
:1012300075F090C076F000017651000AD8A4EAD784
:1012400000017551000AD8B4ACD7010AD8B4B2D79E
:10125000030AD8B4BCD7010AD8B4C6D7070AD8B491
:10126000CCD7D8D7000195510001756F0001965178
:101270000001766F0001776B0001786B77C078F022
:1012800076C077F075C076F00001756B000197515C
:101290000001796F0001985100017A6F00017B6BAA
:1012A00000017C6B7AC07CF079C07BF000017A6B26
:1012B000796B73C0D9FF74C0DAFF000EDE14000131
:1012C0007D6F000EDE1400017E6F000EDE14000143
:1012D0007F6FFF0EDE140001806F00017951000165
:1012E0007D110001816F00017A5100017E11000122
:1012F000826F00017B5100017F110001836F0001AB
:101300007C51000180110001846F000175510001C2
:1013100081110001856F00017651000182110001E9
:10132000866F00017751000183110001876F000172
:101330007851000184110001886F00019351000170
:1013400085110001896F000194510001861100018F
:101350008A6F000E0001871100018B6F000E0001E3
:10136000881100018C6F73C0D9FF74C0DAFF89C087
:10137000DEFF8AC0DEFF8BC0DEFF8CC0DEFF120006
:10138000000E0001836F120E0001836501D0EFD1C2
:101390006AC0D9FF6BC0DAFFDF500001726F736B58
:1013A0000001721F731F724B732B000183510001E8
:1013B000746F756B00017251000174270001735145
:1013C000000175234C0E000174250001606F000EB2
:1013D000000175210001616F000E0001636F4C0E6A
:1013E000626FCEEC18F060C076F061C077F000015B
:1013F00083510001786F796B0001781F791F784B5A
:10140000792B6AC0D9FF6BC0DAFFDF5000017A6F19
:101410007B6B0001785100017A27000179510001AE
:101420007B234C0E00017A250001606F000E000145
:101430007B210001616F000E0001636F4C0E626F33
:10144000CEEC18F0000160510001765D000177518B
:10145000800A00017C6F00016151800A00017C5903
:10146000D8A02CD0000183510001726F736B000172
:10147000721F731F724B732B6AC0D9FF6BC0DAFFE8
:10148000DF500001746F756B000172510001742709
:1014900000017351000175234C0E000174250001F9
:1014A000606F000E000175210001616F000E0001E8
:1014B000636F4C0E626FCEEC18F02BD06AC0D9FF70
:1014C0006BC0DAFFDF500001726F736B0001721F97
:1014D000731F724B732B000183510001746F756B86
:1014E000000172510001742700017351000175233E
:1014F0004C0E000174250001606F000E0001752183
:101500000001616F000E0001636F4C0E626FCEEC44
:1015100018F060C07DF061C07EF07DC081F0040EE7
:101520000001816506D0000E0001806F000E7F6F04
:101530001FD0000181510F0DF3CF60F0F4CF61F0A7
:10154000000E0001636F050E626F6AEC17F0000178
:10155000601F0001611F0001604B612B0F0E000135
:10156000602500017F6F000E000161210001806F86
:101570007FC082F000016F510001726F736B000138
:10158000723B733BF00E731772510F0B7313F00E17
:10159000721700016E510001756F746B000172517A
:1015A0000001741300017351000175130001825191
:1015B00000017413000E751300018351020DF350E6
:1015C00000016825D96EF45000016921DA6E74C0FB
:1015D000DEFF75C0DDFF00016F510001726F736B9C
:1015E0000001723B733BF00E731772510F0B7313B4
:1015F000F00E721700016E510001756F746B0001DF
:101600007251000174130001735100017513000140
:10161000825100017413000E751300018351000103
:10162000766F776B0001761F771F764B772BD890FC
:101630000001763777374A0E00017627000E7723B0
:101640000001765100016825D96E00017751000133
:101650006921DA6E74C0DEFF75C0DDFF00016F51D5
:101660000001726F736B0001723B733BF00E7317D6
:1016700072510F0B7313F00E721700016E510001BF
:10168000756F746B00017251000174130001735186
:10169000000175130001825100017413000E7513CF
:1016A000000183510001766F776BD8900001763787
:1016B00077374C0E00017627000E77230001765114
:1016C00000016825D96E0001775100016921DA6EA9
:1016D00074C0DEFF75C0DDFF00016F510001726F45
:1016E000736B0001723B733BF00E731772510F0B5B
:1016F0007313F00E721700016E510001756F746B59
:10170000000172510001741300017351000175133F
:101710000001825100017413000E75130001835102
:101720000001766F776B010E00017627000E77239C
:101730000001761F771F764B772BD8900001763704
:101740007737980E00017627000E77230001765137
:1017500000016825D96E0001775100016921DA6E18
:1017600074C0DEFF75C0DDFF0001832B0CD66AC09C
:10177000D9FF6BC0DAFFDF500001726F010E00016C
:1017800072250001606F0001616B000E6123000E85
:101790000001636F190E626FCEEC18F0000160510A
:1017A0006AC0D9FF6BC0DAFFDF6E12000A0E0001BB
:1017B0008B6F0F0E00018D6F000E00018F6F4B0EAF
:1017C00000018F6501D05AD1000E00017E6F250EF9
:1017D0007D6F000E0001806F250E7F6F7FC072F05D
:1017E00080C073F00001721F731F724B732B0001D6
:1017F0008F510001746F756B0001725100017427E5
:1018000000017351000175234C0E00017425000185
:10181000606F000E000175210001616F000E000174
:10182000636F4C0E626FCEEC18F060C076F061C052
:1018300077F000018F510001786F796B0001781FFC
:10184000791F784B792B00017D5100017827000129
:101850007E51000179234C0E000178250001606F54
:10186000000E000179210001616F000E0001636F1D
:101870004C0E626FCEEC18F0000160510001765DF5
:1018800000017751800A00017A6F00016151800ADE
:1018900000017A59D8A029D0000E0001826F250ED0
:1018A000816F00018F510001726F736B0001721F15
:1018B000731F724B732B00018151000172270001CD
:1018C0008251000173234C0E000172250001606FEC
:1018D000000E000173210001616F000E0001636FB3
:1018E0004C0E626FCEEC18F02CD0000E0001846F0D
:1018F000250E836F83C072F084C073F00001721FE5
:10190000731F724B732B00018F510001746F756B45
:101910000001725100017427000173510001752309
:101920004C0E000174250001606F000E000175214E
:101930000001616F000E0001636F4C0E626FCEEC10
:1019400018F060C07BF061C07CF07BC08EF00001BD
:101950008B5100018E5DD8A04BD000018D5100014C
:101960008E5DD8A006D0000E0001886F000E876F34
:101970003AD06AC0D9FF6BC0DAFFDF500001726F46
:101980000001725100018E03F3CF60F0F4CF61F0DB
:101990008DC062F00001636B6AEC17F00001601FFC
:1019A0000001611F0001604B612B6AC0D9FF6BC051
:1019B000DAFFDF500001736F746B000160510001AA
:1019C00073270001615100017423040E0001756F3B
:1019D00000017435743373330001752FF9D773C068
:1019E00087F074C088F087C085F088C086F010D07A
:1019F0006AC0D9FF6BC0DAFFDF500001726F0001CF
:101A0000723B0F0E7217000172510001856F866BD9
:101A100085C08CF000016F510001726F736B000183
:101A2000723B733BF00E731772510F0B7313F00E72
:101A3000721700016E510001756F746B00017251D5
:101A400000017413000173510001751300018C51E2
:101A500000017413000E751300018F51020DF35035
:101A600000016825D96EF45000016921DA6E74C056
:101A7000DEFF75C0DDFF00018F2BA1D66AC0D9FF44
:101A80006BC0DAFFDE28D8A402D0000E09D06AC0ED
:101A9000D9FF6BC0DAFF3C0EDE18D8A403D0010ECC
:101AA0000001F36F0001F3510001D8A410D06AC007
:101AB000D9FF6BC0DAFFDF500001726FF10E000139
:101AC00072250001896F00018A6BFF0E0FD06AC07A
:101AD000D9FF6BC0DAFFDF500001726F0F0E0001FB
:101AE00072250001896F00018A6B000E8A236AC08B
:101AF000D9FF6BC0DAFF89C0DFFF120077D1000E7B
:101B00000001946F4B0E0001946501D093D1000148
:101B10009451020D200EF324D96E010EF420DA6EDA
:101B2000000EDE6E000EDD6E0001942BEBD7200E52
:101B30000001606F010E0001616FF20E0001626F23
:101B4000000E0001636FE90E0001646F000E0001DA
:101B5000656F870E0001666F040E0001676F000E4F
:101B60000001686F000E0001696FC1EC11F062D1D5
:101B7000200E0001686F010E0001696FF20E000176
:101B80006A6F000E00016B6FE90E00016C6F000EB2
:101B900000016D6F870E00016E6F040E00016F6F04
:101BA000000E0001706F000E0001716FD6EC0BF09B
:101BB00041D1200E0001686F010E0001696FF20E25
:101BC00000016A6F000E00016B6FE90E00016C6F7F
:101BD000000E00016D6F200E00016E6F0F0E0001F0
:101BE0006F6F000E0001706F000E0001716F74ECDA
:101BF00010F020D1200E0001686F010E0001696F06
:101C0000F20E00016A6F000E00016B6FE90E000119
:101C10006C6F000E00016D6FAA0E00016E6F0F0E4B
:101C200000016F6FD9C070F0DAC071F021EC0FF0D5
:101C300001D1200E0001686F010E0001696FF20EE4
:101C400000016A6F000E00016B6FE90E00016C6FFE
:101C5000000E00016D6F550E00016E6F0F0E00013A
:101C60006F6FD9C070F0DAC071F021EC0FF0E2D0E4
:101C7000200E0001686F010E0001696FF20E000175
:101C80006A6F000E00016B6FE90E00016C6F000EB1
:101C900000016D6F870E00016E6F040E00016F6F03
:101CA000000E0001706F000E0001716FC0EC09F0B2
:101CB000C1D00001F251FF0DF3CF60F0F4CF61F01D
:101CC000000E0001636F4C0E626F6AEC17F00001AA
:101CD00060510001926F200E0001686F010E00013B
:101CE000696FF20E00016A6F000E00016B6FE90E62
:101CF00000016C6F000E00016D6F92C06EF00F0E50
:101D000000016F6F000E0001706F000E0001716F17
:101D1000DFEC04F08FD00001F251FF0DF3CF60F043
:101D2000F4CF61F0000E0001636F190E626F6AEC70
:101D300017F0000160510001936F200E0001686FE1
:101D4000010E0001696FF20E00016A6F000E0001C2
:101D50006B6FE90E00016C6F000E00016D6F93C098
:101D60006EF00F0E00016F6F000E0001706F000E1D
:101D70000001716FDCEC01F05DD0200E0001736F8B
:101D8000010E0001746FF20E0001756F000E00016C
:101D9000766FE90E0001776F000E0001786F000E7C
:101DA0000001796F0F0E00017A6F000E00017B6F4A
:101DB000000E00017C6FC1EC14F03CD0000E00015D
:101DC000956F4B0E0001956501D034D000019551FF
:101DD000020D200EF324D96E010EF420DA6E000EEF
:101DE000DE6E000EDD6E0001952BEBD7DBC0D9FF58
:101DF000DCC0DAFFDF50000AD8B481D6010AD8B4BB
:101E000096D6030AD8B4B4D6010AD8B412D7070AB2
:101E1000D8B4CFD6010AD8B4EDD6030AD8B428D79F
:101E2000010AD8B446D70F0AD8B475D7F70AD8B480
:101E3000A4D7C4D7200E0001906F010E0001916F4E
:101E4000120070C0D9FF71C0DAFFDF500001846F4B
:101E5000000E0001856F4B0E0001856501D025D174
:101E60006AC0D9FF6BC0DAFFDF50030B0008050F13
:101E70000001836F000184510001726F736B0001D8
:101E8000721F731F724B732B000185510001746F19
:101E9000756B00017251000174270001735100013C
:101EA00075234C0E000174250001606F000E0001C7
:101EB00075210001616F000E0001636F4C0E626FAF
:101EC000CEEC18F060C076F061C077F0000185516B
:101ED0000001786F796B0001781F791F784B792B9F
:101EE0000001845100017A6F7B6B00017851000181
:101EF0007A270001795100017B234C0E00017A25DD
:101F00000001606F000E00017B210001616F000E77
:101F10000001636F4C0E626FCEEC18F0000160514F
:101F20000001765D00017751800A00017C6F00019D
:101F30006151800A00017C59D8A029D00001855147
:101F40000001726F736B0001721F731F724B732B52
:101F5000000184510001746F756B00017251000122
:101F6000742700017351000175234C0E0001742584
:101F70000001606F000E000175210001616F000E0D
:101F80000001636F4C0E626FCEEC18F028D0000198
:101F900084510001726F736B0001721F731F724BCB
:101FA000732B000185510001746F756B0001725134
:101FB0000001742700017351000175234C0E0001CC
:101FC00074250001606F000E000175210001616F32
:101FD000000E0001636F4C0E626FCEEC18F060C013
:101FE0007DF061C07EF07DC082F000018351000170
:101FF000825DD8A006D0000E0001806F000E7F6FBA
:102000001ED0000182510F0DF3CF60F0F4CF61F0CC
:1020100083C062F00001636B6AEC17F00001601F7F
:102020000001611F0001604B612B0F0E0001602554
:1020300000017F6F000E000161210001806F7FC0F1
:1020400081F000016F510001726F736B0001723BF0
:10205000733BF00E731772510F0B7313F00E721760
:1020600000016E510001756F746B00017251000127
:1020700074130001735100017513000181510001B7
:102080007413000E751300018551020DF350000109
:102090006825D96EF45000016921DA6E74C0DEFF44
:1020A00075C0DDFF0001852BD6D66AC0D9FF6BC095
:1020B000DAFFDF500001726F010E0001722500018E
:1020C000606F0001616B000E6123000E0001636F01
:1020D0004C0E626FCEEC18F0000160516AC0D9FF5F
:1020E0006BC0DAFFDF6E1200000E0001836F4B0E33
:1020F0000001836501D026D16AC0D9FF6BC0DAFF29
:10210000DF500001726F736B0001721F731F724BFF
:10211000732B000183510001746F756B00017251C4
:102120000001742700017351000175234C0E00015A
:1021300074250001606F000E000175210001616FC0
:10214000000E0001636F4C0E626FCEEC18F060C0A1
:1021500076F061C077F0000183510001786F796BF0
:102160000001781F791F784B792B6AC0D9FF6BC0AB
:10217000DAFFDF5000017A6F7B6B000178510001BC
:102180007A270001795100017B234C0E00017A254A
:102190000001606F000E00017B210001616F000EE5
:1021A0000001636F4C0E626FCEEC18F000016051BD
:1021B0000001765D00017751800A00017C6F00010B
:1021C0006151800A00017C59D8A02CD000018351B4
:1021D0000001726F736B0001721F731F724B732BC0
:1021E0006AC0D9FF6BC0DAFFDF500001746F756BF6
:1021F0000001725100017427000173510001752321
:102200004C0E000174250001606F000E0001752165
:102210000001616F000E0001636F4C0E626FCEEC27
:1022200018F02BD06AC0D9FF6BC0DAFFDF50000175
:10223000726F736B0001721F731F724B732B00015F
:1022400083510001746F756B000172510001742796
:1022500000017351000175234C0E0001742500012B
:10226000606F000E000175210001616F000E00011A
:10227000636F4C0E626FCEEC18F060C07DF061C0F1
:102280007EF07DC082F0040E0001826506D0000E53
:102290000001806F000E7F6F1FD0000182510F0D73
:1022A000F3CF60F0F4CF61F0000E0001636F050E14
:1022B000626F6AEC17F00001601F0001611F0001EE
:1022C000604B612B0F0E0001602500017F6F000E37
:1022D000000161210001806F7FC081F000016F511A
:1022E0000001726F736B0001723B733BF00E73174A
:1022F00072510F0B7313F00E721700016E51000133
:10230000756F746B000172510001741300017351F9
:10231000000175130001815100017413000E751343
:1023200000018351020DF35000016825D96EF4506D
:1023300000016921DA6E74C0DEFF75C0DDFF0001A7
:10234000832BD5D66AC0D9FF6BC0DAFFDF500001FE
:10235000726F010E000172250001606F0001616B58
:10236000000E6123000E0001636F4C0E626FCEEC15
:1023700018F0000160516AC0D9FF6BC0DAFFDF6E50
:10238000120062C0D9FF63C0DAFFDF5000016A6F3C
:1023900000016A390F0B0001746F000E0001756FA8
:1023A0004B0E0001756501D034D00001675100016A
:1023B0006A6F6B6B00016A3B6B3BF00E6B176A51E7
:1023C0000F0B6B13F00E6A170001665100016D6F61
:1023D0006C6B00016A5100016C1300016B5100012C
:1023E0006D130001745100016C13000E6D13000198
:1023F0007551020DF35000016025D96EF4500001B3
:102400006121DA6E6CC0DEFF6DC0DDFF0001752B4F
:10241000C7D762C0D9FF63C0DAFFDE28D8A42FD0A7
:10242000000E35D0010E64C0D9FF65C0DAFFDECFE3
:102430006AF0DECF6BF0DECF6CF0DECF6DF0000126
:102440006A2500016E6F000E00016B2100016F6FA5
:10245000000E00016C210001706F000E00016D2163
:102460000001716F64C0D9FF65C0DAFF6EC0DEFF86
:102470006FC0DEFF70C0DEFF71C0DEFF0BD062C038
:10248000D9FF63C0DAFFDF50D8A404D0010E0001E9
:10249000F46FC8D764C0D9FF65C0DAFF030EDB5004
:1024A00036E1020EDB5033E1010EDB5030E1040E69
:1024B000DE5CD8B012000001F4510001D8A410D0A5
:1024C00062C0D9FF63C0DAFFDF5000016A6FF10E0E
:1024D00000016A250001726F0001736BFF0E0FD0BF
:1024E00062C0D9FF63C0DAFFDF5000016A6F0F0ED0
:1024F00000016A250001726F0001736B000E7323E7
:1025000062C0D9FF63C0DAFF72C0DFFF12001200A1
:10251000010E0001BA6F4C0E0001BA6501D083D0E4
:10252000FE0E0001A76FFF0E0001A86F0001BA5157
:102530000001A96FAA6BD8900001A937AA37000142
:10254000A7510001A9270001A8510001AA230001F9
:10255000A9510001A525D96E0001AA510001A621AB
:10256000DA6EDECFABF0DDCFACF0F0C0D9FFF1C05A
:10257000DAFFDF500001AD6FADC0AEF00001AF6B10
:10258000B06BB16BAEC0B1F00001B06BAF6BAE6BB6
:102590000001AB510001AE110001B26F0001AC515E
:1025A0000001AF110001B36F000E0001B011000176
:1025B000B46F000E0001B1110001B56F000E0001F3
:1025C000B2110001B66F000E0001B3110001B76F28
:1025D000000E0001B4110001B86FE00E0001B5114A
:1025E0000001B96F0001BA51040DC40EF324D96E75
:1025F000010EF420DA6EB6C0DEFFB7C0DEFFB8C051
:10260000DEFFB9C0DEFF0001BA51040DC40EF32491
:102610000001736F010EF4200001746F94EC07F059
:102620000001BA2B78D7C40E0001806F010E0001A3
:10263000816F4F0E0001826FE9EC1CF012006CC03C
:1026400074F06DC075F0000120EE02F07451D926CF
:102650007551DA22DF50D8B46FD0F2CF72F0F29E0B
:10266000000120EE01F07451D9267551DA22DF50B5
:102670000001706F010E000170250001666F0001FE
:10268000676B000E6723000E0001696F030E686F11
:10269000B4EC1CF00001665100016C25D96E0001FC
:1026A000675100016D21DA6E6EC0E1FF6FC0E2FF7D
:1026B000DECFE6FFDECFE6FFDECFE6FF000120EE55
:1026C00001F07451D9267551DA22DF2A74C0D9FF7E
:1026D00075C0DAFF000110EE01F07451E12675516A
:1026E000E222DE50E65CD8A019D0000120EE01F015
:1026F0007451D9267551DA2274C0E1FF75C0E2FF2A
:10270000E7500001606F000110EE01F07451E12606
:102710007551E222E7501BEC1CF0DF6E000120EE49
:1027200002F07451D9267551DA22DF06DF5000011C
:10273000736F72C0F2FF14D06EC0D9FF6FC0DAFFA2
:10274000000EDF6E000120EE01F06E51D9266F51B0
:10275000DA22000EDE6E000EDD6E000E0001736FD9
:102760000001735112000001DF510001E011D8B4E3
:102770001200DFC0D5F0E0C0D6F0D5C060F0D6C002
:1027800061F07CEC18F00001E16F0001E151020DF5
:10279000000EF324D96E010EF420DA6EDE06000E70
:1027A000DD5ADE50DE10D8A443D0030E0001D26FF4
:1027B000E1C0D3F00001D46BD2C07DF0D3C07EF075
:1027C000D4C07FF00001E151020D210EF324F66E1A
:1027D000030EF420F76E01D80CD00500FA6E090044
:1027E000F550FD6E0900F550FE6EF850FF6EFA5080
:1027F00012000001E151020D010EF324F66E030EEA
:10280000F420F76E0900F5CF80F00900F5CF81F0D4
:102810000001801D0001826F0001811D0001836F96
:10282000000182510001DF17000183510001E01710
:102830000001E151020D010EF324F66E030EF420A7
:10284000F76E0900F5CF80F00900F5CF81F00001A7
:10285000801D0001826F0001811D0001836F000156
:1028600082510001D517000183510001D6170001E4
:10287000D5510001D611D8B412007FD7000E000147
:10288000C56F6DD0020E0001BB19D8A473D063D000
:10289000080E0001BB19D8A46DD092EC1DF060C0E9
:1028A000CEF061C0CFF062C0D0F063C0D1F0CEC036
:1028B00060F0CFC061F0D0C062F0D1C063F07BECBB
:1028C0001BF0020E49D0030E0001BB19D8A452D050
:1028D000FF0E0001BE6FFF0E0001BF6F0001E75148
:1028E0000001C06FC16B0001BE510001C027000193
:1028F000BF510001C1230001E52BE5050001C26FB6
:10290000C36B0001C0510001C25D0001C351800AC8
:102910000001C46F0001C151800A0001C459D8B040
:102920001AD0040E0001D727000ED82392EC1DF018
:1029300060C0CEF061C0CFF062C0D0F063C0D1F013
:10294000CEC060F0CFC061F0D0C062F0D1C063F003
:102950007BEC1BF00FD0010E0001E26F0BD00001E9
:10296000E251000AD8B48ED7010AD8B491D7030A2D
:10297000D8B4A9D7C5C0BBF0C6C0BCF0C7C0BDF0B5
:102980001200000E0001806F4B0E0001806501D027
:1029900058D000017A5100017D6F7E6B00017D3BB4
:1029A0007E3BF00E7E177D510F0B7E13F00E7D17D0
:1029B00075C0D9FF76C0DAFFDF5000017F6F0001DC
:1029C000805100017F250001666F0001676B0001E7
:1029D0006737000E0001696F6869B4EC1CF066C0CF
:1029E0006CF067C06DF0000E00016F6F4C0E6E6FE3
:1029F00064EC1AF000016CC06DF000016C6B00011A
:102A00007D5100016C1300017E5100016D130F0E0A
:102A100000016C13000E00016D1300018051020DC6
:102A2000F35000017325D96EF45000017421DA6E61
:102A300000016CC0DEFF00016DC0DDFF0001802BD6
:102A4000A3D775C0D9FF76C0DAFFDF5000017D6FD4
:102A5000010E00017D250001606F0001616B000E19
:102A60006123000E0001636F4C0E626FCEEC18F014
:102A70000001605175C0D9FF76C0DAFFDF6E120029
:102A80006BD0DDC060F0DEC061F07CEC18F00001BE
:102A9000CC6F0001CC51030D580EF324F66E030EDB
:102AA000F420F76E0900F5CF6CF00A00F5CF6DF059
:102AB000ED0E00016E6F000E00016F6F1FEC13F042
:102AC0000009D8A41FD00001CC51020D010EF3243F
:102AD000F66E030EF420F76E0900F5CFC8F009007A
:102AE000F5CFC9F00001C81D0001CA6F0001C91D62
:102AF0000001CB6F0001CA510001DD170001CB516D
:102B00000001DE17EDC0BBF0EEC0BCF0EFC0BDF0C1
:102B10000001CC51040D020EF326000EF422500EDB
:102B2000F324F66E030EF420F76E01D80CD00500E6
:102B3000FA6E0900F550FD6E0900F550FE6EF85072
:102B4000FF6EFA501200BB0ED96E000EDA6EDF5027
:102B5000D8B402D0020E1200C6EC1DF00009D8B4A1
:102B6000FBD70001DD510001DE11D8B4F5D789D7BC
:102B700081C062F082C063F0F0EC1DF0000E000135
:102B8000836F010E0001836501D066D0000183517F
:102B9000040D500EF324F66E030EF420F76E0900B8
:102BA000F5500900F510D8B413D000018351040D7D
:102BB000020EF326000EF422500EF324F66E030EDE
:102BC000F420F76E0900F5500900F510D8A402D0E2
:102BD000030E120000018351030D580EF324F66E0C
:102BE000030EF420F76E0900F5CF60F00A00F5CF70
:102BF00061F000018351030D020EF326000EF42252
:102C0000580EF324F66E030EF420F76E0800F5CF8D
:102C100062F05CEC1CF000018351040D500EF324B3
:102C2000F66E030EF420F76E01D80ED00500FA6E92
:102C30000900F550FD6E0900F550FE6EF850FF6E6C
:102C4000FA50000183511200E806D8B402D0050EF4
:102C500012000001832B95D7000E12006CC075F096
:102C60006DC076F075C0D9FF76C0DAFF000110EEB6
:102C700002F07551E1267651E222DE50E65CD8B0D2
:102C80005CD0F2CF74F0F29E75C0D9FF76C0DAFF47
:102C9000DF500001716F000171510001626F636BC1
:102CA000000120EE02F07551D9267651DA22DF506C
:102CB0000001726F000120EE01F07551D9267651A6
:102CC000DA22DF500001736F000173510001722599
:102CD0000001606F0001616B00016137CEEC18F0FC
:102CE000010E000160250001666F000E00016121E8
:102CF0000001676F000E0001696F030E686FB4EC8E
:102D00001CF00001665100016C25D96E000167516D
:102D100000016D21DA6E6EC0DEFF6FC0DEFF70C095
:102D2000DEFF000120EE02F07551D9267651DA223D
:102D3000DF2A74C0F2FF010E1200000E120006001E
:102D4000E9CF2AF0EACF2BF0E1CF2CF0E2CF2DF043
:102D5000D9CF2EF0DACF2FF0F3CF30F0F4CF31F01F
:102D6000F6CF32F0F7CF33F0F8CF34F0F5CF35F0BF
:102D70009EA415D0BF50266EBE503A6E26C03BF0C2
:102D8000200E3A243C6E4E0E3B203D6E3D50BF6EF1
:102D90003CC0BEFF9E940001E82B3E4A3F2A9EA6FF
:102DA00003D09E9697EC1CF0A4A403D0A49413EC3B
:102DB0001EF0A4A003D0A490F7EC1DF0A4AA03D0A9
:102DC000A49A18EC1EF0A4AE03D0A49E19EC1EF039
:102DD00035C0F5FF34C0F8FF33C0F7FF32C0F6FF4F
:102DE00031C0F4FF30C0F3FF2FC0DAFF2EC0D9FF8F
:102DF0002DC0E2FF2CC0E1FF2BC0EAFF2AC0E9FF93
:102E000029C0FBFF28C0FAFF56921100000E0001F6
:102E1000BE6F4BD0020E0001BB19D8A454D068EC91
:102E20001DF0010E0001E46F050E0001C16FC1C06D
:102E30007DF0C2C07EF0C3C07FF076EC1DF043D0C1
:102E4000050E0001BB19D8A43ED039EC1DF0020ECE
:102E500029D0030E0001BB19D8A403D039EC1DF012
:102E600032D0060E0001BB19D8A403D068EC1DF0C7
:102E700018D0070E0001BB19D8A425D008EC1EF00D
:102E8000030E10D0050E0001BB19D8A403D039ECF5
:102E90001DF0DDD7060E0001BB19D8A414D068ECD4
:102EA0001DF0010E0001E46F0ED00001E451000A94
:102EB000D8B4B0D7010AD8B4C3D7030AD8B4C9D795
:102EC000010AD8B4DFD7BEC0BBF0BFC0BCF0C0C0E1
:102ED000BDF01200000E0001656F000163AF08D065
:102EE0000001626D631FD8B0632B010E0001656F96
:102EF000000161AF08D00001606D611FD8B0612B87
:102F0000010E0001651B000E0001676F000E666F69
:102F10000001625100016311D8B42CD0010E0001F0
:102F2000646F06D00001D890623763370001642BCC
:102F3000000163AFF7D70001D8906637673700010B
:102F400062510001605D0001635100016159D8A028
:102F50000AD0000162510001605F0001635100016D
:102F6000615B000166810001D89063336233000128
:102F7000642FE1D7000165510001D8B405D00001EC
:102F8000666D671FD8B0672B66C060F067C061F0E0
:102F900012000DC016F00EC017F016C0D9FF17C0F2
:102FA000DAFF10EE02F01650E1261750E222DE5052
:102FB000E65CD8B046D0F2CF15F0F29E16C0D9FF2D
:102FC00017C0DAFFDF50126E1250036E046A20EE53
:102FD00002F01650D9261750DA22DF50136E20EE79
:102FE00001F01650D9261750DA22DF50146E145013
:102FF0001324016E026A0236DBEC1AF0010E012482
:10300000076E000E0220086E000E0A6E030E096E97
:1030100002EC1DF007500D24D96E08500E20DA6E18
:103020000FC0DEFF10C0DEFF11C0DEFF20EE02F099
:103030001650D9261750DA22DF2A15C0F2FF010EEA
:103040001200000E12006150D8A41200180E62186F
:10305000D8A412006350D8A412006404D8A41200AB
:103060006628D8A42BD039D0050E236E34D0540452
:10307000D8B404D0000E226E070E03D0000E226ECC
:10308000060E216E21C023F026D0FF0EFDEC1DF0B0
:10309000050E236E000E10D04550FDEC1DF0010E04
:1030A0004524016E026A000E0222000E046E090E13
:1030B000036EDBEC1AF00150456E0DD06650000A2D
:1030C000D8B4D2D7010AD8B4D2D7030AD8B4DDD73E
:1030D000010AD8B4E1D766CF54F0675015EC1DF063
:1030E000685049EC1DF023C01EF024C01FF025C01D
:1030F00020F0DCEC1DF01200800E0001676F030E63
:103100000001696F000169BF46D000016951040DDB
:10311000F3CF62F060C063F061C064F00001622B25
:1031200004D00001D890643363330001622FF9D7D3
:10313000000163510F0B0001686F0001685100012D
:10314000D8B426D0FF0E0001626FFF0E0001636F3E
:10315000000168510001646F656B0001625100015C
:1031600064270001635100016523410E00016425BD
:10317000F66E030E6521F76E0800F5CF66F00001CC
:103180006951040DF350000166250001676F03D0FB
:1031900000016907B7D7000167511200000E000156
:1031A000656F000161AF08D00001606D611FD8B08C
:1031B000612B010E0001656F000163AF05D00001B6
:1031C000626D631FD8B0632B00016251000163116F
:1031D000D8B426D0010E0001646F06D00001D8904B
:1031E000623763370001642B000163AFF7D700013A
:1031F00062510001605D0001635100016159D8A076
:1032000008D0000162510001605F000163510001BC
:10321000615B0001D890633362330001642FE7D70C
:10322000000165510001D8B405D00001606D611F37
:10323000D8B0612B60C060F061C061F012000F0E69
:10324000C16E9C0E0001826F3F0E816FB8EC15F0CD
:103250000001CD6F0001CD510001D8A429D040EC70
:1032600015F00001CD6F24D05E0E0001606F030EDB
:103270000001616FCFEC1CF027D0790E0001606F68
:10328000030E0001616FCFEC1CF01ED0910E000107
:10329000606F030E0001616FCFEC1CF015D0A80E1B
:1032A0000001606F030E0001616FCFEC1CF00CD0C9
:1032B0000001CD51010AD8B4D7D7020AD8B4DDD75E
:1032C000060AD8B4E3D7EBD7FFD7000E066E04AEDC
:1032D00006D0036C041ED8B0042A010E066E02AE9E
:1032E00006D0016C021ED8B0022A010E061A000E8A
:1032F000086E000E076E03500410D8B41CD0010EE7
:10330000056E04D0D89003360436052A04AEFAD7E9
:10331000D890073608360350015C04500258D8A0F4
:1033200005D00350015E0450025A0780D890043241
:103330000332052EEDD70650D8B404D0076C081E12
:10334000D8B0082A07C001F008C002F0120000013E
:10335000646F100E00016461120000016451020DDF
:10336000210EF324F66E030EF420F76E0900F550DB
:103370000900F510D8B4120000016051000161117C
:10338000D8B4120000016451020D000EF324D96E6E
:10339000010EF420DA6E60C0DEFF61C0DDFF0001C7
:1033A0006451020D010EF324F66E030EF420F76E45
:1033B0000900F5CF62F00900F5CF63F0000162511A
:1033C0000001DF13000163510001E0131200180E29
:1033D000F66E3C0EF76E000EF86E00EEF3F010EE97
:1033E00007F00900F5CFEEFFE550E150FAE12C0EB1
:1033F000F66E3C0EF76E000EF86E0900F5CF54F035
:103400000900F5CF55F001EEC4F011EE3CF0EE6A84
:10341000E550E150FCE1E250FAE101EE00F0C40EAB
:10342000EE6AE806FDE100EECEF0250EEE6AE80653
:10343000FDE100EE36F01E0EEE6AE806FDE1569064
:103440005692000EF86E00011FEF19F0800E6F6E9D
:103450006EAEFED7200E736E718E7080709271907A
:103460007182718471867198718A7280708C609497
:10347000609A609C000E0F01006F080E0F01016F33
:10348000000E0F01026F010E0F01036F000E0F01FE
:10349000186F000E0F01196F000E0F011A6F010E49
:1034A0000F011B6F000E776E100E6F6E6EBEFED793
:1034B000A380A38AA38EA490A49AA49EA384A49478
:1034C0000F014097609E1200000E0001716F000E08
:1034D000706F00016E5100016F11D8B42CD0010E35
:1034E0000001726F06D00001D8906E376F3700016F
:1034F000722B00016FAFF7D70001D890703771378A
:1035000000016E5100016C5D00016F5100016D59A9
:10351000D8A00AD000016E5100016C5F00016F510C
:1035200000016D5B000170810001D8906F336E3334
:103530000001722FE1D770C06CF071C06DF0120005
:1035400000017C6F020E00017C6133D000017C51D0
:10355000030D580EF324F66E030EF420F76E0900E7
:10356000F5CF6CF00A00F5CF6DF077C06EF078C043
:103570006FF079C070F02EEC16F0E806D8A419D0E0
:1035800000017C51020D010EF324F66E030EF420AF
:10359000F76E0900F5CF7AF00900F5CF7BF0000156
:1035A0007A510001DD1300017B510001DE13010E91
:1035B0001200000E1200000E066E02AE06D0016C64
:1035C000021ED8B0022A010E066E04AE04D0036CAF
:1035D000041ED8B0042A03500410D8B418D0010E29
:1035E000056E04D0D89003360436052A04AEFAD707
:1035F0000350015C04500258D8A004D00350015E6F
:103600000450025AD89004320332052EF1D70650E6
:10361000D8B404D0016C021ED8B0022A01C001F057
:1036200002C002F012001D6E020E1D602FD01D5050
:10363000030D580EF324F66E030EF420F76E090006
:10364000F5CF0DF00A00F5CF0EF018C00FF019C03D
:1036500010F01AC011F0C9EC17F0E806D8A416D083
:103660001D50020D010EF324F66E030EF420F76ECA
:103670000900F5CF1BF00900F5CF1CF01B5000012D
:10368000DD131C500001DE13010E1200000E1200AB
:103690000001806F80C0E6F0F70E0001606F000E41
:1036A0000001616FA4EC1BF0F60E0001606F000ECC
:1036B0000001616FF80E0001626F000E0001636F80
:1036C000E7EC1DF003EC1EF0000E0001E46F020EAB
:1036D00000017D6F7DC077F07EC078F07FC079F00B
:1036E0000001E651A0EC1AF0E806D8A402D0010EC1
:1036F0001200000E1200040E0001F519D8A408D023
:1037000060C036F061C037F062C038F063C039F095
:103710000001F5070001F551080DF35060C064F099
:1037200061C065F062C066F063C067F00001E82A1E
:1037300005D0D8906733663365336433E82EF9D704
:1037400000016451C96E120060C0F0F061C0F1F078
:10375000000EE8CFC4F1000EE8CFC5F1000EE8CFAF
:10376000C6F1000EE8CFC7F1FF0EE8CFF8F2FF0E6A
:10377000E8CFF9F2FF0EE8CFFAF2FF0EE8CFFBF246
:10378000FF0EE8CFFCF2FF0EE8CFFDF2FF0EE8CF10
:10379000FEF2FF0EE8CFFFF212000001646F0F0E81
:1037A0000001646501D0120000016451020D010E98
:1037B000F324F66E030EF420F76E0900F5CF60F0E7
:1037C0000900F5CF61F00001601D0001626F00018A
:1037D000611D0001636F000162510001DF170001EC
:1037E00063510001E0171200040E0001F519D8A47E
:1037F00008D001C036F002C037F003C038F004C072
:1038000039F00001F5070001F551080DF35001C032
:1038100005F002C006F003C007F004C008F0E82A73
:1038200005D0D8900832073206320532E82EF9D793
:103830000550C96E12000001616F080E0001626F31
:10384000000E0001636FD8900001613500016335FF
:103850000001636F0001D8906137000160510001E1
:10386000635DD8A004D0000160510001635F0001D6
:10387000622FE9D7000163511200000E0001626F50
:103880004B0E0001626501D010D000016251020DA3
:10389000200EF324D96E010EF420DA6E000EDE6ED7
:1038A000000EDD6E0001622BEBD7200E0001606F71
:1038B000010E0001616F120060C063F061C064F02E
:1038C0000001620563C0D9FF64C0DAFFDF6E00014A
:1038D00020EE01F06351D9266451DA22000EDF6E2A
:1038E000000120EE02F06351D9266451DA22000E65
:1038F000DF6E12000001806F80C0E3F010EC1EF05C
:10390000000E0001E26F020E00017D6F7DC077F0B6
:103910007EC078F07FC079F00001E351A0EC1AF08E
:10392000E806D8A402D0010E1200000E1200000119
:10393000F551D8A40ED0040E0001F56F030E216ED0
:1039400021C01EF022C01FF023C020F0D1EC1DF0DA
:10395000120036C001F037C002F038C003F039C0A1
:1039600004F0F4EC1BF01200000166510001680342
:10397000F3CF6AF0F4CF6BF00001665100016903E8
:10398000F35000016B270001675100016803F350F9
:1039900000016B276AC066F06BC067F01200620E10
:1039A0000001626F000E0001636F04D000016451DA
:1039B00017EC1EF060C0F6FF61C0F7FF0001604B1E
:1039C000612B0800F5CF64F000016451D8B41200F7
:1039D000EDD70001E205D8A41200000E0001E56F4A
:1039E00080C0D7F081C0D8F082C0E7F0080E000197
:1039F000836F83C07DF084C07EF085C07FF084EC4F
:103A00001DF0120007500902F3CF0BF0F4CF0CF0B9
:103A100007500A02F3500C2608500902F3500C26F6
:103A20000BC007F00CC008F012000B6E0B505502D3
:103A3000F3CF01F0F4CF02F0000E046E036865ECE2
:103A400019F001C009F002C00AF009C0F7F0120035
:103A5000000E826E000E8B6E0F0EC16E000E946E05
:103A60009D86000EC66E400EC76EC868300EC66ECC
:103A70001200F9C060F00001616B000EA7EC19F0B4
:103A80007EEC0DF090C0A5F091C0A6F088EC12F08D
:103A90001200096E09504C0DF3CF01F0F4CF02F083
:103AA000000E046E036865EC19F001500001F86F18
:103AB0001200040E9D6E400EF26E0A0EBD6E010ED7
:103AC000BE6E000EBF6E210ECD6EF28CF28E120015
:103AD000000ECDEC1BF03DEC1CF060C0A5F061C009
:103AE000A6F088EC12F09FEC1DF0120056B2DCEF4D
:103AF0001DF07DC077F07EC078F07FC079F00001C6
:103B0000E651A0EC1AF0120056B2D1EF1DF07DC0C4
:103B100077F07EC078F07FC079F00001E351A0EC2F
:103B20001AF01200D7C0D9FFD8C0DAFFDECF60F09C
:103B3000DECF61F0DECF62F0DECF63F01200000E68
:103B40000001F26F000E0001E96F000EEA6F000E37
:103B5000EB6F000EEC6F1200000E816E000E8A6E8D
:103B600093949386000E806E000E896E000E926E06
:103B70001200000E0001F26F000E0001E96F000E4E
:103B8000EA6F000EEB6F000EEC6F120004D0B3EC86
:103B900013F00001E8070001E851D8A4F8D7010E9E
:103BA00012001EC018F01FC019F020C01AF000014A
:103BB000E35113EC1BF012001EC018F01FC019F0E7
:103BC00020C01AF00001E65113EC1BF0120060C097
:103BD000DBF061C0DCF062C0D9F063C0DAF0120043
:103BE00062C060F063C061F059EC1DF0120060AE7D
:103BF000120023EC18F0609E1200016E01C0F6F076
:103C0000B9EC1DF01200ACEC1DF026EC1AF012001D
:0F3C1000000ECDEC1BF01200010103FF1F250178
:103C200028EC1DF012000F0140971200FF1F120038
:043C3000120012006C
:020000040020DA
:08000000FFFFFFFFFFFFFFFF00
:020000040030CA
:0E000000FF02191EFF8085FF0FC00FE00F40AA
:00000001FF
