:1000000080313428003008007E14803120007F08C1
:10001000BB00111D2A28250012082000C20025005F
:1000200011082000C1004108203EC3004E30423D6F
:10003000C4004408250092002000430825009100D8
:10004000200011110130BA003A08D3070130C5076A
:100050000030C63D911D2F2891118E31AE26200013
:100060003B08FF007E100900803136283C308400B8
:100070000030850018308E3190268031A030840009
:100080000030850039308E31902680312030840058
:100090000130850046308E3190267E10200085315B
:1000A000A62D013400340234003404340034083402
:1000B00000341034003420340034403400348034B0
:1000C0000034003401340034023400340434003489
:1000D0000834003410340034203400344034003408
:1000E0008034DD340E3402340F34003400340034F4
:1000F0000034003400340034003400340034003460
:10010000003400340034003400340034003400344F
:10011000003400340034003400340034003400343F
:100120000034003401340134023402340234023425
:100130000334033403340334033403340334033407
:100140004A340734DE340F34D23407345A3402349C
:10015000543401340634CA340034043402340034D4
:1001600080340734DD340E344634613469346C3401
:100170006534643420346F346E3420346134743424
:10018000743465346D3470347434203474346F34A2
:10019000203450346F34733474340A3400344634A9
:1001A000613469346C346534643420346F346E34B3
:1001B00020344E3455344C344C34203470346F3445
:1001C00069346E347434653472340A34003446341D
:1001D000613469346C3465346434203449346E34A9
:1001E00069347434693461346C3469347A34613418
:1001F000743469346F346E340A3400344F347434D8
:1002000068346534723420344634613469346C3473
:100210007534723465340A34003423002608210012
:10022000DC00230025082100DB008731F72781311E
:100230002300AF0102302F020318B9292F08A700AD
:10024000A801A735A80DA735A80DA0302707840061
:100250008030283D85001200A9001200A90403196E
:100260004A292F08A700A801A735A80DA735A80D72
:100270002708023EA9000030283DAA00A030290727
:10028000840080302A3D85001200AB001200AB04D0
:10029000031D4C29033008002F08A700A8012708D8
:1002A0002100E000230028082100E1000330E200E3
:1002B0000030E3008F31662781312100610885001D
:1002C00060088400A83084078030853D003FE60048
:1002D000013FE70023002F08AA00AB012A082100F4
:1002E000E00023002B082100E1000330E200003091
:1002F000E3008F316627813121006008023E230030
:10030000AC0000302100613D2300AD00A8302C0777
:10031000840080302D3D85000008AE002E082100AD
:10032000E8008F314B27813123002F08A7002708D1
:10033000A0002F08A800A901A835A90DA835A90D6E
:10034000A030280784008030293D8500013F8A00C5
:10035000003F0A008131013A0319B0290530080035
:1003600001302300A7002708AF0702302F02031C2B
:100370001E2900300800210067082200E900210042
:1003800066082200E8006808860069088700423194
:10039000010803194B2A0B082100E9006908220013
:1003A000E6008B1368088600690887004131010860
:1003B000013E2100E000003003180130E10003306D
:1003C000E2000030E3008F316627813121006008B0
:1003D000660786006108673D8700403FE900413FAE
:1003E000EA00423FEB006808860087016908C03FC9
:1003F0006A08C13F6B08C23F0130E900220068086B
:1004000086006908870041312100690881072200C0
:100410006808860069088700413168088400690817
:10042000850000080102031C3A2A68088600690852
:10043000870001082100E9006908D9002200680846
:10044000860069088700413101088F31BE2781315C
:100450002100EA0022006808013E2100EB00003084
:100460002200693D2100EC006B0886006C088700C3
:100470006A08810022006808860069088700423106
:10048000403F0903C03F2100E90069082200E7005E
:1004900066088B00582A21006808860087018101C0
:1004A000680A860087010030C03FC13F2200E70193
:1004B00067080800033023002906031DA72A2A0322
:1004C0002B04031DA72A20000C1C682A0C10692A83
:1004D0000C1421004708031D7C2AFF302300AC00C8
:1004E0002C082100D900DA0100308E31EE2682314D
:1004F0002100C701C70A992A4703031D912AD90180
:10050000FF302300AC002C082100DA0000308E31CF
:10051000EE26823102302300AC002C082100C700F7
:10052000992AD901DA01FF308E31EE26823121007D
:10053000C70108302300AC002C08B0003008A00030
:100540003108A1003208A2008F3102278231210038
:100550004503031DBA2A083023002906031DEE2A8D
:100560002100C5010130C9028431152482312200E5
:100570002008EC2A21004508031DEE2A053023003F
:100580002906031DDE2A21004908031DDB2A343019
:100590002300AC002C082100C900C601C60A323075
:1005A000D9000030DA000130873110278231210074
:1005B000C501C50AEE2A0130C902E42A0930230028
:1005C0002906031DEE2A21004903FF3A333E203E4F
:1005D00086000130870001088731AC272300AD0178
:1005E0002D08A9002E08AA002F08AB000800792BBF
:1005F00021004408DA004308D90086313F268231C1
:100600002300B3003308B9003908B300B40133083C
:100610002100E000230034082100E1000330E20063
:100620000030E3008F3166278231210061088500A8
:1006300060088400A83084078030853D003F230097
:10064000B700013FB80038082100E7002300370851
:100650002100E600D6302300B30033082100E80073
:100660008131BB218231003A031D4F2B2300390811
:10067000B300B401B335B40D51303307840080307A
:10068000343D8500003FB500013FB600B509B6090D
:1006900035082100C305230036082100C4052100C8
:1006A00056082300A900210057082300AA002100B2
:1006B00058082300AB003908B300B401B335B40DBA
:1006C000B335B40D3308023EB5000030343DB600FA
:1006D000A030350784008030363D8500013F8A0018
:1006E000003F0A008331230029080319792B0230C7
:1006F00008008E31A1268231003A0319842B210093
:1007000043084404031DF82A8F319F278231792B37
:10071000200047084804031908004808C00047089B
:10072000BF0040082100DA0020003F082100D90066
:1007300086313F2683312300A30023082000CD000B
:100740004D35A03E860087010130810241310030E5
:10075000813B7F3116000104031DF72B033023007A
:10076000A30023082100C00020004D082300A3009F
:10077000A40123082100C100230024082100C20095
:1007800040082300A000210041082300A10021000F
:1007900042082300A20020004D082300A300A4016A
:1007A000A335A40D7130230784008030243D8500DB
:1007B000013F8A00003F0A00833120004D082300DA
:1007C000A300A401A335A40D513023078400803079
:1007D000243D8500003FA500013FA600A509A6090C
:1007E00025082000C705230026082000C8054D085D
:1007F0002300A300A401A335A40D513023078400D6
:100800008030243D8500003FA500013FA600A509DA
:10081000A60925082000BF05230026082000C005E2
:100820003F08400403190800912B2100DB0104302C
:100830005B020318292C5B08203E860001308700EC
:1008400081010130D9005908DB0704305B02031C29
:100850001B2CDD010B305D020318832CDE010430FC
:100860005E0203187B2C5E08031D402CFF30D9006C
:100870005D08DA000130DA35FF3E031D3B2C6A2C9F
:100880005E03031D4F2C20003C082100D9005D08A9
:10089000DA000130DA35FF3E031D4A2C6A2C0230A3
:1008A0005E06031D5F2C20003D082100D9005D0875
:1008B000DA000130DA35FF3E031D5A2C6A2C200085
:1008C0003E082100D9005D08DA000130DA35FF3E2C
:1008D000031D662C5A355E07043E203E860001301B
:1008E0008700590881000130D9005908DE0704301B
:1008F0005E02031C332C0130D9005908DD070B3090
:100900005D02031C2E2CDC0104305C02031808007D
:100910005C08303E203E86000130870081010130B6
:10092000D9005908DC07842C21006708EF0066080D
:10093000EE006E0886006F08870042316E08840062
:100940006F088500000801020318EF2C0B08EB006C
:100950006B08ED008B136E0886006F088700010896
:10096000EB00EC016B08D9006C08DA006E08860019
:100970006F08870042316E0884006F0885000131DE
:1009800000080107DB00DC01DC0D8631852684319F
:1009900021005908013EE00000305A3DE1000330DB
:1009A000E2000030E3008F3166272100600866070F
:1009B00086006108673D87006808C03F6908C13F3D
:1009C0006A08C23F0130EB006E0886006F0887009E
:1009D00042316B0881076D088B0001300800003040
:1009E000080020002108A9002008A8002808860087
:1009F000290887004231280884002908850000085A
:100A0000010203184B2D0B08A5002508A7008B1326
:100A100028088600290887000108A500A6012508E6
:100A2000F0002608F10028088600290887004231D6
:100A30002808840029088500013100080107F20018
:100A4000F301F30D8631CB2684317008013EF700A7
:100A50000030713DF8000330F9000030FA008F31AA
:100A6000302777082000200786007808213D87007E
:100A70002208C03F2308C13F2408C23F0130A5001F
:100A800028088600290887004231250881072708A1
:100A90008B0001300800003008002200EF00023017
:100AA0006F020318A42D6F08E900EA01690821000C
:100AB000E00022006A082100E1000330E20000307B
:100AC000E3008F31662785312100610885006008C9
:100AD0008400A83084078030853D003F2200ED006F
:100AE000013FEE006E082100E70022006D082100A2
:100AF000E600220066082100E800220067082100C5
:100B0000E900220068082100EA008431942485313C
:100B1000013A031DA42D22006F08E900EA01E9351E
:100B2000EA0D51306907840080306A3D8500003F3E
:100B3000EB00013FEC006B082100C30422006C08AD
:100B40002100C4040130080000300800210099157C
:100B50001916991619173F302300A5009C30A600DE
:100B600081310D2185312300BA003A08BB003B08D2
:100B7000031DE62D8231F72285312300BA003A08A1
:100B8000BB00E62DB4302100D9008030DA008F316F
:100B900082278531F22DCF302100D9008030DA0054
:100BA0008F3182278531F22DE7302100D900803046
:100BB000DA008F3182278531F22DFE302100D900F5
:100BC0008030DA008F3182278531F22D23003B08F7
:100BD000013A0319C22D023A0319CB2D063A031923
:100BE000D42DDD2DF22D2000B30002303302031886
:100BF0003D2E3308AD00AE012D08F7002E08F80099
:100C00000330F9000030FA008F3130278531780841
:100C1000850077088400A83084078030853D003F38
:100C20002000B100013FB2003208A1003108A0004D
:100C30002A08A2002B08A3002C08A4008431F12468
:100C40008531013A031D3D2E20003308AD00AE0171
:100C5000AD35AE0D51302D07840080302E3D85001E
:100C6000003FAF00013FB0002F082100C304200067
:100C700030082100C4040130080000300800803032
:100C80002100DB005B08DF000330DB005B08E100D4
:100C9000E11B832E5A08DC005908DB006108DD00E7
:100CA0000130DD35FF3E031D512E5D35890A5A2E78
:100CB000DC36DB0C890B582E5B080F39DE005E0832
:100CC000E000600803197D2E6108DB000230DB358F
:100CD000890B672E6008FF3EDC00FF3003180030F0
:100CE000DD0091305C07840080305D3D85000008A8
:100CF0005B07DE005E08DF00832EFF30DB005B0851
:100D0000E107E11F4A2E5F0808002100DF01DC1F18
:100D1000902EDB09DC09DB0A0319DC0ADF01DF0A9C
:100D2000DA1F972ED909DA09D90A0319DA0A5908FC
:100D30005A040319BE2EDE01DE0ADA1BA92E013089
:100D4000D935DA0D890BA02E0130DD005D08DE07F4
:100D50009D2E5A085C02031DAF2E59085B02031C2E
:100D6000B52E5908DB025A08DC3B0130DA36D90CC3
:100D7000890BB62E0130DE02031DA92E5F08031970
:100D8000C62EDB09DC09DB0A0319DC0A5C08DA0081
:100D90005B08D9000800F601F31FD52EF209F3090C
:100DA000F20A0319F30AF601F60AF11FDC2EF00924
:100DB000F109F00A0319F10A700871040319032FED
:100DC000F501F50AF11BEE2E0130F035F10D890B1E
:100DD000E52E0130F4007408F507E22E7108730265
:100DE000031DF42E70087202031CFA2E7008F20222
:100DF0007108F33B0130F136F00C890BFB2E01300A
:100E0000F502031DEE2E760803190B2FF209F309E4
:100E1000F20A0319F30A7308F1007208F0000800DF
:100E20002100DF0010305F02031808005F08DB00BC
:100E3000DC01DB35DC0D71305B07840080305C3D0C
:100E400085001200DD001200DD04031908005908B6
:100E50005A04031908005F35A03E8600870159082F
:100E6000C03F5A08C13F5F08DB00DC01DB35DC0D09
:100E700051305B07840080305C3D8500003FDD0021
:100E8000013FDE005D082000C70421005E0820004D
:100E9000C804080023002008A10021082000D00079
:100EA0008C0122008C0123008C01FC3021008C007D
:100EB00020008C140C1064302100D9000030DA00BE
:100EC000003087311027873102302300A10021082C
:100ED000A20022082200E600230023082200E700E7
:100EE000230024082200E8002000500885314D2509
:100EF0008731013A031D7E2F0130080000300800C1
:100F00002300A4018E318B2687312300A300230800
:100F1000A8002808210048060319A32F2300A401D4
:100F2000A40A28030319962F0730982F06302300B0
:100F3000A3002308A5002508A0002608A100270873
:100F4000A2008E31CC2623002808A300230821000C
:100F5000C8002300240808002300A800210046033D
:100F6000031DB82FC60123002808240091000800A3
:100F70002400141CC42F11082300A3002308A4007C
:100F8000280824009100080009302300A30023084A
:100F9000A5002508A0002608A1002708A2008F317F
:100FA0000227080023002008A10021082000CE000D
:100FB0002100C601C60AC701FF302300A100210895
:100FC0002100D900DA0100308E31EE268731210070
:100FD000C501C50A8F311727873196302100D90006
:100FE0000030DA000130873110270130080021007D
:100FF0005C08DA005B08D9008E31BC2608000800C6
:101D1600003020000C1901300800640080010131F8
:101D2600890B912E003420003408AA003508AB0038
:101D36003608AC004E088531F3250800200053080C
:101D46000319AC2E833188238E3101302000D30253
:101D5600A12E013008000530FD007D082000B700E7
:101D66003708B4003808B5003908B6008E31962613
:101D7600080004302100910040308B000A30250015
:101D860093000130910092012130200098008B17BA
:101D96000800230020082200E60023002108220074
:101DA600E700230022082200E80020004C088531C5
:101DB6004D250800230020082200E6002300210804
:101DC6002200E700230022082200E8002000500835
:101DD60085314D2508002100DC005C08DB005B082E
:101DE6002000BC0021005908DB005B082000BD0074
:101DF60021005A08DB005B082000BE0008007E1C9C
:101E0600062F8E31962E230020082200E60023009E
:101E160021082200E700230022082200E800200013
:101E26004E0885314D25080020008E0122008E01C6
:101E360023008E0121008E0191152400950140306A
:101E46009400FF3092003A30950034302100DF00D4
:101E56005F08C900843115240800FB01FC01771CCA
:101E6600382F7908FB077A08FC3D0130F935FA0D61
:101E7600890B392F0130F836F70C890B3E2F77087E
:101E86007804031D322F7C08F8007B08F700080051
:101E960021006708EB006608EA006808FF3EE900D3
:101EA6006A0886006B088700690881006A08860050
:101EB6006B088700413181016A0886006B0887003C
:101EC6004231810108002100E401E501601C6F2F09
:101ED6006208E4076308E53D0130E235E30D890B4E
:101EE600702F0130E136E00C890B752F6008610414
:101EF600031D692F6508E1006408E0000800DB3077
:101F06002100DB005B08DE0021005A08DC005908CE
:101F1600DB00D90A0319DA0A5B0884005C0885002D
:101F26000008DD005D08DF005F08031908005F0890
:101F36008731FF278F31872F2300AB0102302B0219
:101F4600031808002B08A900AA01A935AA0DAE306E
:101F56002907840080302A3D8500013F8A00003F22
:101F66000A008F31013A0319080001302300A90045
:101F76002908AB07A12F2100DC000830DA005A0837
:101F8600DD00DE015C08DA000730DA36890BC82F7F
:101F96005E355A04DB005B08DE000310DC0D5908D1
:101FA6005E02031CD82F5908DE020130DD02031D34
:101FB600C52F5E0808002300AC0103302906031D67
:101FC600F82F2A082B04031DF82F20008C1CED2F58
:101FD6008C10F02F8C18F02F8C1464302100D9004F
:101FE6000030DA0000308731102723002C08A900C2
:0A1FF6002D08AA002E08AB00080019
:020000040001F9
:02000E00E4FF0D
:00000001FF
