:040000000BEF00F012
:100008004082FACF26F0FBCF27F024ED06F082EFEE
:0200180009F0ED
:1003000000010002000400080010002000400080EE
:10031000000001000200040008001000200040005E
:1003200080D61388130000000000000000000000C9
:1003300000000000000000000000000000000000BD
:10034000000001010202020203030303030303038B
:10035000F21090111A12BE03960006A80004601451
:100360009210D6134661696C6564206F6E206174CB
:1003700074656D707420746F20506F73740A00463A
:1003800061696C6564206F6E204E554C4C20706F17
:10039000696E7465720A004661696C656420496E15
:1003A000697469616C697A6174696F6E0A004F746F
:1003B000686572204661696C7572650A0000030EFB
:1003C0000001D719D8A440D00001D8050001D911E7
:1003D000D8A43AD089A002D0899001D089800001A8
:1003E0009251D8A40BD0FF0E0001B76F000E000190
:1003F000B86F000E17EC0AF0010E19D0000192053B
:10040000D8A40BD0000E0001B76FFF0E0001B86F2B
:10041000000E17EC0AF0020E0AD0000E0001B76FB2
:10042000000E0001B86FFF0E17EC0AF0000E00017D
:10043000926F080E0001DF6FDFC0D4F0E0C0D5F08E
:10044000E1C0D6F0C4EC09F000018E05D8A411D0AB
:10045000080E0001D719D8A467D0000E00018E6FD6
:10046000000194079EEC02F00101005127EC0AF014
:100470005BD000018E51D8A457D0050E0001D719CA
:10048000D8A433D000019451D8A412D0340E000166
:10049000946F010E0001916F000E0001B86F320ED3
:1004A000B76F010E61EC07F0010E00018E6F3CD0BA
:1004B00000019407000194510001DA6FDB6B000129
:1004C000DA1FDB1FDA4BDB2B330E0001DA27000EBD
:1004D000DB23000E0001DA25D96E010E0001DB21BD
:1004E000DA6EDF5027EC0AF01FD0090E0001D71991
:1004F000D8A41AD0000194510001DA6FDB6B00011F
:10050000DA1FDB1FDA4BDB2B330E0001DA27000E7C
:10051000DB23000E0001DA25D96E010E0001DB217C
:10052000DA6EDF5027EC0AF0000E0001DC6FDCC051
:10053000D7F0DDC0D8F0DEC0D9F01200000E000107
:10054000B96F030E0001B96501D00ED00001B95199
:10055000010D000EF324D96E010EF420DA6E000EA8
:10056000DF6E0001B92BEDD7000E0001BB6F0A0E44
:100570000001BB6501D06FD0000E0001BC6F030EFF
:100580000001BC6501D064D00001BC510001D8A4B9
:1005900015D00001BB51040D0001BC51F326000E23
:1005A000F422040EF326000EF422000EF324D96E7A
:1005B000010EF420DA6EFF0EDF6E47D00001BC059D
:1005C000D8A415D00001BB51040D0001BC51F32685
:1005D000000EF422040EF326000EF422000EF32483
:1005E000D96E010EF420DA6E83C0DFFF2ED0020E2A
:1005F0000001BC19D8A415D00001BB51040D0001A5
:10060000BC51F326000EF422040EF326000EF42251
:10061000000EF324D96E010EF420DA6E84C0DFFFE1
:1006200014D00001BB51040D0001BC51F326000E93
:10063000F422040EF326000EF422000EF324D96EE9
:10064000010EF420DA6E85C0DFFF0001BC2B97D7C6
:100650000001BB2B8CD7000E0001BA6F030E000106
:10066000BA6501D012000001BA510001B76FB86B32
:10067000300E0001B727000EB823000E0001B72589
:10068000D96E010E0001B821DA6E000EDF6E000196
:10069000BA2BE4D7C3C0CBF0C4C0CCF0000120EE2D
:1006A00002F0CB51D926CC51DA22DF50D8B46FD02A
:1006B000F2CFC9F0F29E000120EE01F0CB51D92615
:1006C000CC51DA22DF500001C76F010E0001C725AF
:1006D0000001BD6F0001BE6B000EBE23000E0001C5
:1006E000C06F030EBF6F4DEC09F00001BD5100015A
:1006F000C325D96E0001BE510001C421DA6EC5C008
:10070000E1FFC6C0E2FFDECFE6FFDECFE6FFDECFD1
:10071000E6FF000120EE01F0CB51D926CC51DA22C0
:10072000DF2ACBC0D9FFCCC0DAFF000110EE01F008
:10073000CB51E126CC51E222DE50E65CD8A019D0A4
:10074000000120EE01F0CB51D926CC51DA22CBC0EA
:10075000E1FFCCC0E2FFE7500001B76F000110EEEF
:1007600001F0CB51E126CC51E222E750EBEC08F04E
:10077000DF6E000120EE02F0CB51D926CC51DA22F7
:10078000DF06DF500001CA6FC9C0F2FF14D0C5C038
:10079000D9FFC6C0DAFF000EDF6E000120EE01F0C7
:1007A000C551D926C651DA22000EDE6E000EDD6E6E
:1007B000000E0001CA6F0001CA51120000018A51E7
:1007C00000018B11D8B412008AC086F08BC087F06C
:1007D00086C0B7F087C0B8F077EC06F000018D6FE7
:1007E00000018D51020D600EF324D96E000EF4202D
:1007F000DA6EDE06000EDD5ADE50DE10D8A443D0DD
:10080000030E0001806F8DC081F00001826B80C0FB
:10081000D4F081C0D5F082C0D6F000018D51020D18
:10082000210EF324F66E030EF420F76E01D80CD0DF
:100830000500FA6E0900F550FD6E0900F550FE6ED8
:10084000F850FF6EFA50120000018D51020D010E9A
:10085000F324F66E030EF420F76E0900F5CFD7F0FF
:100860000900F5CFD8F00001D71D0001D96F0001B4
:10087000D81D0001DA6F0001D95100018A1700016B
:10088000DA5100018B1700018D51020D010EF32486
:10089000F66E030EF420F76E0900F5CFD7F00900CD
:1008A000F5CFD8F00001D71D0001D96F0001D81D88
:1008B0000001DA6F0001D951000186170001DA51F9
:1008C000000187170001865100018711D8B412007A
:1008D0007FD76BD088C0B7F089C0B8F077EC06F04E
:1008E0000001E66F0001E651030D580EF324F66E89
:1008F000030EF420F76E0900F5CFC3F00A00F5CF20
:10090000C4F0B40E0001C56F000E0001C66F4AECC2
:1009100003F00009D8A41FD00001E651020D010E1A
:10092000F324F66E030EF420F76E0900F5CFE2F023
:100930000900F5CFE3F00001E21D0001E46F0001C2
:10094000E31D0001E56F0001E4510001881700017B
:10095000E55100018917B4C0D7F0B5C0D8F0B6C0D2
:10096000D9F00001E651040D020EF326000EF42228
:10097000500EF324F66E030EF420F76E01D80CD05F
:100980000500FA6E0900F550FD6E0900F550FE6E87
:10099000F850FF6EFA501200D70ED96E000EDA6EC4
:1009A000DF50D8B402D0020E1200E0EC09F00009CA
:1009B000D8B406D00001885100018911D8A48AD783
:1009C000A3EC08F0F2D7D8C0B9F0D9C0BAF020EC47
:1009D0000AF0000E0001DA6F010E0001DA6501D0A5
:1009E00066D00001DA51040D500EF324F66E030EAA
:1009F000F420F76E0900F5500900F510D8B413D0B3
:100A00000001DA51040D020EF326000EF422500EFE
:100A1000F324F66E030EF420F76E0900F55009007A
:100A2000F510D8A402D0030E12000001DA51030D14
:100A3000580EF324F66E030EF420F76E0900F5CF7E
:100A4000B7F00A00F5CFB8F00001DA51030D020E3D
:100A5000F326000EF422580EF324F66E030EF42053
:100A6000F76E0800F5CFB9F02FEC09F00001DA516C
:100A7000040D500EF324F66E030EF420F76E01D829
:100A80000ED00500FA6E0900F550FD6E0900F55014
:100A9000FE6EF850FF6EFA500001DA511200E806BF
:100AA000D8B402D0050E12000001DA2B95D7000E43
:100AB0001200C3C0CCF0C4C0CDF0CCC0D9FFCDC0B3
:100AC000DAFF000110EE02F0CC51E126CD51E22216
:100AD000DE50E65CD8B05CD0F2CFCBF0F29ECCC05A
:100AE000D9FFCDC0DAFFDF500001C86F0001C85147
:100AF0000001B96FBA6B000120EE02F0CC51D9268B
:100B0000CD51DA22DF500001C96F000120EE01F063
:100B1000CC51D926CD51DA22DF500001CA6F000135
:100B2000CA510001C9250001B76F0001B86B00016F
:100B3000B837C9EC06F0010E0001B7250001BD6F02
:100B4000000E0001B8210001BE6F000E0001C06F51
:100B5000030EBF6F4DEC09F00001BD510001C3252C
:100B6000D96E0001BE510001C421DA6EC5C0DEFF9E
:100B7000C6C0DEFFC7C0DEFF000120EE02F0CC5190
:100B8000D926CD51DA22DF2ACBC0F2FF010E1200A6
:100B9000000E12000DC016F00EC017F016C0D9FFDF
:100BA00017C0DAFF10EE02F01650E1261750E222CD
:100BB000DE50E65CD8B046D0F2CF15F0F29E16C0FB
:100BC000D9FF17C0DAFFDF50126E1250036E046AAD
:100BD00020EE02F01650D9261750DA22DF50136E9D
:100BE00020EE01F01650D9261750DA22DF50146E8D
:100BF00014501324016E026A0236DCEC07F0010E79
:100C00000124076E000E0220086E000E0A6E030E0D
:100C1000096EB1EC09F007500D24D96E08500E2072
:100C2000DA6E0FC0DEFF10C0DEFF11C0DEFF20EE67
:100C300002F01650D9261750DA22DF2A15C0F2FF2B
:100C4000010E1200000E12000600E9CF28F0EACFD4
:100C500029F0E1CF2AF0E2CF2BF0D9CF2CF0DACF78
:100C60002DF0F3CF2EF0F4CF2FF0F6CF30F0F7CFFA
:100C700031F0F8CF32F0F5CF33F09EA415D0BF504D
:100C8000246EBE50346E24C035F0200E3424366EEF
:100C90004E0E3520376E3750BF6E36C0BEFF9E9465
:100CA0000001952B384A392A9EA603D09E9601EC66
:100CB0000AF033C0F5FF32C0F8FF31C0F7FF30C093
:100CC000F6FF2FC0F4FF2EC0F3FF2DC0DAFF2CC0BB
:100CD000D9FF2BC0E2FF2AC0E1FF29C0EAFF28C0EC
:100CE000E9FF27C0FBFF26C0FAFF40921100800EEB
:100CF0000001BE6F030E0001C06F0001C0BF46D0EF
:100D00000001C051040DF3CFB9F0B7C0BAF0B8C0BC
:100D1000BBF00001B92B04D00001D890BB33BA332B
:100D20000001B92FF9D70001BA510F0B0001BF6FB5
:100D30000001BF510001D8B426D0FF0E0001B96FE9
:100D4000FF0E0001BA6F0001BF510001BB6FBC6B09
:100D50000001B9510001BB270001BA510001BC23B9
:100D6000410E0001BB25F66E030EBC21F76E080094
:100D7000F5CFBDF00001C051040DF3500001BD25B9
:100D80000001BE6F03D00001C007B7D70001BE51FC
:100D90001200000E0001BC6F0001B8AF08D00001C6
:100DA000B76DB81FD8B0B82B010E0001BC6F0001A1
:100DB000BAAF05D00001B96DBA1FD8B0BA2B000187
:100DC000B9510001BA11D8B426D0010E0001BB6F91
:100DD00006D00001D890B937BA370001BB2B00010B
:100DE000BAAFF7D70001B9510001B75D0001BA51A0
:100DF0000001B859D8A008D00001B9510001B75F6F
:100E00000001BA510001B85B0001D890BA33B93380
:100E10000001BB2FE7D70001BC510001D8B405D0B9
:100E20000001B76DB81FD8B0B82BB7C0B7F0B8C0C5
:100E3000B8F01200D388D38AD38C9C0E0001D96FEE
:100E40003F0ED86FE3EC04F00001E76F0001E751BB
:100E50000001D8A429D069EC04F00001E76F24D088
:100E6000640E0001B76F030E0001B86F68EC09F063
:100E700027D07F0E0001B76F030E0001B86F68EC3A
:100E800009F01ED0970E0001B76F030E0001B86F76
:100E900068EC09F015D0AE0E0001B76F030E00012B
:100EA000B86F68EC09F00CD00001E751010AD8B422
:100EB000D7D7020AD8B4DDD7060AD8B4E3D7EBD720
:100EC000FFD70001BB6F100E0001BB6112000001D3
:100ED000BB51020D210EF324F66E030EF420F76EC3
:100EE0000900F5500900F510D8B412000001B751FF
:100EF0000001B811D8B412000001BB51020D600E00
:100F0000F324D96E000EF420DA6EB7C0DEFFB8C04D
:100F1000DDFF0001BB51020D010EF324F66E030E3E
:100F2000F420F76E0900F5CFB9F00900F5CFBAF05B
:100F30000001B95100018A130001BA5100018B135D
:100F400012000001D36F020E0001D36133D0000103
:100F5000D351030D580EF324F66E030EF420F76EF2
:100F60000900F5CFC3F00A00F5CFC4F0CEC0C5F03C
:100F7000CFC0C6F0D0C0C7F059EC05F0E806D8A441
:100F800019D00001D351020D010EF324F66E030EA9
:100F9000F420F76E0900F5CFD1F00900F5CFD2F0BB
:100FA0000001D151000188130001D25100018913C1
:100FB000010E1200000E1200000E066E02AE06D0E8
:100FC000016C021ED8B0022A010E066E04AE04D0D7
:100FD000036C041ED8B0042A03500410D8B418D0EF
:100FE000010E056E04D0D89003360436052A04AEEF
:100FF000FAD70350015C04500258D8A004D0035023
:10100000015E0450025AD89004320332052EF1D703
:101010000650D8B404D0016C021ED8B0022A01C018
:1010200001F002C002F012001D6E020E1D602FD0F2
:101030001D50030D580EF324F66E030EF420F76EC8
:101040000900F5CF0DF00A00F5CF0EF018C00FF033
:1010500019C010F01AC011F0CAEC05F0E806D8A4C7
:1010600016D01D50020D010EF324F66E030EF4206F
:10107000F76E0900F5CF1BF00900F5CF1CF01B50EF
:10108000000188131C5000018913010E1200000E8C
:101090001200000E0001D76F2CEC0AF00001DB6F8C
:1010A000000193510001DB19D8B41ED0010E0001DC
:1010B000D76F0001DB05D8B40CD0070E0001D86F44
:1010C000D8C0D4F0D9C0D5F0DAC0D6F0F6EC09F02B
:1010D0000BD0060E0001D86FD8C0D4F0D9C0D5F01F
:1010E000DAC0D6F0F6EC09F0DBC093F00001D7517E
:1010F00012000001D76FD7C090F0000E806E000E76
:10110000896E0F0EC16EFC0E926E89828990000E60
:101110000001B86F320EB76F000E61EC07F0020EDF
:101120000001D46FD4C0CEF0D5C0CFF0D6C0D0F07F
:1011300000019051A1EC07F0E806D8A402D0010EFE
:101140001200000E1200000E0001DC6F010E000103
:10115000DC6501D012000001DC51020D5E0EF324AB
:10116000F66E030EF420F76E01D80CD00500FA6E6F
:101170000900F550FD6E0900F550FE6EF850FF6E47
:10118000FA501200E806D8B412000001DC2BDED7BA
:10119000000E0001DA6F030E0001D719D8A414D095
:1011A0000001D8510001D911D8A40ED089A202D0D3
:1011B000899202D089A28982000E0001B86F320E96
:1011C000B76F000E61EC07F0DAC0D7F0DBC0D8F0E3
:1011D000DCC0D9F012000001B86F080E0001B96F31
:1011E000000E0001BA6FD8900001B8350001BA3581
:1011F0000001BA6F0001D890B8370001B751000163
:10120000BA5DD8A004D00001B7510001BA5F000157
:10121000B92FE9D70001BA5112000001BD6FBDC05E
:101220008FF0010E0001916F000E0001926FFF0E12
:101230000001B76F000E0001B86F000E17EC0AF046
:10124000010E00018E6F9BEC09F0000E0001B86FDB
:10125000960EB76F010E61EC07F0010E1200B7C0D9
:10126000BAF0B8C0BBF00001B905BAC0D9FFBBC025
:10127000DAFFDF6E000120EE01F0BA51D926BB5132
:10128000DA22000EDF6E000120EE02F0BA51D926FC
:10129000BB51DA22000EDF6E12000001BD510001C9
:1012A000BF03F3CFC1F0F4CFC2F00001BD51000184
:1012B000C003F3500001C2270001BE510001BF036B
:1012C000F3500001C227C1C0BDF0C2C0BEF0120081
:1012D000B90E0001B96F000E0001BA6F04D0000111
:1012E000BB5132EC0AF0B7C0F6FFB8C0F7FF0001FF
:1012F000B74BB82B0800F5CFBBF00001BB51D8B4F9
:101300001200EDD701EE00F0340EEE6AE806FDE1C2
:1013100000EE60F0570EEE6AE806FDE100EE34F0F4
:101320000C0EEE6AE806FDE140904092000EF86E69
:1013300000011AEF07F0000E826E000E8B6E0F0E8A
:10134000C16E000E946E9D86000EC66E400EC76E76
:10135000C868320EC66E340E0001946F9EEC02F027
:10136000120007500902F3CF0BF0F4CF0CF0075036
:101370000A02F3500C2608500902F3500C260BC049
:1013800007F00CC008F0120040B20CEF0AF0D4C015
:10139000CEF0D5C0CFF0D6C0D0F000018F51A1EC77
:1013A00007F01200040E9D6E400EF26E0A0EBD6E26
:1013B000010EBE6E000EBF6E210ECD6EF28E1200BB
:1013C00004D0DEEC03F00001950700019551D8A48C
:1013D000F8D7010E1200D4C0CEF0D5C0CFF0D6C0E1
:1013E000D0F000019051A1EC07F01200D4C0CEF073
:1013F000D5C0CFF0D6C0D0F000018C51A1EC07F0E1
:101400001200050E216E21C01EF022C01FF023C065
:1014100020F00CEC0AF012001EC018F01FC019F0EA
:1014200020C01AF000018F5114EC08F012000001E6
:10143000B96FB9C083F0B7C084F0B8C085F01200AE
:10144000B9C0B7F0BAC0B8F0D2EC09F01200000190
:10145000B76FB7C0C9FF1200000E89B4010E1200A9
:06146000000E1200120054
:020000040020DA
:08000000FFFFFFFFFFFFFFFF00
:020000040030CA
:0E000000FF08191EFF8085FF0FC00FE00F40A4
:00000001FF
